:020000040000FA
:0400000033EF00F0EA
:06000800458279EF07F0CC
:100018004580D8CF08F0E8CF09F0E0CF0AF0F2A485
:100028000AD03F04D8A407D0010E4026000E412272
:10003800422243220BD0F2A409D0020E3F18D8A4C2
:1000480005D04006000E415A425A435AF2940AC05B
:10005800E0FF09C0E8FF08C0D8FF45901000C2EFD4
:0200680007F09F
:10030000005354415254494E4720534541524348AB
:1003100000544F20535441525420534541524348B6
:1003200000524553455454494E4720524F424F5472
:1003300000434845434B53554D204641494C4544A5
:1003400000434845434B53554D205041535345447A
:1003500000437269746963616C204572726F720048
:10036000505245535320425554544F4E002575006A
:01037000008C
:10037200000E286E000E276E27501124D96E2850C9
:100382001220DA6E2F0EDF6418D027501124D96E96
:1003920028501220DA6E3A0EDF600FD0150E272495
:1003A200D96E000E2820DA6E27501124E16E2850F3
:1003B2001220E26EE750D00F20D027501124D96EC0
:1003C20028501220DA6E400EDF6418D02750112414
:1003D200D96E28501220DA6E470EDF600FD0150E4C
:1003E2002724D96E000E2820DA6E27501124E16EE0
:1003F20028501220E26EE750C90FDF6E274A282AE2
:1004020028BEBAD7285004E10C0E275CD8A0B4D776
:100412001550D8A402D0010E01D0000E1610216E84
:100422001750D8A402D0010E01D0000E1810226E6F
:100432001950D8A402D0010E01D0000E1A10236E5A
:100442001B50D8A402D0010E01D0000E1C10246E45
:100452001D50D8A402D0010E01D0000E1E10256E30
:100462001F50D8A402D0010E01D0000E2010266E1B
:100472002150221823182418136E146A26502518A6
:10048200D8A402D0010E01D0000E131A000E141AC5
:1004920013501410D8B40AD0020EABEC07F0410E80
:1004A2000F6E030E106E7EEC06F01200020EABEC25
:1004B20007F0310E0F6E030E106E7EEC06F0120086
:1004C20019C0D9FF1AC0DAFFDF501B6E1B500B6E2A
:1004D2000C6A20EE07F01950D9261A50DA22DECF24
:1004E2000DF0DDCF0EF0D5EC07F00BC011F00CC013
:1004F20012F0000E146E640E136E94EC04F011C030
:1005020020F012C021F020EE01F01950D9261A5025
:10051200DA22DF50D8B424D020EE06F01950D926C2
:100522001A50DA22DF501B6E010E1C6E1B2A02D0FB
:10053200D8901C361B2EFCD71C508A108A6E20EED7
:1005420007F01950D9261A50DA22DECF1BF0DDCF80
:100552001CF020501B5C206E21501C58216E14D0C0
:1005620020EE06F01950D9261A50DA22DF501B6EFF
:10057200010E1C6E1B2A02D0D8901C361B2EFCD7F3
:100582001C50FF0A8A148A6E20EE02F01950D926F6
:100592001A50DA22DECF1BF0DDCF1CF01BC0D9FFD0
:1005A2001CC0DAFF2044E846FC0BDF6E20EE04F0AC
:1005B2001950D9261A50DA22DECF1BF0DDCF1CF0FB
:1005C2001BC0D9FF1CC0DAFF20C01DF021C01EF0E5
:1005D200060E1F6E1E341E321D321F2EFBD71D50FB
:1005E200DF6E120044EC07F0980E226E000E236EAE
:1005F200A10E246E000E256E74EC03F0000E0001B5
:10060200956F4B0E946F000E976F4B0E966F000E08
:10061200906F000E916F000E926F000E936F99EC27
:1006220005F03F50D8A40FD0980E2B6E000E2C6E02
:10063200A10E2D6E000E2E6E94C02FF095C030F0DC
:100642004AEC06F047D03F04D8A41BD0980E2B6E7C
:10065200000E2C6EA10E2D6E000E2E6E96C02FF087
:1006620097C030F0900E316E000E326E840E336EF3
:10067200000E346E440E356E000E366E01EC07F03D
:1006820029D0020E3F18D8A413D0980E2B6E000E5C
:100692002C6EA10E2D6E000E2E6E96C02FF097C0FE
:1006A20030F0400E316E000E326E5FEC07F012D069
:1006B200030E3F18D8A410D0980E2B6E000E2C6E8D
:1006C200A10E2D6E000E2E6E96C02FF097C030F048
:1006D20013EC06F03F6EA5D7510E0F6E030E106E8F
:1006E2007EEC06F09ED722C0D9FF23C0DAFF000EAF
:1006F200DF6E20EE01F02250D9262350DA22010EBD
:10070200DF6E20EE02F02250D9262350DA22790E33
:10071200DE6E0F0EDD6E20EE04F02250D92623503D
:10072200DA22780EDE6E0F0EDD6E20EE06F022501B
:10073200D9262350DA22000EDF6E20EE07F0225077
:10074200D9262350DA22C70EDE6E000EDD6E24C0DB
:10075200D9FF25C0DAFF000EDF6E20EE01F0245033
:10076200D9262550DA22010EDF6E20EE02F0245047
:10077200D9262550DA22770EDE6E0F0EDD6E20EEC0
:1007820004F02450D9262550DA22760EDE6E0F0EA2
:10079200DD6E20EE06F02450D9262550DA22020E14
:1007A200DF6E20EE07F02450D9262550DA22C70E3C
:1007B200DE6E000EDD6E22C019F023C01AF061EC6D
:1007C20002F024C019F025C01AF061EC02F0120008
:1007D2009490929E949695909592929C8C908C92E5
:1007E2008B968B90899C899E270E0F6EF50EE82EB4
:1007F200FED70F2EFCD700F0030ED7EC05F00D0E3E
:100802000F6EFC0EE82EFED70F2EFCD7030ED7EC90
:1008120005F0850EE82EFED700F0030ED7EC05F0AA
:10082200210EE82EFED700F0020ED7EC05F0210EC5
:10083200E82EFED700F0000E0D6E280E93EC07F0A6
:10084200210EE82EFED700F0000E0D6E080E93EC7E
:1008520007F0210EE82EFED700F0000E0D6E010EFD
:1008620093EC07F00D0E0F6EFC0EE82EFED70F2E46
:10087200FCD7000E0D6E060E93EC07F0210EE82E4B
:10088200FED700F0000E0D6E0C0E93EC07F0210E59
:10089200E82EFED700F012000DC0D9FF0EC0DAFF1D
:1008A200DECF17F0DDCF18F00DC0D9FF0EC0DAFF92
:1008B200DECF0FF0DDCF10F00DC0D9FF0EC0DAFF92
:1008C200DECF11F0DDCF12F00BC013F00CC014F02C
:1008D2001150135E1250145AD8901430166E133001
:1008E200156E0F501526105016220DC0D9FF0EC0DE
:1008F200DAFF15C0DEFF16C0DDFF0DC0D9FF0EC046
:10090200DAFFDECF0FF0DDCF10F017500F5E185078
:10091200105AD00E0F5C070E1058D8A002D0010E4C
:100922001200000E1200000E166E14AE06D0136CEA
:10093200141ED8B0142A010E166E12AE06D0116C17
:10094200121ED8B0122A010E161A000E186E000ED0
:10095200176E13501410D8B41CD0010E156E04D0AB
:10096200D89013361436152A14AEFAD7D890173603
:1009720018361350115C14501258D8A005D01350D9
:10098200115E1450125A1780D89014321332152E59
:10099200EDD71650D8B404D0176C181ED8B0182A48
:1009A20017C011F018C012F0120020EE01F0225010
:1009B200D9262350DA22010EDF6E20EE01F02450F8
:1009C200D9262550DA22000EDF6E000E2A6E000EA6
:1009D200296E21D022C0D9FF23C0DAFF29C0DFFF50
:1009E20024C0D9FF25C0DAFF29C0DFFF22C019F0D9
:1009F20023C01AF061EC02F024C019F025C01AF0ED
:100A020061EC02F0030E286E980EE82EFED7282E17
:100A1200FCD7294A2A2A2650295C2A50800A286EA5
:100A22002750800A2858D8B01200D4D720EE01F0FF
:100A32002250D9262350DA22000EDF6E20EE01F07A
:100A42002450D9262550DA22000EDF6E000E2A6EBF
:100A5200000E296E21D022C0D9FF23C0DAFF29C09F
:100A6200DFFF24C0D9FF25C0DAFF29C0DFFF22C083
:100A720019F023C01AF061EC02F024C019F025C06D
:100A82001AF061EC02F0030E286E980EE82EFED7E3
:100A9200282EFCD7294A2A2A2650295C2A50800A65
:100AA200286E2750800A2858D8B01200D4D720EEDA
:100AB20001F02250D9262350DA22010EDF6E20EEF9
:100AC20001F02450D9262550DA22010EDF6E000EE5
:100AD2002A6E000E296E21D022C0D9FF23C0DAFF70
:100AE20029C0DFFF24C0D9FF25C0DAFF29C0DFFFFC
:100AF20022C019F023C01AF061EC02F024C019F0F0
:100B020025C01AF061EC02F0030E286E980EE82E52
:100B1200FED7282EFCD7294A2A2A2650295C2A5099
:100B2200800A286E2750800A2858D8B01200D4D7DD
:100B320010EC08F0010EABEC07F0600E0F6E030E26
:100B4200106E7EEC06F0020EABEC07F0110E0F6E8B
:100B5200030E106E7EEC06F083A4FED710EC08F0B4
:100B6200010EABEC07F0010E0F6E030E106E7EEC61
:100B720006F0000E146E000E136E020E126E040EBC
:100B8200116EBA0EE82EFED7112EFCD7122EFAD70E
:100B920000D0134A142A14BEF0D7145004E10A0EEE
:100BA200135CD8A0EAD710EC08F012000C6E0CC04F
:100BB2000BF0010E0B168B500B18FE0B0B188B6EE5
:100BC2000CC00BF0D8900B32010E0B160B460B46E5
:100BD2000B468B500B18F70B0B188B6E0CC00BF0DF
:100BE200D8900B32D8900B32010E0B168C500B188A
:100BF200FE0B0B188C6E0CC00BF0D8900B32D890F9
:100C02000B32D8900B32010E0B160B468C500B1880
:100C1200FD0B0B188C6E1DEC08F0030EE82EFED7B0
:100C220000F012002BC022F02CC023F02DC024F0C3
:100C32002EC025F02FC026F030C027F0ADEC06F014
:100C420025D010EC08F0210E0F6E030E106E7EEC14
:100C520006F0000E346E000E336E020E326E040E7B
:100C6200316EBA0EE82EFED7312EFCD7322EFAD7CD
:100C720000D0334A342A34BEF0D7345004E10A0E8D
:100C8200335CD8A0EAD710EC08F0FF0083A4FED7AB
:100C9200D8D72BC022F02CC023F02DC024F02EC0B8
:100CA20025F02FC026F030C027F0D6EC04F06850B3
:100CB20069CF31F0326A31C032F0316A3110366EAA
:100CC2003250376E685069CF31F0326A31C032F03B
:100CD200316A3110336E3250346E33C00BF034C08F
:100CE2000CF0360E0D6E000E0E6E4DEC04F0356EED
:100CF2003504D8A4E7D7010E12001AD0010E0D6EEA
:100D02000FC0F6FF10C0F7FFF86A020EF76403D0B7
:100D12000800F55005D0F6CFE9FFF7CFEAFFEF5014
:100D220093EC07F00F4A102A210EE82EFED700F0AE
:100D32000FC0F6FF10C0F7FFF86A020EF76403D087
:100D42000800F55005D0F6CFE9FFF7CFEAFFEF50E4
:100D52000009D8B41200D2D726C029F027C02AF041
:100D62002ABE12002A5003E12904D8A0120022C090
:100D7200D9FF23C0DAFF29C0DFFF24C0D9FF25C075
:100D8200DAFF29C0DFFF22C019F023C01AF061EC9C
:100D920002F024C019F025C01AF061EC02F0030E33
:100DA200286E980EE82EFED7282EFCD72906D8A04A
:100DB2002A06D6D7030E0318D8A402D0010E1200B9
:100DC200020E0318D8A412D0000E3E6E000E046E5E
:100DD20004500124D96E000E0220DA6E000EDF6E7E
:100DE200042A0B0E0464F4D7000E12003E500124B4
:100DF200D96E000E0220DA6E03C0DFFF3E2AF4D75E
:100E02002BC022F02CC023F02DC024F02EC025F0E0
:100E12002FC026F030C027F058EC05F035C0D9FFBE
:100E220036C0DAFFDE04D8A4F9D733C010F034C0DC
:100E320011F024EC07F033C011F034C012F0B9EC19
:100E420001F0020E120010EC08F0010EABEC07F0FC
:100E5200000E136E000E126E010E0D6E1250102453
:100E6200D96E13501120DA6EDF5093EC07F0124A5C
:100E7200132A13BEF1D7135005E10A0E125CD8B043
:100E82001200EAD71200720ED36ED3A4FED7F28EEE
:100E9200F28CD08EE9EC03F0F6EC07F0E8EC07F008
:100EA200000E0C6EC70E0B6E03EC08F09390939439
:100EB2009584C80ED56EF28AF19412002BC022F0EE
:100EC2002CC023F02DC024F02EC025F02FC026F018
:100ED20030C027F017EC05F031C0D9FF32C0DAFF7D
:100EE200DE50DE10DE10DE10D8A4F6D7030E12009C
:100EF200D9CF05F0DACF06F09EAA0DD03F04D8A4D0
:100F02000AD0840E016E000E026EAECF03F0DBEC4F
:100F120006F0446E01D0AE5006C0DAFF05C0D9FF1C
:100F2200459211000E6E0DB002D0899E01D0898EBD
:100F32000E380F0B0F0BD7EC05F0060EE82EFED77E
:100F420000D00E500F0BD7EC05F0210EE82EFED785
:100F520000F012000F6E0F04D8A405D0000E0D6E23
:100F6200800E93EC07F0020E0F18D8A405D0000EE5
:100F72000D6EC00E93EC07F0210EE82EFED700F0A6
:100F8200120000EE60F0300EEE6AE806FDE100EEBF
:100F920038F00D0EEE6AE806FDE145904592000E2E
:100FA200F86E0001F3EF02F00B500D02F3CF0FF0D9
:100FB200F4CF10F00B500E02F35010260C500D021D
:100FC200F35010260FC00BF010C00CF01200010EEF
:100FD200B76E9284000EB86E000EB96E080E606E87
:100FE200470E636E695068501200948ECB0EAF6E3E
:100FF200000EB06EAA86AC84AB88AB8EAC8A9D8A9A
:101002009F8A1200000E7F6E800E7E6E6F0E6F6ED4
:10101200000E6E6E0BC07BFF0C507A6E1200000E3B
:101022000D6E010E93EC07F00D0E0F6EFC0EE82E06
:10103200FED70F2EFCD71200898C030EE82EFED7A6
:0610420000F0899C120081
:020000040020DA
:08000000FFFFFFFFFFFFFFFF00
:020000040030CA
:0E000000FFC80F3F3C1D81FF0FC00FE00F40F7
:00000001FF
