:020000040000FA
:040000004FEF00F0CE
:060008004982D2EF07F06F
:100018004980D8CF07F0E8CF08F0E0CF09F0D9CF72
:100028000AF0DACF0BF0F3CF0CF0F4CF0DF0F2A416
:1000380011D03B04D8B403D03B50D8A40BD0000156
:100048009C51020DF350740FD96EDA6ADE2A000E45
:10005800DD2210D0F2A40ED0020E3B18D8A40AD08C
:1000680000019C51020DF350740FD96EDA6ADE0656
:10007800000EDD5AF2940DC0F4FF0CC0F3FF0BC064
:10008800DAFF0AC0D9FF09C0E0FF08C0E8FF07C0CF
:0A009800D8FF4990100032EF08F085
:10030000005354415254494E4720534541524348AB
:1003100000544F20535441525420534541524348B6
:1003200000524553455454494E4720524F424F5472
:1003300000434845434B53554D204641494C4544A5
:1003400000434845434B53554D205041535345447A
:10035000004D4F56494E4720544F20424F4D4200CA
:1003600052455455524E494E4720484F4D45004343
:100370007269746963616C204572726F72005052C9
:1003800045535320425554544F4E00534541524318
:1003900048494E470000000E296E000E286E13508B
:1003A0002824D96EDA6A2F0EDF6412D01350282465
:1003B000D96EDA6A3A0EDF600BD02850160FD96E6C
:1003C000DA6A13502824E16EE26AE750D00F18D0A1
:1003D00013502824D96EDA6A400EDF6412D013500D
:1003E0002824D96EDA6A470EDF600BD02850160F2A
:1003F000D96EDA6A13502824E16EE26AE750C90F19
:10040000DF6E284A292A29BECAD7295004E10C0EDA
:10041000285CD8A0C4D71650D8A402D0010E01D0B1
:10042000000E1710226E1850D8A402D0010E01D071
:10043000000E1910236E1A50D8A402D0010E01D05C
:10044000000E1B10246E1C50D8A402D0010E01D047
:10045000000E1D10256E1E50D8A402D0010E01D032
:10046000000E1F10266E2050D8A402D0010E01D01D
:10047000000E2110276E2250231824182518146E00
:10048000156A27502618D8A402D0010E01D0000EFC
:10049000141A000E151A14501510D8B408D0020EF4
:1004A00005EC08F0410E126E1CEC08F01200020E72
:1004B00005EC08F0310E126E1CEC08F012001C5016
:1004C000D96EDA6ADF501D6E1D500E6E0F6A1C5019
:1004D000D96EDA6A070ED926DECF10F0DDCF11F023
:1004E00047EC08F00EC014F00FC015F0000E176EA8
:1004F000640E166E8AEC05F014C022F015C023F0CD
:100500001C50D96EDA6A010ED926DF50D8B422D039
:100510001C50D96EDA6A060ED926DF501D6E010E08
:100520001E6E1D2A02D0D8901E361D2EFCD71E50DE
:100530008A108A6E1C50D96EDA6A070ED926DECF71
:100540001DF0DDCF1EF022501D5C226E23501E5880
:10055000236E13D01C50D96EDA6A060ED926DF50EE
:100560001D6E010E1E6E1D2A02D0D8901E361D2E45
:10057000FCD71E50FF0A8A148A6E1C50D96EDA6AA4
:10058000020ED926DECF1DF0DDCF1EF01DC0D9FF33
:100590001EC0DAFF2244E846FC0BDF6E1C50D96E09
:1005A000DA6A040ED926DECF1DF0DDCF1EF01DC0A5
:1005B000D9FF1EC0DAFF22C01FF023C020F0060EB4
:1005C000216E203420321F32212EFBD71F50DF6EC8
:1005D00012002BC024F02CC025F02DC026F02EC018
:1005E00027F02DEC07F074EC08F0600E126E1CEC96
:1005F00008F063D03150D96EDA6A3C0ED926DF504C
:10060000326E31503224D96EDA6ADF50D8A421D04C
:100610002BC024F02CC025F02DC026F02EC027F0D2
:10062000BBEC06F03150D96EDA6A3C0ED926DF50A9
:10063000020D3150F324D96EDA6A140ED926010E58
:10064000DBBE35D0010EDB50EDE1DE04D8A02FD0AB
:10065000E9D73150D96EDA6A3C0ED926DF50326EB6
:1006600031503224D96EDA6ADE04D8A420D02BC0EF
:1006700024F02CC025F02FC026F030C027F082ECEB
:1006800006F03150D96EDA6A3C0ED926DF50020DE1
:100690003150F324D96EDA6A140ED926010EDBBE6E
:1006A00006D0010EDB50EDE1DE04D8B0EAD73150C0
:1006B000D96EDA6A3C0ED926DF063150D96EDA6A75
:1006C0003C0ED926DF50D8A495D7030E1200245033
:1006D000D96EDA6A000EDF6E2450D96EDA6A010E26
:1006E000D926010EDF6E2450D96EDA6A020ED926A1
:1006F000790EDE6E0F0EDD6E2450D96EDA6A040EAE
:10070000D926780EDE6E0F0EDD6E2450D96EDA6AB1
:10071000060ED926000EDF6E2450D96EDA6A070E57
:10072000D926C70EDE6E000EDD6E2550D96EDA6A50
:10073000000EDF6E2550D96EDA6A010ED926010E41
:10074000DF6E2550D96EDA6A020ED926770EDE6E7C
:100750000F0EDD6E2550D96EDA6A040ED926760E9C
:10076000DE6E0F0EDD6E2550D96EDA6A060ED926C2
:10077000020EDF6E2550D96EDA6A070ED926C70E33
:10078000DE6E000EDD6E24C01CF05FEC02F025C0B2
:100790001CF05FEC02F012009490929E949695905B
:1007A0009592929C8C908C928B968B90899C899E32
:1007B000270E126EF50EE82EFED7122EFCD700F093
:1007C000030E0DEC06F00D0E126EFC0EE82EFED799
:1007D000122EFCD7030E0DEC06F0850EE82EFED788
:1007E00000F0030E0DEC06F0210EE82EFED700F00F
:1007F000020E0DEC06F0210EE82EFED700F0000EE2
:10080000106E280EEDEC07F0210EE82EFED700F05A
:10081000000E106E080EEDEC07F0210EE82EFED74C
:1008200000F0000E106E010EEDEC07F00D0E126ED2
:10083000FC0EE82EFED7122EFCD7000E106E060E10
:10084000EDEC07F0210EE82EFED700F0000E106E42
:100850000C0EEDEC07F0210EE82EFED700F0120092
:10086000B7EC07F0A10E246EAA0E256E67EC03F01C
:10087000000E00019E6F370E9D6F000EA06F5F0E81
:100880009F6FF1EC04F03B50D8A40FD0A10E2B6E5B
:10089000AA0E2C6E9DC02DF09EC02EF0600E2F6E05
:1008A000480E306E48EC05F037D03B04D8A40FD08A
:1008B000A10E2B6EAA0E2C6E9FC02DF0A0C02EF0A4
:1008C000600E2F6E480E306E93EC04F025D0020EB1
:1008D0003B18D8A411D0A10E2B6EAA0E2C6E9FC06F
:1008E0002DF0A0C02EF09DC02FF09EC030F0600E05
:1008F000316EE9EC02F010D0030E3B18D8A40ED0F4
:10090000A10E2B6EAA0E2C6E9FC02DF0A0C02EF053
:100910003C0E2F6ECCEC05F03B6EB5D76F0E126E11
:100920001CEC08F0B0D72F50D96EDA6A3C0ED926ED
:10093000DF50316E2F503124D96EDA6A000EDF6E2F
:100940002BC024F02CC025F02DC026F02EC027F09F
:10095000F4EC06F074EC08F0510E126E1CEC08F08A
:10096000000E376E000E366E685069CF31F0326A75
:1009700031C032F0316A3110336E3250346E33C0D0
:100980000EF034C00FF055EC07F0356E3050D96ED4
:10099000DA6ADE04D8A402D0020E12003550D8A4C0
:1009A00003D0364A372A04D0000E376E000E366E5A
:1009B00037BEDAD7680E365C420E3758D8A0D4D787
:1009C0002F50D96EDA6A3C0ED926DF2A2F50D96E05
:1009D000DA6A3C0ED926120EDF6401D0DDD7000E94
:1009E0001200000E1A6E000E196E685069CF14F0D6
:1009F000156A14C015F0146A1410176E1550186E8D
:100A000017C00EF018C00FF055EC07F0194A1A2A5B
:100A10001ABEEBD7F40E195C010E1A58D8A0E5D710
:100A200074EC08F0010E05EC08F07E0E126E1CEC62
:100A300008F0020E05EC08F0110E126E1CEC08F026
:100A400083A4FED774EC08F0010E05EC08F0010E4B
:100A5000126E1CEC08F0000E1C6E000E1B6E020ED7
:100A6000156E040E146EBA0EE82EFED7142EFCD7A7
:100A7000152EFAD700D01B4A1C2A1CBEF0D71C50DA
:100A800004E10A0E1B5CD8A0EAD774EC08F012004F
:100A90002F50D96EDA6A3C0ED926DF50316E2F50B6
:100AA0003124D96EDA6A010EDF6E2BC024F02CC01F
:100AB00025F02DC026F02EC027F049EC06F074EC8E
:100AC00008F08B0E126E1CEC08F0685069CF31F004
:100AD000326A31C032F0316A3110336E3250346EC6
:100AE00033C00EF034C00FF055EC07F0356E3050C7
:100AF000D96EDA6ADE04D8A402D0020E12003504E0
:100B0000D8A4E3D72F50D96EDA6A3C0ED926DF2A53
:100B1000010E1200000E196E17AE06D0166C171ECD
:100B2000D8B0172A010E196E15AE06D0146C151E1A
:100B3000D8B0152A010E191A000E1B6E000E1A6E7F
:100B400016501710D8B41CD0010E186E04D0D890CF
:100B500016361736182A17AEFAD7D8901A361B361B
:100B60001650145C17501558D8A005D01650145EB6
:100B70001750155A1A80D89017321632182EEDD702
:100B80001950D8B404D01A6C1B1ED8B01B2A1AC036
:100B900014F01BC015F012002BC024F02CC025F05F
:100BA0002DC026F02EC027F02DEC07F02FC013F03B
:100BB00099EC07F02FC013F0CBEC01F02F50D96E59
:100BC000DA6ADF50D8A424D026D074EC08F0210EC5
:100BD000126E1CEC08F0000E336E000E326E020E28
:100BE000316E040E306EBA0EE82EFED7302EFCD7D2
:100BF000312EFAD700D0324A332A33BEF0D73350E1
:100C000004E10A0E325CD8A0EAD774EC08F0FF00C9
:100C100083A4FED7DAD7000E12000F6E0FC00EF0BD
:100C2000010E0E168B500E18FE0B0E188B6E0FC099
:100C30000EF0D8900E32010E0E160E460E460E46DF
:100C40008B500E18F70B0E188B6E0FC00EF0D8904D
:100C50000E32D8900E32010E0E168C500E18FE0B6E
:100C60000E188C6E0FC00EF0D8900E32D8900E3247
:100C7000D8900E32010E0E160E468C500E18FD0B3B
:100C80000E188C6E8BEC08F0030EE82EFED700F0E9
:100C900012002450D96EDA6A010ED926000EDF6EDA
:100CA0002550D96EDA6A010ED926010EDF6E000ECC
:100CB0002A6E000E296E1BD02450D96EDA6A29C024
:100CC000DFFF2550D96EDA6A29C0DFFF24C01CF08F
:100CD0005FEC02F025C01CF05FEC02F0030E286E02
:100CE000980EE82EFED7282EFCD7294A2A2A26500D
:100CF000295C2A50800A286E2750800A2858D8B0CC
:100D00001200DAD72450D96EDA6A010ED926010E04
:100D1000DF6E2550D96EDA6A010ED926000EDF6E1D
:100D2000000E2A6E000E296E1BD02450D96EDA6A8E
:100D300029C0DFFF2550D96EDA6A29C0DFFF24C041
:100D40001CF05FEC02F025C01CF05FEC02F0030E1B
:100D5000286E980EE82EFED7282EFCD7294A2A2A7C
:100D60002650295C2A50800A286E2750800A28586D
:100D7000D8B01200DAD72450D96EDA6A010ED9261B
:100D8000000EDF6E2550D96EDA6A010ED926000EEC
:100D9000DF6E000E2A6E000E296E1BD02450D96E15
:100DA000DA6A29C0DFFF2550D96EDA6A29C0DFFF71
:100DB00024C01CF05FEC02F025C01CF05FEC02F0D8
:100DC000030E286E980EE82EFED7282EFCD7294A4F
:100DD0002A2A2650295C2A50800A286E2750800A29
:100DE0002858D8B01200DAD72450D96EDA6A010E2A
:100DF000D926010EDF6E2550D96EDA6A010ED9268A
:100E0000010EDF6E000E2A6E000E296E1BD02450DC
:100E1000D96EDA6A29C0DFFF2550D96EDA6A29C097
:100E2000DFFF24C01CF05FEC02F025C01CF05FEC7B
:100E300002F0030E286E980EE82EFED7282EFCD75F
:100E4000294A2A2A2650295C2A50800A286E2750CF
:100E5000800A2858D8B01200DAD726C029F027C057
:100E60002AF02ABE12002A5003E12904D8A0120059
:100E70002450D96EDA6A29C0DFFF2550D96EDA6AAC
:100E800029C0DFFF24C01CF05FEC02F025C01CF07D
:100E90005FEC02F0030E286E980EE82EFED7282E87
:100EA000FCD72906D8A02A06DCD738500E5C106E75
:100EB00039500F58116ED89011321032D89011322B
:100EC000103238501024386E39501120396E385095
:100ED0000E5C126E39500F58136E135004E1640EFD
:100EE000125CD8A002D0010E1200000E1200030EF8
:100EF0000218D8A402D0010E1200020E0218D8A4C3
:100F000010D0000E3A6E000E036E01500324D96E0D
:100F1000DA6A000EDF6E032A0B0E0364F6D7000EAA
:100F2000120001503A24D96EDA6A02C0DFFF3A2A71
:100F3000F6D774EC08F0010E05EC08F0000E156E03
:100F4000000E146E010E106E13501424D96EDA6A5E
:100F5000DF50EDEC07F0144A152A15BEF3D71550F3
:100F600005E10A0E145CD8B01200ECD71200720E24
:100F7000D36ED3A4FED7F28EF28CD08ECCEC03F0DD
:100F80005AEC08F081EC08F0000E0F6EC70E0E6EE2
:100F900067EC08F0939093949584C70ED56EF28A0F
:100FA000F1941200D9CF04F0DACF05F09EAA0ED04A
:100FB0003B04D8B403D03B50D8A408D03C0E016EFB
:100FC000AECF02F077EC07F0486E01D0AE5005C00E
:100FD000DAFF04C0D9FF49921100116E10B002D09F
:100FE000899E01D0898E11380F0B0F0B0DEC06F086
:100FF000060EE82EFED700D011500F0B0DEC06F0B8
:10100000210EE82EFED700F01200126E1204D8A4B2
:1010100005D0000E106E800EEDEC07F0020E1218D7
:10102000D8A405D0000E106EC00EEDEC07F0210E16
:10103000E82EFED700F012000DD0010E106E12C087
:10104000F6FF0800F550EDEC07F0122A210EE82E0D
:10105000FED700F012C0F6FF0800F5500009D8B422
:101060001200EBD700EE60F03D0EEE6AE806FDE1FF
:1010700000EE38F0110EEE6AE806FDE14990499263
:10108000000EF86E030EF76E000130EF04F00E5004
:101090001002F3CF12F0F4CF13F00E501102F35000
:1010A00013260F501002F350132612C00EF013C077
:1010B0000FF01200948ECB0EAF6E000EB06EAA86AB
:1010C000AC84AB88AB8EAC8A9D8A9F8A1200000EDE
:1010D0007F6E800E7E6E6F0E6F6E000E6E6E0EC097
:1010E0007BFF0FC07AFF1200000E106E010EEDECB8
:1010F00007F00D0E126EFC0EE82EFED7122EFCD756
:101100001200010EB76E9284000EB86E000EB96E1A
:10111000470E636E1200898C030EE82EFED700F096
:04112000899C120094
:020000040020DA
:08000000FFFFFFFFFFFFFFFF00
:020000040030CA
:0E000000FFC80F3F3C1D81FF0FC00FE00F40F7
:00000001FF
