:020000040000FA
:0400000036EF00F0E7
:06000800498218EF08F028
:100018004980D8CF08F0E8CF09F0E0CF0AF0F2A481
:100028000DD04304D8B403D04350D8A407D0010E50
:100038004426000E4522462247220BD0F2A409D0BE
:10004800020E4318D8A405D04406000E455A465A55
:10005800475AF2940AC0E0FF09C0E8FF08C0D8FF79
:080068004990100061EF08F05F
:10030000005354415254494E4720534541524348AB
:1003100000544F20535441525420534541524348B6
:1003200000524553455454494E4720524F424F5472
:1003300000434845434B53554D204641494C4544A5
:1003400000434845434B53554D205041535345447A
:10035000004D4F56494E4720544F20424F4D4200CA
:10036000424F4D42204E4F5420464F554E4400526E
:10037000455455524E494E4720484F4D4500437213
:1003800069746963616C204572726F7200505245E6
:10039000535320425554544F4E0053454152434805
:1003A000494E470025750000000E286E000E276E8E
:1003B00027501124D96E28501220DA6E2F0EDF64D8
:1003C00018D027501124D96E28501220DA6E3A0E18
:1003D000DF600FD0150E2724D96E000E2820DA6EAC
:1003E00027501124E16E28501220E26EE750D00F02
:1003F00020D027501124D96E28501220DA6E400EDA
:10040000DF6418D027501124D96E28501220DA6EDC
:10041000470EDF600FD0150E2724D96E000E28205E
:10042000DA6E27501124E16E28501220E26EE75058
:10043000C90FDF6E274A282A28BEBAD7285004E100
:100440000C0E275CD8A0B4D71550D8A402D0010E4A
:1004500001D0000E1610216E1750D8A402D0010E44
:1004600001D0000E1810226E1950D8A402D0010E2F
:1004700001D0000E1A10236E1B50D8A402D0010E1A
:1004800001D0000E1C10246E1D50D8A402D0010E05
:1004900001D0000E1E10256E1F50D8A402D0010EF0
:1004A00001D0000E2010266E215022182318241887
:1004B000136E146A26502518D8A402D0010E01D05C
:1004C000000E131A000E141A13501410D8B40AD0C8
:1004D000020E4AEC08F0410E0F6E030E106E38EC5F
:1004E00007F01200020E4AEC08F0310E0F6E030EF8
:1004F000106E38EC07F012002BC022F02CC023F055
:100500002DC024F02EC025F02FC026F030C027F0DB
:10051000CBEC05F0A1EC08F09A0E0F6E030E106EF6
:1005200038EC07F0685069CF33F0346A33C034F0E8
:10053000336A33103C6E34503D6E685069CF33F0EF
:10054000346A33C034F0336A3310376E3450386E47
:1005500037C00BF038C00CF03C0E0D6E000E0E6E66
:1005600047EC05F0396E3904D8A40AD031C0D9FF60
:1005700032C0DAFFDE6ADE6ADE6ADD6A010E120070
:1005800031C0D9FF32C0DAFF030EDB5009E1020EA1
:10059000DB5006E1620EDE5C020EDE58D8A0CDD73D
:1005A00031C0D9FF32C0DAFFDE6ADE6ADE6ADD6A98
:1005B000A1EC08F0600E0F6E030E106E38EC07F021
:1005C000020E4AEC08F0210E0F6E030E106E38EC8E
:1005D00007F02BC022F02CC023F02DC024F02EC039
:1005E00025F02FC026F030C027F067EC07F0000E92
:1005F0003B6E000E3A6E020E346E040E336EBA0E6F
:10060000E82EFED7332EFCD7342EFAD700D03A4A44
:100610003B2A3BBEF0D73B5004E1140E3A5CD8A015
:10062000EAD7FF008AD719C0D9FF1AC0DAFFDF5016
:100630001B6E1B500B6E0C6A20EE07F01950D9266A
:100640001A50DA22DECF0DF0DDCF0EF074EC08F098
:100650000BC011F00CC012F0000E146E640E136E7D
:1006600089EC05F011C020F012C021F020EE01F05D
:100670001950D9261A50DA22DF50D8B424D020EEEF
:1006800006F01950D9261A50DA22DF501B6E010EDF
:100690001C6E1B2A02D0D8901C361B2EFCD71C5077
:1006A0008A108A6E20EE07F01950D9261A50DA22E5
:1006B000DECF1BF0DDCF1CF020501B5C206E2150E4
:1006C0001C58216E14D020EE06F01950D9261A506D
:1006D000DA22DF501B6E010E1C6E1B2A02D0D8904E
:1006E0001C361B2EFCD71C50FF0A8A148A6E20EE83
:1006F00002F01950D9261A50DA22DECF1BF0DDCFD6
:100700001CF01BC0D9FF1CC0DAFF2044E846FC0BDC
:10071000DF6E20EE04F01950D9261A50DA22DECF0F
:100720001BF0DDCF1CF01BC0D9FF1CC0DAFF20C0BE
:100730001DF021C01EF0060E1F6E1E341E321D322B
:100740001F2EFBD71D50DF6E1200FDEC07F0960E3A
:10075000226E000E236E9F0E246E000E256E22EC7C
:1007600004F0000E0001936F410E926F000E956F22
:100770005F0E946F8EEC06F04350D8A413D0960E03
:100780002B6E000E2C6E9F0E2D6E000E2E6E92C0E4
:100790002FF093C030F0440E316E000E326E7CECC0
:1007A00002F047D04304D8A417D0960E2B6E000E4B
:1007B0002C6E9F0E2D6E000E2E6E94C02FF095C0E5
:1007C00030F0440E316E000E326E480E336E000E65
:1007D000346E08EC07F02DD0020E4318D8A413D0C5
:1007E000960E2B6E000E2C6E9F0E2D6E000E2E6E32
:1007F00094C02FF095C030F0440E316E000E326E72
:10080000BBEC07F016D0030E4318D8A414D0960EF4
:100810002B6E000E2C6E9F0E2D6E000E2E6E94C051
:100820002FF095C030F0860E316E000E326EFBEC6C
:1008300004F0436EA1D77E0E0F6E030E106E38ECDF
:1008400007F09AD722C0D9FF23C0DAFF000EDF6E6F
:1008500020EE01F02250D9262350DA22010EDF6E5D
:1008600020EE02F02250D9262350DA22790EDE6ED5
:100870000F0EDD6E20EE04F02250D9262350DA222E
:10088000780EDE6E0F0EDD6E20EE06F02250D926B9
:100890002350DA22000EDF6E20EE07F02250D92618
:1008A0002350DA22C70EDE6E000EDD6E24C0D9FFA3
:1008B00025C0DAFF000EDF6E20EE01F02450D926AD
:1008C0002550DA22010EDF6E20EE02F02450D926E8
:1008D0002550DA22770EDE6E0F0EDD6E20EE04F06C
:1008E0002450D9262550DA22760EDE6E0F0EDD6EEC
:1008F00020EE06F02450D9262550DA22020EDF6EB3
:1009000020EE07F02450D9262550DA22C70EDE6EDD
:10091000000EDD6E22C019F023C01AF013EC03F0B4
:1009200024C019F025C01AF013EC03F012009490C3
:10093000929E949695909592929C8C908C928B9688
:100940008B90899C899E270E0F6EF50EE82EFED7A0
:100950000F2EFCD700F0030ECCEC06F00D0E0F6E40
:10096000FC0EE82EFED70F2EFCD7030ECCEC06F0C3
:10097000850EE82EFED700F0030ECCEC06F0210E1B
:10098000E82EFED700F0020ECCEC06F0210EE82E89
:10099000FED700F0000E0D6E280E32EC08F0210E8E
:1009A000E82EFED700F0000E0D6E080E32EC08F0B7
:1009B000210EE82EFED700F0000E0D6E010E32EC77
:1009C00008F00D0E0F6EFC0EE82EFED70F2EFCD792
:1009D000000E0D6E060E32EC08F0210EE82EFED74A
:1009E00000F0000E0D6E0C0E32EC08F0210EE82E19
:1009F000FED700F012002BC022F02CC023F02DC037
:100A000024F02EC025F02FC026F030C027F067EC70
:100A100007F031C010F032C011F0DDEC07F031C04A
:100A200011F032C012F0D4EC01F031C0D9FF32C065
:100A3000DAFFDF50D8A426D028D0A1EC08F0210E90
:100A40000F6E030E106E38EC07F0000E366E000EBF
:100A5000356E020E346E040E336EBA0EE82EFED7DB
:100A6000332EFCD7342EFAD700D0354A362A36BE7C
:100A7000F0D7365004E10A0E355CD8A0EAD7A1ECD5
:100A800008F0FF0083A4FED7D8D7000E12000DC0D7
:100A9000D9FF0EC0DAFFDECF0FF0DDCF10F00DC0B2
:100AA000D9FF0EC0DAFFDECF11F0DDCF12F00BC0A0
:100AB00013F00CC014F01150135E1250145AD89059
:100AC00014321332D890143213320F5013261050B0
:100AD00014220DC0D9FF0EC0DAFF13C0DEFF14C010
:100AE000DDFF0DC0D9FF0EC0DAFFDECF0FF0DDCF86
:100AF00010F00F500B5C156E10500C58166E1650FF
:100B000004E1640E155CD8A002D0010E1200000EA4
:100B10001200000E166E14AE06D0136C141ED8B060
:100B2000142A010E166E12AE06D0116C121ED8B029
:100B3000122A010E161A000E186E000E176E1350B0
:100B40001410D8B41CD0010E156E04D0D8901336F2
:100B50001436152A14AEFAD7D89017361836135013
:100B6000115C14501258D8A005D01350115E1450C7
:100B7000125A1780D89014321332152EEDD7165012
:100B8000D8B404D0176C181ED8B0182A17C011F0AA
:100B900018C012F0120020EE01F02250D926235086
:100BA000DA22000EDF6E20EE01F02450D926255007
:100BB000DA22010EDF6E000E2A6E000E296E21D0A1
:100BC00022C0D9FF23C0DAFF29C0DFFF24C0D9FF2C
:100BD00025C0DAFF29C0DFFF22C019F023C01AF0B8
:100BE00013EC03F024C019F025C01AF013EC03F045
:100BF000030E286E980EE82EFED7282EFCD7294A21
:100C00002A2A2650295C2A50800A286E2750800AFA
:100C10002858D8B01200D4D720EE01F02250D9269F
:100C20002350DA22000EDF6E20EE01F02450D92688
:100C30002550DA22000EDF6E000E2A6E000E296E9D
:100C400021D022C0D9FF23C0DAFF29C0DFFF24C092
:100C5000D9FF25C0DAFF29C0DFFF22C019F023C069
:100C60001AF013EC03F024C019F025C01AF013ECAD
:100C700003F0030E286E980EE82EFED7282EFCD720
:100C8000294A2A2A2650295C2A50800A286E275091
:100C9000800A2858D8B01200D4D720EE01F0225094
:100CA000D9262350DA22010EDF6E20EE01F0245007
:100CB000D9262550DA22010EDF6E000E2A6E000EB4
:100CC000296E21D022C0D9FF23C0DAFF29C0DFFF5F
:100CD00024C0D9FF25C0DAFF29C0DFFF22C019F0E8
:100CE00023C01AF013EC03F024C019F025C01AF049
:100CF00013EC03F0030E286E980EE82EFED7282E74
:100D0000FCD7294A2A2A2650295C2A50800A286EB4
:100D10002750800A2858D8B01200D4D7A1EC08F088
:100D2000010E4AEC08F08D0E0F6E030E106E38ECBB
:100D300007F0020E4AEC08F0110E0F6E030E106E53
:100D400038EC07F083A4FED7A1EC08F0010E4AECC2
:100D500008F0010E0F6E030E106E38EC07F0000E57
:100D6000146E000E136E020E126E040E116EBA0E89
:100D7000E82EFED7112EFCD7122EFAD700D0134A38
:100D8000142A14BEF0D7145004E10A0E135CD8A044
:100D9000EAD7A1EC08F012000C6E0CC00BF0010EAB
:100DA0000B168B500B18FE0B0B188B6E0CC00BF038
:100DB000D8900B32010E0B160B460B460B468B5090
:100DC0000B18F70B0B188B6E0CC00BF0D8900B3276
:100DD000D8900B32010E0B168C500B18FE0B0B1813
:100DE0008C6E0CC00BF0D8900B32D8900B32D89090
:100DF0000B32010E0B160B468C500B18FD0B0B180B
:100E00008C6EBAEC08F0030EE82EFED700F012004C
:100E10002BC022F02CC023F02DC024F02EC025F0D2
:100E20002FC026F030C027F04DEC06F0A1EC08F002
:100E3000510E0F6E030E106E38EC07F033C0D9FF61
:100E400034C0DAFFDE04D8A402D0020E120031C092
:100E5000D9FF32C0DAFF030EDB50F7E1020EDB50A0
:100E6000F4E1310EDE5C010EDE58D8B0EED7E6D7E5
:100E70001AD0010E0D6E0FC0F6FF10C0F7FFF86A12
:100E8000020EF76403D00800F55005D0F6CFE9FF55
:100E9000F7CFEAFFEF5032EC08F00F4A102A210E8C
:100EA000E82EFED700F00FC0F6FF10C0F7FFF86A7B
:100EB000020EF76403D00800F55005D0F6CFE9FF25
:100EC000F7CFEAFFEF500009D8B41200D2D726C0FE
:100ED00029F027C02AF02ABE12002A5003E1290473
:100EE000D8A0120022C0D9FF23C0DAFF29C0DFFF3B
:100EF00024C0D9FF25C0DAFF29C0DFFF22C019F0C6
:100F000023C01AF013EC03F024C019F025C01AF026
:100F100013EC03F0030E286E980EE82EFED7282E51
:100F2000FCD72906D8A02A06D6D7030E0318D8A4C2
:100F300002D0010E1200020E0318D8A412D0000E27
:100F4000426E000E046E04500124D96E000E022081
:100F5000DA6E000EDF6E042A0B0E0464F4D7000E66
:100F6000120042500124D96E000E0220DA6E03C036
:100F7000DFFF422AF4D72BC022F02CC023F02DC073
:100F800024F02EC025F02FC026F030C027F00CEC46
:100F900006F0A1EC08F06F0E0F6E030E106E38EC29
:100FA00007F031C0D9FF32C0DAFFDE50DE10DE10AC
:100FB000DE10D8A4F6D7030E1200A1EC08F0010E43
:100FC0004AEC08F0000E136E000E126E010E0D6E4C
:100FD00012501024D96E13501120DA6EDF5032EC0B
:100FE00008F0124A132A13BEF1D7135005E10A0E76
:100FF000125CD8B01200EAD71200720ED36ED3A4DE
:10100000FED7F28EF28CD08E97EC04F087EC08F0CD
:10101000AEEC08F0000E0C6EC70E0B6E94EC08F0F0
:10102000939093949584C70ED56EF28AF194120032
:10103000D9CF05F0DACF06F09EAA0DD04304D8A48C
:101040000AD0860E016E000E026EAECF03F095EC54
:1010500007F0486E01D0AE5006C0DAFF05C0D9FFD8
:10106000499211000E6E0DB002D0899E01D0898E7A
:101070000E380F0B0F0BCCEC06F0060EE82EFED749
:1010800000D00E500F0BCCEC06F0210EE82EFED750
:1010900000F012000F6E0F04D8A405D0000E0D6EE4
:1010A000800E32EC08F0020E0F18D8A405D0000E06
:1010B0000D6EC00E32EC08F0210EE82EFED700F0C7
:1010C000120000EE60F0320EEE6AE806FDE100EE7E
:1010D0003EF00B0EEE6AE806FDE149904992000EE3
:1010E000F86E0001A5EF03F00B500D02F3CF0FF0E7
:1010F000F4CF10F00B500E02F35010260C500D02DE
:10110000F35010260FC00BF010C00CF01200948E9C
:10111000CB0EAF6E000EB06EAA86AC84AB88AB8EE1
:10112000AC8A9D8A9F8A1200000E7F6E800E7E6EB2
:101130006F0E6F6E000E6E6E0BC07BFF0C507A6EE2
:101140001200000E0D6E010E32EC08F00D0E0F6E47
:10115000FC0EE82EFED70F2EFCD71200010EB76E44
:101160009284000EB86E000EB96E470E636E695021
:1011700068501200898C030EE82EFED700F0899C7F
:0211800012005B
:020000040020DA
:08000000FFFFFFFFFFFFFFFF00
:020000040030CA
:0E000000FFC80F3F3C1D81FF0FC00FE00F40F7
:00000001FF
