:020000040000FA
:0400000013EF00F00A
:06000800398225EF06F02D
:100018003980E0CF60F060C0E0FF3990100030EF29
:0200280008F0DE
:1003000000434845434B53554D204641494C4544D5
:1003100000434845434B53554D20504153534544AA
:1003200000524553455454494E4720524F424F5472
:10033000007261772064757479206379636C65005D
:100340002575207300000001F1AFF293F1BF05D0D5
:10035000F15108E1F005D8B005D0000E8F6F010E05
:100360008E6F04D0F0C08EF0F1C08FF0EEC090F030
:10037000EFC091F07EC092F07FC093F080C094F007
:1003800081C095F082C096F083C097F084C098F049
:1003900085C099F0000E9B6F1F0E9A6F000E010131
:1003A0001F6F77D09A07D8A09B07000E9A25D96EA9
:1003B000010E9B21DA6E92C061F093C062F094C08E
:1003C00063F095C064F096C065F097C066F098C081
:1003D00067F099C068F00A0E696F000E6A6F000E30
:1003E0006B6F000E6C6F000E6D6F000E6E6F000E67
:1003F0006F6F000E706F2DEC05F061C086F062C06B
:1004000087F063C088F064C089F065C08AF066C078
:100410008BF067C08CF068C08DF000018651300F02
:10042000DF6E8E07D8A08F079007D8A0910792C0E3
:1004300061F093C062F094C063F095C064F096C020
:1004400065F097C066F098C067F099C068F00A0E32
:10045000696F000E6A6F000E6B6F000E6C6F000EFE
:100460006D6F000E6E6F000E6F6F000E706FC5EC3B
:1004700004F061C092F062C093F063C094F064C075
:1004800095F065C096F066C097F067C098F068C0B8
:1004900099F000019A519B11D8B41AD0925193113E
:1004A000941195119611971198119911D8A47AD792
:1004B0008FBF05D08F5102E18E05D8B073D791BFA1
:1004C00007D0915103E19005D8A002D0F2B36AD7CA
:1004D0007CC071F07DC072F0000E9A25736F010E22
:1004E0009B21746F90C075F091C076F0D6EC05F04A
:1004F00071C07CF072C07DF012009EC0D9FF9FC019
:10050000DAFFDECFF6FFDDCFF7FF0800F550250A52
:10051000D8A48FD09EC0D9FF9FC0DAFFDE2A000E7C
:10052000DD22000E0001EF6F000EEE6FEEC0F2F064
:10053000EFC0F3F0F069F1699EC0D9FF9FC0DAFF08
:10054000DECFF6FFDDCFF7FF0800F550750AD8A41F
:1005500040D09EC0D9FF9FC0DAFFDE2A000EDD2208
:10056000A0C0D9FFA1C0DAFFDFCFA2F0020EDE26C5
:10057000DFCFA3F0000EDD22A2C0D9FFA3C0DAFFB7
:10058000DECFA4F0DDCFA5F0A4C0A6F0A5C0A7F0F3
:10059000A86BA96BAA6BAB6BAC6BAD6B9CC07CF012
:1005A0009DC07DF0A6C07EF0A7C07FF0A8C080F0FF
:1005B000A9C081F0AAC082F0ABC083F0ACC084F0C7
:1005C000ADC085F0A3EC01F07CC09CF07DC09DF037
:1005D00012009EC0D9FF9FC0DAFFDECFF6FFDDCF4D
:1005E000F7FF0800F550250AD8A417D09EC0D9FF00
:1005F0009FC0DAFFDE2A000EDD22000E626F250E9C
:10060000616F9CC063F09DC064F085EC05F0000E46
:1006100000019D6F010E9C6F12009EC0D9FF9FC00C
:10062000DAFFDE2A000EDD22000E9D6F000E9C6FA9
:1006300012009EC0D9FF9FC0DAFFDECFF6FFDDCFEC
:10064000F7FF0800F5500001616F626B9CC063F01A
:100650009DC064F085EC05F09EC0D9FF9FC0DAFF15
:10066000DE2A000EDD22D3D7000E1E6E000E1D6E98
:100670001D500724D96E1E500820DA6E2F0EDF643D
:1006800018D01D500724D96E1E500820DA6E3A0E7D
:10069000DF600FD00B0E1D24D96E000E1E20DA6E07
:1006A0001D500724E16E1E500820E26EE750D00F67
:1006B00020D01D500724D96E1E500820DA6E400E3F
:1006C000DF6418D01D500724D96E1E500820DA6E42
:1006D000470EDF600FD00B0E1D24D96E000E1E20BA
:1006E000DA6E1D500724E16E1E500820E26EE750BE
:1006F000C90FDF6E1D4A1E2A1EBEBAD71E5004E166
:100700000C0E1D5CD8A0B4D70B50D8A402D0010E9B
:1007100001D0000E0C10176E0D50D8A402D0010E9F
:1007200001D0000E0E10186E0F50D8A402D0010E8A
:1007300001D0000E1010196E1150D8A402D0010E75
:1007400001D0000E12101A6E1350D8A402D0010E60
:1007500001D0000E14101B6E1550D8A402D0010E4B
:1007600001D0000E16101C6E1750181819181A1800
:10077000096E0A6A1C501B18D8A402D0010E01D0C1
:10078000000E091A000E0A1A09500A10D8B40AD02D
:10079000020E78EC08F0110E056E030E066E59EC91
:1007A00007F01200020E78EC08F0010E056E030E41
:1007B000066E59EC07F012009FEC08F03ED068502E
:1007C00069CFC6F00001C76BC6C0C7F0C66BC611C3
:1007D000E86FC751E96F8FEC08F0010E16EC08F0D6
:1007E000310E0001656F030E666F28EC07F0020EF4
:1007F00016EC08F0C80E0001B66F000EB76F400E81
:10080000B86F030EB96FE8C0BAF0E9C0BBF0B3EC43
:1008100007F0C80E0001656F000E666F28EC07F048
:10082000020E0001C76F040EC66FBA0EE82EFED787
:10083000C62FFCD7C72FFAD700F02C50D8A403D06E
:10084000BED7020E2C6E2C04D8A42DD0FAD78FEC74
:1008500008F0210E0001656F030E666F28EC07F0AB
:10086000000E0001EB6F000EEA6F020E0001C76F71
:10087000040EC66FBA0EE82EFED7C62FFCD7C72FC0
:10088000FAD700F00001EA4BEB2BEBBFEED7EB51B0
:1008900004E10A0EEA5DD8A0E8D78FEC08F0000E5C
:1008A0002C6E83B4D4D7020E2C18D8A4C6D7F9D78F
:1008B0009490929E949695909592929C8C908C9206
:1008C0008B968B90899C899E270E0001656FF50E93
:1008D000E82EFED7652FFCD7030EAEEC06F00D0E0A
:1008E0000001656FFB0EE82EFED7652FFCD700D008
:1008F000030EAEEC06F0850EE82EFED700F0030ED8
:10090000AEEC06F0210EE82EFED700F0020EAEECA3
:1009100006F0210EE82EFED700F0000E0001636FF6
:10092000280EFAEC07F0210EE82EFED700F0000E9C
:100930000001636F080EFAEC07F0210EE82EFED7D7
:1009400000F0000E0001636F010EFAEC07F00D0ECF
:100950000001656FFB0EE82EFED7652FFCD700D097
:10096000000E0001636F060EFAEC07F0210EE82E70
:10097000FED700F0000E0001636F0C0EFAEC07F0DA
:10098000210EE82EFED700F0120020EE71F0070EC7
:10099000DE6AE806FDE2000169516A116B116C1113
:1009A0006D116E116F117011D8B446D0010E796FB0
:1009B0000AD0D89069376A376B376C376D376E3726
:1009C0006F377037792B70AFF4D7D8907137723793
:1009D0007337743775377637773778376951615D94
:1009E0006A5162596B5163596C5164596D51655923
:1009F0006E5166596F51675970516859D8A011D01E
:100A00006951615F6A51625B6B51635B6C51645BFE
:100A10006D51655B6E51665B6F51675B7051685BD2
:100A20007181D89070336F336E336D336C336B33A9
:100A30006A336933792FC9D771C061F072C062F02F
:100A400073C063F074C064F075C065F076C066F082
:100A500077C067F078C068F01200000169516A1130
:100A60006B116C116D116E116F117011D8B43CD0F7
:100A7000010E716F0AD0D89069376A376B376C37BF
:100A80006D376E376F377037712B70AFF4D7695190
:100A9000615D6A5162596B5163596C5164596D5172
:100AA00065596E5166596F51675970516859D8A090
:100AB00010D06951615F6A51625B6B51635B6C512D
:100AC000645B6D51655B6E51665B6F51675B705126
:100AD000685BD89070336F336E336D336C336B3328
:100AE0006A336933712FD3D761C061F062C062F09D
:100AF00063C063F064C064F065C065F066C066F012
:100B000067C067F068C068F01200000163516411AB
:100B1000D8B404D063516411D8A404D06151E4EC7A
:100B200008F0120020EE04F06351D9266451DA2255
:100B3000DE50DE10D8B416D020EE04F06351D92672
:100B40006451DA2210EE02F06351E1266451E22290
:100B5000DE50E65CE650800A696FDE50800A695913
:100B6000D8B0120020EE02F06351D9266451DA2287
:100B7000DECF65F0DDCF66F063C0D9FF64C0DAFF79
:100B8000DECF67F0DDCF68F065516725D96E66511D
:100B90006821DA6E61C0DFFF20EE02F06351D926D2
:100BA0006451DA22DE2A000EDD2212000001F2A1D9
:100BB0000AD073C06AF074C06BF071C06CF072C080
:100BC0006DF0DCEC07F0000176BF05D075C07AF05F
:100BD00076C07BF004D0000E7B6F000E7A6F000EA3
:100BE000796F000E786F0DD0000E626F200E616F6E
:100BF00071C063F072C064F085EC05F00001784BC1
:100C0000792B7A51785D7951800A776F7B51800A10
:100C10007759D8A0E9D7F2B10AD073C06AF074C08E
:100C20006BF071C06CF072C06DF0DCEC07F073C05B
:100C300061F074C062F061EC08F000017A51612546
:100C4000716F7B516221726F1200E9CF1FF0EACF02
:100C500020F0E1CF21F0E2CF22F0D9CF23F0DACF9C
:100C600024F0F6CF25F0F7CF26F0F8CF27F0F5CF18
:100C700028F09EAA18D02C50D8A415D02D0E066EA0
:100C8000000E076EAECF08F06AEC06F02A6E2A045A
:100C9000D8A40AD02D0E076E000E086E34EC03F0B7
:100CA000010E2C6E01D0AE5028C0F5FF27C0F8FF12
:100CB00026C0F7FF25C0F6FF24C0DAFF23C0D9FF06
:100CC00022C0E2FF21C0E1FF20C0EAFF1FC0E9FF10
:100CD00039921100030E0818D8A420D0C9EC08F0EE
:100CE000010E78EC08F0000E0A6E000E096E010E7F
:100CF000036E09500624D96E0A500720DA6EDF50C1
:100D000049EC08F0094A0A2A0ABEF1D70A5004E160
:100D10000A0E095CD8A0EBD7010E1200020E0818CB
:100D2000D8A412D0000E2B6E000E0B6E0B500624B2
:100D3000D96E000E0720DA6E000EDF6E0B2A0B0E46
:100D40000B64F4D7000E12002B500624D96E000E4F
:100D50000720DA6E08C0DFFF2B2AF4D70001626F8C
:100D600062C061F0010E000161178B506119FE0B2A
:100D700061198B6E62C061F0D8906133010E61170A
:100D80006147614761478B506119F70B61198B6EA1
:100D900062C061F0D8906133D8906133010E611761
:100DA0008C506119FE0B61198C6E62C061F0D89095
:100DB0006133D8906133D8906133010E6117614778
:100DC0008C506119FD0B61198C6ED6EC08F0030E86
:100DD000E82EFED700F01200026E02C001F0010EF4
:100DE00001168B500118FE0B01188B6E02C001F02A
:100DF000D8900132010E01160146014601468B5082
:100E00000118F70B01188B6E02C001F0D890013267
:100E1000D8900132010E01168C500118FE0B0118FA
:100E20008C6E02C001F0D8900132D8900132D89077
:100E30000132010E011601468C500118FD0B0118FC
:100E40008C6EDDEC08F0030EE82EFED700F01200E9
:100E50001CD0010E0001636F65C0F6FF66C0F7FF8E
:100E6000F86A020EF76403D00800F55005D0F6CFFB
:100E7000E9FFF7CFEAFFEF50FAEC07F00001654B0E
:100E8000662B210EE82EFED700F065C0F6FF66C087
:100E9000F7FFF86A020EF76403D00800F55005D09A
:100EA000F6CFE9FFF7CFEAFFEF500009D8B4120000
:100EB000D0D71AD0010E036E05C0F6FF06C0F7FFAB
:100EC000F86A020EF76403D00800F55005D0F6CF9B
:100ED000E9FFF7CFEAFFEF5049EC08F0054A062A90
:100EE000210EE82EFED700F005C0F6FF06C0F7FF82
:100EF000F86A020EF76403D00800F55005D0F6CF6B
:100F0000E9FFF7CFEAFFEF500009D8B41200D2D7BB
:100F1000B0C0B4F0B1C0B5F0000E0001ED6F000E2E
:100F2000EC6F13D0AEC09CF0AFC09DF0B40E9E6FBE
:100F3000000E9F6FB2C0A0F0B3C0A1F07DEC02F034
:100F400000019C51EC279D51ED23B4C0F6FFB5C0C4
:100F5000F7FF0800F5500009D8A4E4D7ECC0AEF0C4
:100F6000EDC0AFF01200BA0E0001BE6F000EBF6FF1
:100F7000B6C0C0F0B7C0C1F0000EC36F000EC26FA4
:100F8000000EC56F000EC46FC00EAE6F000EAF6FC7
:100F9000B8C0B0F0B9C0B1F0BE0EB26F000EB36F02
:100FA00088EC07F00001C251B625D96EC351B721B4
:100FB000DA6E000EDF6E1200000E0001706F000E80
:100FC0006F6F0CD06EC061F0626B6CC063F06DC06F
:100FD00064F085EC05F000016F4B702B6F516A25B2
:100FE000D96E70516B21DA6EDF506E6F6E51D8B4CE
:100FF0001200E8D70001646F000163B102D0899E3E
:1010000001D0898E000164390F0B0F0BAEEC06F096
:10101000060EE82EFED700D0000164510F0BAEEC97
:1010200006F0210EE82EFED700F012000001656FD9
:1010300000016505D8A405D0000E636F800EFAECA0
:1010400007F0020E00016519D8A405D0000E636FE9
:10105000C00EFAEC07F0210EE82EFED700F01200C9
:1010600001EE00F0200EEE6AE806FDE100EEECF085
:10107000080EEE6AE806FDE100EE2BF00E0EEE6AB9
:10108000E806FDE139903992000EF86E0001DCEFC0
:1010900003F0046E03B002D0899E01D0898E04381B
:1010A0000F0B0F0BECEC06F0060EE82EFED700D06F
:1010B00004500F0BECEC06F0210EE82EFED700F0EA
:1010C000120061C063F062C064F003D00001614BA4
:1010D000622B61C0D9FF62C0DAFFDF50D8A4F6D717
:1010E00000016351615D616F64516259626F12006A
:1010F000056E0504D8A405D0000E036E800E49ECE1
:1011000008F0020E0518D8A405D0000E036EC00E1C
:1011100049EC08F0210EE82EFED700F01200000E78
:101120000001636F010EFAEC07F00D0E0001656F10
:10113000FB0EE82EFED7652FFCD700D01200720EF2
:10114000D36ED3A4FED7F28EF28CD08E58EC04F07E
:10115000BCEC08F0AEEC08F095841200190EB76EE6
:101160009284000EB86E000EB96E180E606E460EB8
:10117000636E695068501200948ECB0EAF6E000EF5
:10118000B06EAA86AC84AB88AB8EAC8A9D8A9F8AEF
:101190001200000E036E010E49EC08F00D0E056EF4
:1011A000FC0EE82EFED7052EFCD71200898C030E0C
:1011B000E82EFED700F0899C1200898C030EE82EE1
:0A11C000FED700F0899C1200120017
:020000040020DA
:08000000FFFFFFFFFFFFFFFF00
:020000040030CA
:0E000000FFC80F3F3C1D81FF0FC00FE00F40F7
:00000001FF
