:020000040000FA
:0400000013EF00F00A
:06000800398245EF03F010
:100018003980E0CF60F060C0E0FF39901000C0EF99
:0200280005F0E1
:1003000000434845434B53554D204641494C4544D5
:1003100000434845434B53554D20504153534544AA
:1003200000524553455454494E4720524F424F5472
:10033000007261772064757479206379636C65005D
:0103400000BC
:10034200000E1E6E000E1D6E1D500724D96E1E502B
:100352000820DA6E2F0EDF6418D01D500724D96EE4
:100362001E500820DA6E3A0EDF600FD00B0E1D24ED
:10037200D96E000E1E20DA6E1D500724E16E1E504B
:100382000820E26EE750D00F20D01D500724D96E0E
:100392001E500820DA6E400EDF6418D01D5007246C
:1003A200D96E1E500820DA6E470EDF600FD00B0E9A
:1003B2001D24D96E000E1E20DA6E1D500724E16E38
:1003C2001E500820E26EE750C90FDF6E1D4A1E2A3A
:1003D2001EBEBAD71E5004E10C0E1D5CD8A0B4D7C5
:1003E2000B50D8A402D0010E01D0000E0C10176ED3
:1003F2000D50D8A402D0010E01D0000E0E10186EBE
:100402000F50D8A402D0010E01D0000E1010196EA8
:100412001150D8A402D0010E01D0000E12101A6E93
:100422001350D8A402D0010E01D0000E14101B6E7E
:100432001550D8A402D0010E01D0000E16101C6E69
:100442001750181819181A18096E0A6A1C501B1826
:10045200D8A402D0010E01D0000E091A000E0A1A09
:1004620009500A10D8B40AD0020E76EC05F0110E2B
:10047200056E030E066EF9EC04F01200020E76EC25
:1004820005F0010E056E030E066EF9EC04F0120083
:10049200B1EC05F051D0685069CF74F00001756B72
:1004A20074C075F0746B7411996F75519A6F6650C0
:1004B20067CF74F0756B74C075F0746B74119D6FB7
:1004C20075519E6F990E6F6F000E706F4FEC04F0B6
:1004D2009D0E00016F6F000E706F4FEC04F09BC019
:1004E20061F09CC062F09FC063F0A0C064F002ECB7
:1004F20006F0A1EC05F0010E44EC05F0310E00010E
:10050200656F030E666FC8EC04F0020E44EC05F052
:10051200760E0001656F000E666FC8EC04F0020EE5
:100522000001756F040E746FBA0EE82EFED7742F99
:10053200FCD7752FFAD700F02C50D8A403D0ABD734
:10054200020E2C6E2C04D8A42DD0FAD7A1EC05F003
:10055200210E0001656F030E666FC8EC04F0000EF9
:100562000001986F000E976F020E0001756F040E66
:10057200746FBA0EE82EFED7742FFCD7752FFAD7F8
:1005820000F00001974B982B98BFEED7985104E1E9
:100592000A0E975DD8A0E8D7A1EC05F0000E2C6EEC
:1005A20083B4D4D7020E2C18D8A4C6D7F9D7949006
:1005B200929E949695909592929C8C908C928B960A
:1005C2008B90899C899E270E0001656FF50EE82E9F
:1005D200FED7652FFCD7030E11EC04F00D0E0001BF
:1005E200656FFB0EE82EFED7652FFCD700D0030EF9
:1005F20011EC04F0850EE82EFED700F0030E11EC8C
:1006020004F0210EE82EFED700F0020E11EC04F0E9
:10061200210EE82EFED700F0000E0001636F280EB7
:1006220028EC05F0210EE82EFED700F0000E0001A6
:10063200636F080E28EC05F0210EE82EFED700F0BD
:10064200000E0001636F010E28EC05F00D0E000193
:10065200656FFB0EE82EFED7652FFCD700D0000E8B
:100662000001636F060E28EC05F0210EE82EFED77E
:1006720000F0000E0001636F0C0E28EC05F0210E55
:10068200E82EFED700F01200E9CF1FF0EACF20F0EB
:10069200E1CF21F0E2CF22F0D9CF23F0DACF24F05C
:1006A200F6CF25F0F7CF26F0F8CF27F0F5CF28F0D8
:1006B2009EAA18D02C50D8A415D02D0E066E000E6E
:1006C200076EAECF08F08AEC03F02A6E2A04D8A493
:1006D2000AD02D0E076E000E086EA1EC01F0010E7D
:1006E2002C6E01D0AE5028C0F5FF27C0F8FF26C0FF
:1006F200F7FF25C0F6FF24C0DAFF23C0D9FF22C0CE
:10070200E2FF21C0E1FF20C0EAFF1FC0E9FF3992EA
:100712001100030E0818D8A420D0E7EC05F0010E52
:1007220076EC05F0000E0A6E000E096E010E036EE5
:1007320009500624D96E0A500720DA6EDF505EECAB
:1007420005F0094A0A2A0ABEF1D70A5004E10A0E44
:10075200095CD8A0EBD7010E1200020E0818D8A42B
:1007620012D0000E2B6E000E0B6E0B500624D96EAB
:10077200000E0720DA6E000EDF6E0B2A0B0E0B64E2
:10078200F4D7000E12002B500624D96E000E07205B
:10079200DA6E08C0DFFF2B2AF4D7000E00016C6F5F
:1007A2006AAF06D0696D6A1FD8B06A2B010E6C6FF2
:1007B20068AF06D0676D681FD8B0682B010E6C1B3E
:1007C200000E6E6F000E6D6F69516A11D8B41CD0A5
:1007D200010E6B6F04D0D89069376A376B2B6AAF02
:1007E200FAD7D8906D376E376951675D6A5168598B
:1007F200D8A005D06951675F6A51685B6D81D89056
:100802006A3369336B2FEDD76C51D8B404D06D6D58
:100812006E1FD8B06E2B6DC067F06EC068F012000C
:100822000001626F62C061F0010E000161178B501E
:100832006119FE0B61198B6E62C061F0D890613351
:10084200010E61176147614761478B506119F70BD0
:1008520061198B6E62C061F0D8906133D8906133B8
:10086200010E61178C506119FE0B61198C6E62C00A
:1008720061F0D8906133D8906133D8906133010E22
:10088200611761478C506119FD0B61198C6EF4EC94
:1008920005F0030EE82EFED700F01200000E000154
:1008A200626F4B0E616F6FC0D9FF70C0DAFFDECF8F
:1008B20063F0DDCF64F08DEC05F061C071F062C0D1
:1008C20072F0000E0001626F190E616F20EE02F0ED
:1008D2006F51D9267051DA22DECF63F0DDCF64F09A
:1008E2008DEC05F0000161517125676F6251722133
:1008F200686F000E6A6F640E696FCEEC03F0000140
:1009020020EE02F06F51D9267051DA2267C0DEFF65
:1009120068C0DDFF1200026E02C001F0010E011676
:100922008B500118FE0B01188B6E02C001F0D8909B
:100932000132010E01160146014601468B50011893
:10094200F70B01188B6E02C001F0D8900132D890DB
:100952000132010E01168C500118FE0B01188C6E2B
:1009620002C001F0D8900132D8900132D890013201
:10097200010E011601468C500118FD0B01188C6EF8
:10098200FBEC05F0030EE82EFED700F012001CD09F
:10099200010E0001636F65C0F6FF66C0F7FFF86ADB
:1009A200020EF76403D00800F55005D0F6CFE9FF38
:1009B200F7CFEAFFEF5028EC05F00001654B662BFC
:1009C200210EE82EFED700F065C0F6FF66C0F7FFE5
:1009D200F86A020EF76403D00800F55005D0F6CF8E
:1009E200E9FFF7CFEAFFEF500009D8B41200D0D7E1
:1009F2001AD0010E036E05C0F6FF06C0F7FFF86AB3
:100A0200020EF76403D00800F55005D0F6CFE9FFD7
:100A1200F7CFEAFFEF505EEC05F0054A062A210EF9
:100A2200E82EFED700F005C0F6FF06C0F7FFF86A11
:100A3200020EF76403D00800F55005D0F6CFE9FFA7
:100A4200F7CFEAFFEF500009D8B41200D2D7000165
:100A5200646F000163B102D0899E01D0898E0001CA
:100A620064390F0B0F0B11EC04F0060EE82EFED7C3
:100A720000D0000164510F0B11EC04F0210EE82E9E
:100A8200FED700F012000001656F00016505D8A4D1
:100A920005D0000E636F800E28EC05F0020E0001F7
:100AA2006519D8A405D0000E636FC00E28EC05F0BE
:100AB200210EE82EFED700F01200046E03B002D021
:100AC200899E01D0898E04380F0B0F0B8CEC04F039
:100AD200060EE82EFED700D004500F0B8CEC04F06B
:100AE200210EE82EFED700F01200056E0504D8A4F0
:100AF20005D0000E036E800E5EEC05F0020E0518A6
:100B0200D8A405D0000E036EC00E5EEC05F0210ED7
:100B1200E82EFED700F01200000161516303F3CF0B
:100B220065F0F4CF66F061516403F35066276251B9
:100B32006303F350662765C061F066C062F012007D
:100B4200000E0001636F010E28EC05F00D0E00018E
:100B5200656FFB0EE82EFED7652FFCD700D0120082
:100B6200720ED36ED3A4FED7F28EF28CD08ED8EC56
:100B720002F0DAEC05F0CDEC05F09584120000EEFF
:100B82002BF00E0EEE6AE806FDE139903992000E66
:100B9200F86E000149EF02F0190EB76E9284928648
:100BA200000EB86E000EB96E180E606E460E636EC1
:100BB2001200948ECB0EAF6E000EB06EAA86AC847D
:100BC200AB88AB8EAC8A9D8A9F8A1200000E036EA0
:100BD200010E5EEC05F00D0E056EFC0EE82EFED742
:100BE200052EFCD71200898C030EE82EFED700F0EA
:100BF200899C1200898C030EE82EFED700F0899C96
:040C020012001200CA
:020000040020DA
:08000000FFFFFFFFFFFFFFFF00
:020000040030CA
:0E000000FFC80F3F3C1D81FF0FC00FE00F40F7
:00000001FF
