:020000040000FA
:0400000033EF00F0EA
:060008004882A2EF07F0A0
:100018004880D8CF08F0E8CF09F0E0CF0AF0F2A482
:100028000AD04204D8A407D0010E4326000E442269
:10003800452246220BD0F2A409D0020E4218D8A4B9
:1000480005D04306000E445A455A465AF2940AC04F
:10005800E0FF09C0E8FF08C0D8FF48901000EBEFA8
:0200680007F09F
:10030000005354415254494E4720534541524348AB
:1003100000544F20535441525420534541524348B6
:1003200000524553455454494E4720524F424F5472
:1003300000434845434B53554D204641494C4544A5
:1003400000434845434B53554D205041535345447A
:10035000004D4F56494E4720544F20424F4D4200CA
:1003600052455455524E494E4720484F4D45004343
:100370007269746963616C204572726F72005052C9
:1003800045535320425554544F4E00534541524318
:0903900048494E470025750000A4
:10039A00000E286E000E276E27501124D96E2850A1
:1003AA001220DA6E2F0EDF6418D027501124D96E6E
:1003BA0028501220DA6E3A0EDF600FD0150E27246D
:1003CA00D96E000E2820DA6E27501124E16E2850CB
:1003DA001220E26EE750D00F20D027501124D96E98
:1003EA0028501220DA6E400EDF6418D027501124EC
:1003FA00D96E28501220DA6E470EDF600FD0150E24
:10040A002724D96E000E2820DA6E27501124E16EB7
:10041A0028501220E26EE750C90FDF6E274A282AB9
:10042A0028BEBAD7285004E10C0E275CD8A0B4D74E
:10043A001550D8A402D0010E01D0000E1610216E5C
:10044A001750D8A402D0010E01D0000E1810226E47
:10045A001950D8A402D0010E01D0000E1A10236E32
:10046A001B50D8A402D0010E01D0000E1C10246E1D
:10047A001D50D8A402D0010E01D0000E1E10256E08
:10048A001F50D8A402D0010E01D0000E2010266EF3
:10049A002150221823182418136E146A265025187E
:1004AA00D8A402D0010E01D0000E131A000E141A9D
:1004BA0013501410D8B40AD0020ED4EC07F0410E2F
:1004CA000F6E030E106E73EC06F01200020ED4ECDF
:1004DA0007F0310E0F6E030E106E73EC06F0120069
:1004EA0019C0D9FF1AC0DAFFDF501B6E1B500B6E02
:1004FA000C6A20EE07F01950D9261A50DA22DECFFC
:10050A000DF0DDCF0EF0FEEC07F00BC011F00CC0C1
:10051A0012F0000E146E640E136E02EC05F011C098
:10052A0020F012C021F020EE01F01950D9261A50FD
:10053A00DA22DF50D8B424D020EE06F01950D9269A
:10054A001A50DA22DF501B6E010E1C6E1B2A02D0D3
:10055A00D8901C361B2EFCD71C508A108A6E20EEAF
:10056A0007F01950D9261A50DA22DECF1BF0DDCF58
:10057A001CF020501B5C206E21501C58216E14D098
:10058A0020EE06F01950D9261A50DA22DF501B6ED7
:10059A00010E1C6E1B2A02D0D8901C361B2EFCD7CB
:1005AA001C50FF0A8A148A6E20EE02F01950D926CE
:1005BA001A50DA22DECF1BF0DDCF1CF01BC0D9FFA8
:1005CA001CC0DAFF2044E846FC0BDF6E20EE04F084
:1005DA001950D9261A50DA22DECF1BF0DDCF1CF0D3
:1005EA001BC0D9FF1CC0DAFF20C01DF021C01EF0BD
:1005FA00060E1F6E1E341E321D321F2EFBD71D50D3
:10060A00DF6E120087EC07F0940E226E000E236E46
:10061A009D0E246E000E256E80EC03F0000E000184
:10062A00916F410E906F000E936F5F0E926F59ECAF
:10063A0004F04250D8A40FD0940E2B6E000E2C6EEC
:10064A009D0E2D6E000E2E6E90C02FF091C030F0D0
:10065A00D0EC06F047D04204D8A417D0940E2B6EE3
:10066A00000E2C6E9D0E2D6E000E2E6E92C02FF077
:10067A0093C030F0430E316E000E326E470E336E69
:10068A00000E346E43EC06F02DD0020E4218D8A4A8
:10069A0013D0940E2B6E000E2C6E9D0E2D6E000E36
:1006AA002E6E92C02FF093C030F0430E316E000EC2
:1006BA00326E45EC07F016D0030E4218D8A414D0B7
:1006CA00940E2B6E000E2C6E9D0E2D6E000E2E6E4D
:1006DA0092C02FF093C030F0840E316E000E326E4D
:1006EA00B6EC04F0426EA5D76F0E0F6E030E106EB5
:1006FA0073EC06F09ED722C0D9FF23C0DAFF000EA2
:10070A00DF6E20EE01F02250D9262350DA22010EA4
:10071A00DF6E20EE02F02250D9262350DA22790E1B
:10072A00DE6E0F0EDD6E20EE04F02250D926235025
:10073A00DA22780EDE6E0F0EDD6E20EE06F0225003
:10074A00D9262350DA22000EDF6E20EE07F022505F
:10075A00D9262350DA22C70EDE6E000EDD6E24C0C3
:10076A00D9FF25C0DAFF000EDF6E20EE01F024501B
:10077A00D9262550DA22010EDF6E20EE02F024502F
:10078A00D9262550DA22770EDE6E0F0EDD6E20EEA8
:10079A0004F02450D9262550DA22760EDE6E0F0E8A
:1007AA00DD6E20EE06F02450D9262550DA22020EFC
:1007BA00DF6E20EE07F02450D9262550DA22C70E24
:1007CA00DE6E000EDD6E22C019F023C01AF075EC41
:1007DA0002F024C019F025C01AF075EC02F01200DC
:1007EA009490929E949695909592929C8C908C92CD
:1007FA008B968B90899C899E270E0F6EF50EE82E9C
:10080A00FED70F2EFCD700F0030E07EC06F00D0EF4
:10081A000F6EFC0EE82EFED70F2EFCD7030E07EC48
:10082A0006F0850EE82EFED700F0030E07EC06F060
:10083A00210EE82EFED700F0020E07EC06F0210E7C
:10084A00E82EFED700F0000E0D6E280EBCEC07F065
:10085A00210EE82EFED700F0000E0D6E080EBCEC3D
:10086A0007F0210EE82EFED700F0000E0D6E010EE5
:10087A00BCEC07F00D0E0F6EFC0EE82EFED70F2E05
:10088A00FCD7000E0D6E060EBCEC07F0210EE82E0A
:10089A00FED700F0000E0D6E0C0EBCEC07F0210E18
:1008AA00E82EFED700F01200000E176E000E166E2C
:1008BA00685069CF11F0126A11C012F0116A111052
:1008CA00146E1250156E14C00BF015C00CF023EC08
:1008DA0007F0164A172A17BEEBD7F40E165C010E5C
:1008EA001758D8A0E5D72BEC08F0010ED4EC07F086
:1008FA007E0E0F6E030E106E73EC06F0020ED4EC31
:10090A0007F0110E0F6E030E106E73EC06F083A43F
:10091A00FED72BEC08F0010ED4EC07F0010E0F6E97
:10092A00030E106E73EC06F0000E196E000E186EB0
:10093A00020E126E040E116EBA0EE82EFED7112E9A
:10094A00FCD7122EFAD700D0184A192A19BEF0D7A6
:10095A00195004E10A0E185CD8A0EAD72BEC08F06B
:10096A0012002BC022F02CC023F02DC024F02EC080
:10097A0025F02FC026F030C027F0A2EC06F031C0D7
:10098A0010F032C011F067EC07F031C011F032C03C
:10099A0012F0CDEC01F031C0D9FF32C0DAFFDF50DE
:1009AA00D8A426D028D02BEC08F0210E0F6E030E07
:1009BA00106E73EC06F0000E366E000E356E020EE7
:1009CA00346E040E336EBA0EE82EFED7332EFCD7E1
:1009DA00342EFAD700D0354A362A36BEF0D73650EA
:1009EA0004E10A0E355CD8A0EAD72BEC08F0FF0028
:1009FA0083A4FED7D8D7000E1200000E166E14AECE
:100A0A0006D0136C141ED8B0142A010E166E12AE3C
:100A1A0006D0116C121ED8B0122A010E161A000E38
:100A2A00186E000E176E13501410D8B41CD0010E95
:100A3A00156E04D0D89013361436152A14AEFAD788
:100A4A00D890173618361350115C14501258D8A083
:100A5A0005D01350115E1450125A1780D8901432D0
:100A6A001332152EEDD71650D8B404D0176C181EB1
:100A7A00D8B0182A17C011F018C012F0120020EED0
:100A8A0001F02250D9262350DA22000EDF6E20EE22
:100A9A0001F02450D9262550DA22010EDF6E000E0D
:100AAA002A6E000E296E21D022C0D9FF23C0DAFF98
:100ABA0029C0DFFF24C0D9FF25C0DAFF29C0DFFF24
:100ACA0022C019F023C01AF075EC02F024C019F004
:100ADA0025C01AF075EC02F0030E286E980EE82E67
:100AEA00FED7282EFCD7294A2A2A2650295C2A50C2
:100AFA00800A286E2750800A2858D8B01200D4D706
:100B0A0020EE01F02250D9262350DA22000EDF6EA1
:100B1A0020EE01F02450D9262550DA22000EDF6E8D
:100B2A00000E2A6E000E296E21D022C0D9FF23C0E2
:100B3A00DAFF29C0DFFF24C0D9FF25C0DAFF29C0A8
:100B4A00DFFF22C019F023C01AF075EC02F024C0AE
:100B5A0019F025C01AF075EC02F0030E286E980EF3
:100B6A00E82EFED7282EFCD7294A2A2A2650295CA5
:100B7A002A50800A286E2750800A2858D8B01200B6
:100B8A00D4D720EE01F02250D9262350DA22010EC2
:100B9A00DF6E20EE01F02450D9262550DA22010E0C
:100BAA00DF6E000E2A6E000E296E21D022C0D9FFF8
:100BBA0023C0DAFF29C0DFFF24C0D9FF25C0DAFF2E
:100BCA0029C0DFFF22C019F023C01AF075EC02F029
:100BDA0024C019F025C01AF075EC02F0030E286E35
:100BEA00980EE82EFED7282EFCD7294A2A2A265004
:100BFA00295C2A50800A286E2750800A2858D8B0C3
:100C0A001200D4D70C6E0CC00BF0010E0B168B50D1
:100C1A000B18FE0B0B188B6E0CC00BF0D8900B3216
:100C2A00010E0B160B460B460B468B500B18F70B97
:100C3A000B188B6E0CC00BF0D8900B32D8900B327D
:100C4A00010E0B168C500B18FE0B0B188C6E0CC079
:100C5A000BF0D8900B32D8900B32D8900B32010E91
:100C6A000B160B468C500B18FD0B0B188C6E44ECB4
:100C7A0008F0030EE82EFED700F012002BC022F077
:100C8A002CC023F02DC024F02EC025F02FC026F052
:100C9A0030C027F0C6EC05F02BEC08F0510E0F6EB1
:100CAA00030E106E73EC06F033C0D9FF34C0DAFFBE
:100CBA00DE04D8A402D0020E120031C0D9FF32C01D
:100CCA00DAFF030EDB50F7E1020EDB50F4E1310EDE
:100CDA00DE5C010EDE58D8B0EED7E6D71AD0010E88
:100CEA000D6E0FC0F6FF10C0F7FFF86A020EF76428
:100CFA0003D00800F55005D0F6CFE9FFF7CFEAFF99
:100D0A00EF50BCEC07F00F4A102A210EE82EFED74E
:100D1A0000F00FC0F6FF10C0F7FFF86A020EF76482
:100D2A0003D00800F55005D0F6CFE9FFF7CFEAFF68
:100D3A00EF500009D8B41200D2D726C029F027C034
:100D4A002AF02ABE12002A5003E12904D8A0120070
:100D5A0022C0D9FF23C0DAFF29C0DFFF24C0D9FF90
:100D6A0025C0DAFF29C0DFFF22C019F023C01AF01C
:100D7A0075EC02F024C019F025C01AF075EC02F0E7
:100D8A00030E286E980EE82EFED7282EFCD72906C9
:100D9A00D8A02A06D6D72BC022F02CC023F02DC00B
:100DAA0024F02EC025F02FC026F030C027F044ECE6
:100DBA0005F02BEC08F08B0E0F6E030E106E73EC21
:100DCA0006F0685069CF31F0326A31C032F0316AC8
:100DDA003110336E3250346E33C00BF034C00CF025
:100DEA0023EC07F0356E3504D8A4EBD7010E1200B8
:100DFA00030E0318D8A402D0010E1200020E031823
:100E0A00D8A412D0000E416E000E046E04500124C4
:100E1A00D96E000E0220DA6E000EDF6E042A0B0E67
:100E2A000464F4D7000E120041500124D96E000E5A
:100E3A000220DA6E03C0DFFF412AF4D73F500B5C71
:100E4A000D6E40500C580E6ED8900E320D32D8905E
:100E5A000E320D323F500D243F6E40500E20406E30
:100E6A003F500B5C0F6E40500C58106E105004E14E
:100E7A00640E0F5CD8A002D0010E1200000E120000
:100E8A002BC022F02CC023F02DC024F02EC025F058
:100E9A002FC026F030C027F085EC05F02BEC08F0C7
:100EAA00600E0F6E030E106E73EC06F031C0D9FFA0
:100EBA0032C0DAFFDE50DE10DE10DE10D8A4F6D71C
:100ECA00030E12002BEC08F0010ED4EC07F0000E12
:100EDA00136E000E126E010E0D6E12501024D96E92
:100EEA0013501120DA6EDF50BCEC07F0124A132AB5
:100EFA0013BEF1D7135005E10A0E125CD8B01200E6
:100F0A00EAD71200720ED36ED3A4FED7F28EF28CF9
:100F1A00D08EF5EC03F011EC08F038EC08F0000E76
:100F2A000C6EC70E0B6E1EEC08F09390939495848A
:100F3A00C70ED56EF28AF1941200D9CF05F0DACF36
:100F4A0006F09EAA0DD04204D8A40AD0840E016EDF
:100F5A00000E026EAECF03F0FDEC06F0476E01D034
:100F6A00AE5006C0DAFF05C0D9FF489211000E6ED6
:100F7A000DB002D0899E01D0898E0E380F0B0F0B4F
:100F8A0007EC06F0060EE82EFED700D00E500F0B27
:100F9A0007EC06F0210EE82EFED700F012000F6EC5
:100FAA000F04D8A405D0000E0D6E800EBCEC07F01D
:100FBA00020E0F18D8A405D0000E0D6EC00EBCECA0
:100FCA0007F0210EE82EFED700F0120000EE60F0C6
:100FDA00300EEE6AE806FDE100EE39F00F0EEE6A19
:100FEA00E806FDE148904892000EF86E000107EF0E
:100FFA0003F00B500D02F3CF0FF0F4CF10F00B50AB
:10100A000E02F35010260C500D02F35010260FC09A
:10101A000BF010C00CF01200948ECB0EAF6E000EC7
:10102A00B06EAA86AC84AB88AB8EAC8A9D8A9F8A46
:10103A001200000E7F6E800E7E6E6F0E6F6E000EB7
:10104A006E6E0BC07BFF0C507A6E1200000E0D6E96
:10105A00010EBCEC07F00D0E0F6EFC0EE82EFED74B
:10106A000F2EFCD71200010EB76E9284000EB86ED6
:10107A00000EB96E470E636E695068501200898C73
:0C108A00030EE82EFED700F0899C120037
:020000040020DA
:08000000FFFFFFFFFFFFFFFF00
:020000040030CA
:0E000000FFC80F3F3C1D81FF0FC00FE00F40F7
:00000001FF
