:020000040000FA
:0400000053EF00F0CA
:060008005182C7EF08F071
:100018005180D8CF08F0E8CF09F0E0CF0AF0D9CF67
:100028000BF0DACF0CF0F3CF0DF0F4CF0EF0F2A412
:1000380013D04404D8B403D04450D8A40DD0000140
:100048009C51020D740EF324D96E000EF420DA6E62
:10005800DE2A000EDD2212D0F2A410D0020E4418BF
:10006800D8A40CD000019C51020D740EF324D96E53
:10007800000EF420DA6EDE06000EDD5AF2940EC091
:10008800F4FF0DC0F3FF0CC0DAFF0BC0D9FF0AC0A4
:10009800E0FF09C0E8FF08C0D8FF5190100011EF39
:0200A80009F05D
:10030000005354415254494E4720534541524348AB
:1003100000544F20535441525420534541524348B6
:1003200000524553455454494E4720524F424F5472
:1003300000434845434B53554D204641494C4544A5
:1003400000434845434B53554D205041535345447A
:10035000004D4F56494E4720544F20424F4D4200CA
:1003600052455455524E494E4720484F4D45004343
:100370007269746963616C204572726F72005052C9
:1003800045535320425554544F4E00534541524318
:0903900048494E470025750000A4
:10039A00BEC026F0BFC027F0C0C028F0C1C029F0F7
:1003AA00C2C02AF0C3C02BF016EC08F051EC09F0D9
:1003BA00600E136E030E146EE7EC07F08AD020EE7F
:1003CA003CF0C651D926C751DA22DF502F6E2F5082
:1003DA00C625D96E000EC721DA6EDF50D8A431D0F7
:1003EA00BEC026F0BFC027F0C0C028F0C1C029F0A7
:1003FA00C2C02AF0C3C02BF029EC07F0000120EE9E
:10040A003CF0C651D926C751DA22DF502F6E2F5041
:10041A00020DC6C030F0C7C031F0F3503026F45098
:10042A003122140E3024D96E000E3120DA6E010EFC
:10043A00DBBE48D0010EDB50E1E1DE04D8A042D099
:10044A00DDD720EE3CF0C651D926C751DA22DF505B
:10045A002F6E2F50C625D96E000EC721DA6EDE0424
:10046A00D8A430D0BEC026F0BFC027F0C0C028F044
:10047A00C1C029F0C4C02AF0C5C02BF0E8EC06F0D0
:10048A00000120EE3CF0C651D926C751DA22DF50CE
:10049A002F6E2F50020DC6C030F0C7C031F0F35096
:1004AA003026F4503122140E3024D96E000E312039
:1004BA00DA6E010EDBBE06D0010EDB50E1E1DE048E
:1004CA00D8B0DED720EE3CF0C651D926C751DA2281
:1004DA00DF06000120EE3CF0C651D926C751DA22C8
:1004EA00DF50D8A46CD7030E1200000E2C6E000E3B
:1004FA002B6E2B501524D96E2C501620DA6E2F0E27
:10050A00DF6418D02B501524D96E2C501620DA6EC1
:10051A003A0EDF600FD0190E2B24D96E000E2C2054
:10052A00DA6E2B501524E16E2C501620E26EE7503D
:10053A00D00F20D02B501524D96E2C501620DA6EED
:10054A00400EDF6418D02B501524D96E2C5016207B
:10055A00DA6E470EDF600FD0190E2B24D96E000E0B
:10056A002C20DA6E2B501524E16E2C501620E26EE8
:10057A00E750C90FDF6E2B4A2C2A2CBEBAD72C5053
:10058A0004E10C0E2B5CD8A0B4D71950D8A402D021
:10059A00010E01D0000E1A10256E1B50D8A402D0ED
:1005AA00010E01D0000E1C10266E1D50D8A402D0D8
:1005BA00010E01D0000E1E10276E1F50D8A402D0C3
:1005CA00010E01D0000E2010286E2150D8A402D0AE
:1005DA00010E01D0000E2210296E2350D8A402D099
:1005EA00010E01D0000E24102A6E25502618271855
:1005FA002818176E186A2A502918D8A402D0010E92
:10060A0001D0000E171A000E181A17501810D8B475
:10061A000AD0020EFAEC08F0410E136E030E146EA5
:10062A00E7EC07F01200020EFAEC08F0310E136E36
:10063A00030E146EE7EC07F012001DC0D9FF1EC0AE
:10064A00DAFFDF501F6E1F500F6E106A20EE07F0A0
:10065A001D50D9261E50DA22DECF11F0DDCF12F05E
:10066A0024EC09F00FC015F010C016F0000E186E39
:10067A00640E176E65EC06F015C024F016C025F05E
:10068A0020EE01F01D50D9261E50DA22DF50D8B4D0
:10069A0024D020EE06F01D50D9261E50DA22DF5053
:1006AA001F6E010E206E1F2A02D0D89020361F2EF0
:1006BA00FCD720508A108A6E20EE07F01D50D926EA
:1006CA001E50DA22DECF1FF0DDCF20F024501F5C4F
:1006DA00246E25502058256E14D020EE06F01D50A9
:1006EA00D9261E50DA22DF501F6E010E206E1F2AF5
:1006FA0002D0D89020361F2EFCD72050FF0A8A1429
:10070A008A6E20EE02F01D50D9261E50DA22DECF64
:10071A001FF0DDCF20F01FC0D9FF20C0DAFF24442C
:10072A00E846FC0BDF6E20EE04F01D50D9261E5061
:10073A00DA22DECF1FF0DDCF20F01FC0D9FF20C0A4
:10074A00DAFF24C021F025C022F0060E236E2234DF
:10075A0022322132232EFBD72150DF6E1200ACEC5D
:10076A0008F0CC0E266E000E276ED50E286E000EEF
:10077A00296E37EC04F0000E0001C96F370EC86FFE
:10078A00000ECB6F5F0ECA6F72EC05F04450D8A40E
:10079A0013D0CC0E2F6E000E306ED50E316E000EB9
:1007AA00326EC8C033F0C9C034F0600E356E000E28
:1007BA00366E1EEC06F04DD04404D8A418D0CC0EE8
:1007CA000001BE6F000EBF6FD50EC06F000EC16F65
:1007DA00CAC0C2F0CBC0C3F0600EC46F000EC56FB2
:1007EA00BD0EC66F000EC76F10EC05F032D0020EB8
:1007FA004418D8A418D0CC0E0001BE6F000EBF6FEB
:10080A00D50EC06F000EC16FCAC0C2F0CBC0C3F014
:10081A00C8C0C4F0C9C0C5F0600EC66F000EC76F6D
:10082A00CDEC01F016D0030E4418D8A414D0CC0E87
:10083A002F6E000E306ED50E316E000E326ECAC0AB
:10084A0033F0CBC034F0450E356E000E366ECFEC69
:10085A0005F0446E9BD76F0E136E030E146EE7EC11
:10086A0007F094D726C0D9FF27C0DAFF000EDF6E43
:10087A0020EE01F02650D9262750DA22010EDF6E2B
:10088A0020EE02F02650D9262750DA22790EDE6EA3
:10089A000F0EDD6E20EE04F02650D9262750DA22FC
:1008AA00780EDE6E0F0EDD6E20EE06F02650D9268B
:1008BA002750DA22000EDF6E20EE07F02650D926E6
:1008CA002750DA22C70EDE6E000EDD6E28C0D9FF71
:1008DA0029C0DAFF000EDF6E20EE01F02850D9267B
:1008EA002950DA22010EDF6E20EE02F02850D926B6
:1008FA002950DA22770EDE6E0F0EDD6E20EE04F03E
:10090A002850D9262950DA22760EDE6E0F0EDD6EB9
:10091A0020EE06F02850D9262950DA22020EDF6E80
:10092A0020EE07F02850D9262950DA22C70EDE6EAB
:10093A00000EDD6E26C01DF027C01EF022EC03F06B
:10094A0028C01DF029C01EF022EC03F0120094907A
:10095A00929E949695909592929C8C908C928B965E
:10096A008B90899C899E270E136EF50EE82EFED772
:10097A00132EFCD700F0030EABEC07F00D0E136E2E
:10098A00FC0EE82EFED7132EFCD7030EABEC07F0B5
:10099A00850EE82EFED700F0030EABEC07F0210E11
:1009AA00E82EFED700F0020EABEC07F0210EE82E7F
:1009BA00FED700F0000E116E280EE2EC08F0210EB0
:1009CA00E82EFED700F0000E116E080EE2EC08F0D9
:1009DA00210EE82EFED700F0000E116E010EE2EC99
:1009EA0008F00D0E136EFC0EE82EFED7132EFCD760
:1009FA00000E116E060EE2EC08F0210EE82EFED76C
:100A0A0000F0000E116E0C0EE2EC08F0210EE82E3A
:100A1A00FED700F01200000120EE3CF0C451D926A6
:100A2A00C551DA22DF502F6E2F50C425D96E000E21
:100A3A00C521DA6E000EDF6EBEC026F0BFC027F0F9
:100A4A00C0C028F0C1C029F0C2C02AF0C3C02BF030
:100A5A006AEC07F051EC09F0510E136E030E146E96
:100A6A00E7EC07F0000E356E000E346E685069CF61
:100A7A002FF0306A2FC030F02F6A2F10316E3050AD
:100A8A00326E31C00FF032C010F06AEC08F0336EEB
:100A9A00C6C0D9FFC7C0DAFFDE04D8A402D0020E4E
:100AAA0012003350D8A403D0344A352A04D0000E99
:100ABA00356E000E346E35BED9D7500E345C460EF4
:100ACA003558D8A0D3D7000120EE3CF0C451D9261E
:100ADA00C551DA22DF2A000E1200000E1B6E000E2C
:100AEA001A6E685069CF15F0166A15C016F0156AA5
:100AFA001510186E1650196E18C00FF019C010F0A4
:100B0A006AEC08F01A4A1B2A1BBEEBD7F40E1A5CD1
:100B1A00010E1B58D8A0E5D751EC09F0010EFAECEA
:100B2A0008F07E0E136E030E146EE7EC07F0020E49
:100B3A00FAEC08F0110E136E030E146EE7EC07F0D0
:100B4A0083A4FED751EC09F0010EFAEC08F0010E6D
:100B5A00136E030E146EE7EC07F0000E1D6E000E06
:100B6A001C6E020E166E040E156EBA0EE82EFED715
:100B7A00152EFCD7162EFAD700D01C4A1D2A1DBEE8
:100B8A00F0D71D5004E10A0E1C5CD8A0EAD751EC3C
:100B9A0009F012002FC026F030C027F031C028F02B
:100BAA0032C029F033C02AF034C02BF016EC08F01A
:100BBA0035C014F036C015F08CEC08F035C015F0CD
:100BCA0036C016F07AEC02F035C0D9FF36C0DAFF2B
:100BDA00DF50D8A429D02BD051EC09F0210E136E86
:100BEA00030E146EE7EC07F0000E0001C16F000E51
:100BFA00C06F020E0001BF6F040EBE6FBA0EE82E60
:100C0A00FED7BE2FFCD7BF2FFAD700F00001C04B8A
:100C1A00C12BC1BFEED7C15104E10A0EC05DD8A0F5
:100C2A00E8D751EC09F0FF0083A4FED7D5D7000E10
:100C3A00120020EE3CF03550D9263650DA22DF5029
:100C4A000001BE6FBE513524D96E000E3620DA6E11
:100C5A00010EDF6E2FC026F030C027F031C028F019
:100C6A0032C029F033C02AF034C02BF0A7EC06F0CA
:100C7A0051EC09F08B0E136E030E146EE7EC07F0BD
:100C8A00685069CFBEF00001BF6BBEC0BFF0BE6B3B
:100C9A00BE11C06FBF51C16FC0C00FF0C1C010F00C
:100CAA006AEC08F00001C26FC205D8A4E9D720EEA9
:100CBA003CF03550D9263650DA22DF2A010E1200CE
:100CCA00000E1A6E18AE06D0176C181ED8B0182A65
:100CDA00010E1A6E16AE06D0156C161ED8B0162A5C
:100CEA00010E1A1A000E1C6E000E1B6E17501810F9
:100CFA00D8B41CD0010E196E04D0D8901736183605
:100D0A00192A18AEFAD7D8901B361C361750155C1C
:100D1A0018501658D8A005D01750155E1850165AF4
:100D2A001B80D89018321732192EEDD71A50D8B422
:100D3A0004D01B6C1C1ED8B01C2A1BC015F01CC08A
:100D4A0016F0120020EE01F02650D9262750DA229A
:100D5A00000EDF6E20EE01F02850D9262950DA2243
:100D6A00010EDF6E000E2E6E000E2D6E21D026C0F3
:100D7A00D9FF27C0DAFF2DC0DFFF28C0D9FF29C05D
:100D8A00DAFF2DC0DFFF26C01DF027C01EF022ECBF
:100D9A0003F028C01DF029C01EF022EC03F0030E58
:100DAA002C6E980EE82EFED72C2EFCD72D4A2E2A12
:100DBA002A502D5C2E50800A2C6E2B50800A2C58FB
:100DCA00D8B01200D4D720EE01F02650D9262750E9
:100DDA00DA22010EDF6E20EE01F02850D9262950C2
:100DEA00DA22000EDF6E000E2E6E000E2D6E21D05E
:100DFA0026C0D9FF27C0DAFF2DC0DFFF28C0D9FFE0
:100E0A0029C0DAFF2DC0DFFF26C01DF027C01EF063
:100E1A0022EC03F028C01DF029C01EF022EC03F0DA
:100E2A00030E2C6E980EE82EFED72C2EFCD72D4AD8
:100E3A002E2A2A502D5C2E50800A2C6E2B50800AA6
:100E4A002C58D8B01200D4D720EE01F02650D9265B
:100E5A002750DA22000EDF6E20EE01F02850D92644
:100E6A002950DA22000EDF6E000E2E6E000E2D6E55
:100E7A0021D026C0D9FF27C0DAFF2DC0DFFF28C046
:100E8A00D9FF29C0DAFF2DC0DFFF26C01DF027C019
:100E9A001EF022EC03F028C01DF029C01EF022EC3F
:100EAA0003F0030E2C6E980EE82EFED72C2EFCD7DC
:100EBA002D4A2E2A2A502D5C2E50800A2C6E2B5039
:100ECA00800A2C58D8B01200D4D720EE01F0265050
:100EDA00D9262750DA22010EDF6E20EE01F02850C3
:100EEA00D9262950DA22010EDF6E000E2E6E000E70
:100EFA002D6E21D026C0D9FF27C0DAFF2DC0DFFF13
:100F0A0028C0D9FF29C0DAFF2DC0DFFF26C01DF097
:100F1A0027C01EF022EC03F028C01DF029C01EF0E5
:100F2A0022EC03F0030E2C6E980EE82EFED72C2E20
:100F3A00FCD72D4A2E2A2A502D5C2E50800A2C6E60
:100F4A002B50800A2C58D8B01200D4D7106E10C07B
:100F5A000FF0010E0F168B500F18FE0B0F188B6E29
:100F6A0010C00FF0D8900F32010E0F160F460F4621
:100F7A000F468B500F18F70B0F188B6E10C00FF01F
:100F8A00D8900F32D8900F32010E0F168C500F18CE
:100F9A00FE0B0F188C6E10C00FF0D8900F32D8903D
:100FAA000F32D8900F32010E0F160F468C500F18C1
:100FBA00FD0B0F188C6E6AEC09F0030EE82EFED7B3
:100FCA0000F012001AD0010E116E13C0F6FF14C001
:100FDA00F7FFF86A020EF76403D00800F55005D04F
:100FEA00F6CFE9FFF7CFEAFFEF50E2EC08F0134A39
:100FFA00142A210EE82EFED700F013C0F6FF14C003
:10100A00F7FFF86A020EF76403D00800F55005D01E
:10101A00F6CFE9FFF7CFEAFFEF500009D8B4120084
:10102A00D2D72AC02DF02BC02EF02EBE12002E5081
:10103A0003E12D04D8A0120026C0D9FF27C0DAFF89
:10104A002DC0DFFF28C0D9FF29C0DAFF2DC0DFFF7E
:10105A0026C01DF027C01EF022EC03F028C01DF0A8
:10106A0029C01EF022EC03F0030E2C6E980EE82E17
:10107A00FED72C2EFCD72D06D8A02E06D6D7030EC7
:10108A000318D8A402D0010E1200020E0318D8A425
:10109A0012D0000E436E000E046E04500124D96E65
:1010AA00000E0220DA6E000EDF6E042A0B0E0464B4
:1010BA00F4D7000E120043500124D96E000E02200C
:1010CA00DA6E03C0DFFF432AF4D741500F5C116E7A
:1010DA0042501058126ED89012321132D8901232F1
:1010EA00113241501124416E42501220426E415039
:1010FA000F5C136E42501058146E145004E1640EC3
:10110A00135CD8A002D0010E1200000E120051EC9E
:10111A0009F0010EFAEC08F0000E176E000E166EBA
:10112A00010E116E16501424D96E17501520DA6E5E
:10113A00DF50E2EC08F0164A172A17BEF1D717500B
:10114A0005E10A0E165CD8B01200EAD71200720E38
:10115A00D36ED3A4FED7F28EF28CD08EACEC04F010
:10116A0037EC09F05EEC09F0000E106EC70E0F6E38
:10117A0044EC09F0939093949584C70ED56EF28A45
:10118A00F1941200D9CF05F0DACF06F09EAA0ED05C
:10119A004404D8A40BD0450E016E000E026EAECFE9
:1011AA0003F044EC08F00001BD6F01D0AE5006C058
:1011BA00DAFF05C0D9FF51921100126E11B002D0A8
:1011CA00899E01D0898E12380F0B0F0BABEC07F0FA
:1011DA00060EE82EFED700D012500F0BABEC07F02C
:1011EA00210EE82EFED700F01200136E1304D8A4C5
:1011FA0005D0000E116E800EE2EC08F0020E1318F4
:10120A00D8A405D0000E116EC00EE2EC08F0210E33
:10121A00E82EFED700F0120000EE60F05E0EEE6AD5
:10122A00E806FDE100EE37F01A0EEE6AE806FDE187
:10123A0051905192000EF86E0001B4EF03F00F5076
:10124A001102F3CF13F0F4CF14F00F501202F3503F
:10125A00142610501102F350142613C00FF014C0B4
:10126A0010F01200948ECB0EAF6E000EB06EAA86EE
:10127A00AC84AB88AB8EAC8A9D8A9F8A1200000E22
:10128A007F6E800E7E6E6F0E6F6E000E6E6E0FC0DA
:10129A007BFF10507A6E1200000E116E010EE2EC06
:1012AA0008F00D0E136EFC0EE82EFED7132EFCD797
:1012BA001200010EB76E9284000EB86E000EB96E5F
:1012CA00470E636E695068501200898C030EE82E2F
:0812DA00FED700F0899C120010
:020000040020DA
:08000000FFFFFFFFFFFFFFFF00
:020000040030CA
:0E000000FFC80F3F3C1D81FF0FC00FE00F40F7
:00000001FF
