:020000040000FA
:040000001FEF00F0FE
:100008005882D9CF05F0DACF06F09EAA0DD04B045E
:10001800D8A40AD04C0E016E000E026EAECF03F0CB
:10002800D9EC05F04A6E01D0AE5006C0DAFF05C023
:0A003800D9FF5892110093EF06F073
:1003000000434845434B53554D204641494C4544D5
:1003100000434845434B53554D20504153534544AA
:1003200000524553455454494E4720524F424F5472
:10033000000052EC06F0370E1F6E000E206E400ECD
:10034000216E000E226EA8EC03F0000E2C6E000E43
:100350002D6E000E2E6E000E2F6E4B50D8A425D0A1
:10036000370E1F6E000E206E400E216E000E226EA4
:10037000C3EC04F017D0685069CF28F0296A28C070
:1003800029F0286A28102A6E29502B6E2AC008F0FE
:100390002BC009F0D5EC06F0346E3404D8A402D09A
:1003A000010E4B6E4B50D8B4E6D74B04D8A42CD0DA
:1003B000370E1F6E000E206E400E216E000E226E54
:1003C000000E246E4B0E236E3EEC05F01AD000D0CA
:1003D000010E2C26000E2D222E222F224A04D8A4F4
:1003E00010D04C0E0D6E000E0E6EFFEC05F04C0E94
:1003F0000E6E000E0F6E6EEC02F0020E4B6E000ED3
:100400004A6E4B04D8B4E3D7020E4B18D8A42AD0B6
:10041000370E1F6E000E206E400E216E000E226EF3
:10042000000E246E4B0E236E78EC05F0000E306E3D
:10043000000E316E000E326E000E336E07D000D00B
:10044000010E3026000E3122322233222C50305C35
:100450002D5031582E5032582F503358D8A0EFD746
:10046000030E4B6E030E4B18D8A477D7370E1F6EB2
:10047000000E206E400E216E000E226EB2EC05F0D2
:1004800028D0BCEC06F0210E0C6E030E0D6E1FEC96
:1004900006F0000E366E000E356E020E296E040E4A
:1004A000286EBA0EE82EFED7282EFCD7292EFAD7B2
:1004B00000D0354A362A36BEF0D7365004E10A0E4F
:1004C000355CD8A0EAD7BCEC06F0000E4B6E83B4C6
:1004D000D8D7030E4B18D8A440D7F9D7000E256EF5
:1004E000000E246E24500E24D96E25500F20DA6E93
:1004F0002F0EDF6418D024500E24D96E25500F2003
:10050000DA6E3A0EDF600FD0120E2424D96E000E80
:100510002520DA6E24500E24E16E25500F20E26E65
:10052000E750D00F20D024500E24D96E25500F2034
:10053000DA6E400EDF6418D024500E24D96E255098
:100540000F20DA6E470EDF600FD0120E2424D96E12
:10055000000E2520DA6E24500E24E16E25500F2067
:10056000E26EE750C90FDF6E244A252A25BEBAD7AE
:10057000255004E10C0E245CD8A0B4D71250D8A4A6
:1005800002D0010E01D0000E13101E6E1450D8A41C
:1005900002D0010E01D0000E15101F6E1650D8A407
:1005A00002D0010E01D0000E1710206E1850D8A4F2
:1005B00002D0010E01D0000E1910216E1A50D8A4DD
:1005C00002D0010E01D0000E1B10226E1C50D8A4C8
:1005D00002D0010E01D0000E1D10236E1E501F18F8
:1005E00020182118106E116A23502218D8A402D0A6
:1005F000010E01D0000E101A000E111A1050111029
:10060000D8B40AD0020E69EC06F0110E0C6E030E7F
:100610000D6E1FEC06F01200020E69EC06F0010EE2
:100620000C6E030E0D6E1FEC06F0120016C0D9FF03
:1006300017C0DAFFDF50186E1850086E096A20EEF6
:1006400007F01650D9261750DA22DECF0AF0DDCF98
:100650000BF080EC06F008C00EF009C00FF0000EA1
:10066000116E640E106E81EC04F00EC01DF00FC010
:100670001EF020EE01F01650D9261750DA22DF5076
:10068000D8B424D020EE06F01650D9261750DA221E
:10069000DF50186E010E196E182A02D0D890193644
:1006A000182EFCD719508A108A6E20EE07F01650CB
:1006B000D9261750DA22DECF18F0DDCF19F01D5001
:1006C000185C1D6E1E5019581E6E14D020EE06F0D8
:1006D0001650D9261750DA22DF50186E010E196E07
:1006E000182A02D0D8901936182EFCD71950FF0AB4
:1006F0008A148A6E20EE02F01650D9261750DA229C
:10070000DECF18F0DDCF19F018C0D9FF19C0DAFF1D
:100710001D44E846FC0BDF6E20EE04F01650D9268F
:100720001750DA22DECF18F0DDCF19F018C0D9FF4C
:1007300019C0DAFF1DC01AF01EC01BF0060E1C6E99
:100740001B341B321A321C2EFBD71A50DF6E1200DC
:100750001FC0D9FF20C0DAFF000EDF6E20EE01F0CF
:100760001F50D9262050DA22010EDF6E20EE02F053
:100770001F50D9262050DA22790EDE6E0F0EDD6E64
:1007800020EE04F01F50D9262050DA22780EDE6EBB
:100790000F0EDD6E20EE06F01F50D9262050DA2213
:1007A000000EDF6E20EE07F01F50D9262050DA220F
:1007B000C70EDE6E000EDD6E21C0D9FF22C0DAFF4B
:1007C000000EDF6E20EE01F02150D9262250DA22F1
:1007D000010EDF6E20EE02F02150D9262250DA22DF
:1007E000770EDE6E0F0EDD6E20EE04F02150D9265E
:1007F0002250DA22760EDE6E0F0EDD6E20EE06F04F
:100800002150D9262250DA22020EDF6E20EE07F0A8
:100810002150D9262250DA22C70EDE6E000EDD6E80
:100820001FC016F020C017F016EC03F021C016F020
:1008300022C017F016EC03F012009490929E94964A
:1008400095909592929C8C908C928B968B90899C93
:10085000899E270E0C6EF50EE82EFED70C2EFCD7C7
:1008600000F0030E02EC05F00D0E0C6EFC0EE82EEF
:10087000FED70C2EFCD7030E02EC05F0850EE82EF9
:10088000FED700F0030E02EC05F0210EE82EFED795
:1008900000F0020E02EC05F0210EE82EFED700F06B
:1008A000000E0A6E280E3AEC06F0210EE82EFED756
:1008B00000F0000E0A6E080E3AEC06F0210EE82E4B
:1008C000FED700F0000E0A6E010E3AEC06F00D0E97
:1008D0000C6EFC0EE82EFED70C2EFCD7000E0A6E16
:1008E000060E3AEC06F0210EE82EFED700F0000EC0
:1008F0000A6E0C0E3AEC06F0210EE82EFED700F040
:100900001200000E136E11AE06D0106C111ED8B07E
:10091000112A010E136E0FAE06D00E6C0F1ED8B04A
:100920000F2A010E131A000E156E000E146E1050D1
:100930001110D8B41CD0010E126E04D0D89010360D
:100940001136122A11AEFAD7D89014361536105037
:100950000E5C11500F58D8A005D010500E5E1150EB
:100960000F5A1480D89011321032122EEDD7135036
:10097000D8B404D0146C151ED8B0152A14C00EF0CB
:1009800015C00FF0120020EE01F01F50D9262050A4
:10099000DA22010EDF6E20EE01F02150D92622501E
:1009A000DA22000EDF6E000E256E000E246E1FC0D0
:1009B000D9FF20C0DAFF24C0DFFF21C0D9FF22C049
:1009C000DAFF24C0DFFF1FC016F020C017F016ECBE
:1009D00003F021C016F022C017F016EC03F0030E4E
:1009E000236E980EE82EFED7232EFCD7244A252A04
:1009F00025BEDDD7255005E1320E245CD8B01200AB
:100A0000D6D71200096E09C008F0010E08168B50E7
:100A10000818FE0B08188B6E09C008F0D890083231
:100A2000010E08160846084608468B500818F70BB2
:100A300008188B6E09C008F0D8900832D890083298
:100A4000010E08168C500818FE0B08188C6E09C091
:100A500008F0D8900832D8900832D8900832010EA9
:100A6000081608468C500818FD0B08188C6EE1EC2F
:100A700006F0030EE82EFED700F0120020EE01F083
:100A80001F50D9262050DA22010EDF6E20EE01F031
:100A90002150D9262250DA22010EDF6E000E276E79
:100AA000000E266E1AD01FC0D9FF20C0DAFF26C064
:100AB000DFFF21C0D9FF22C0DAFF26C0DFFF1FC041
:100AC00016F020C017F016EC03F021C016F022C07B
:100AD00017F016EC03F0264A272A2350265C2750ED
:100AE000800A256E2450800A2558D8B01200DBD722
:100AF00020EE01F01F50D9262050DA22000EDF6EC2
:100B000020EE01F02150D9262250DA22000EDF6EAD
:100B1000000E276E000E266E1AD01FC0D9FF20C00F
:100B2000DAFF26C0DFFF21C0D9FF22C0DAFF26C0CE
:100B3000DFFF1FC016F020C017F016EC03F021C035
:100B400016F022C017F016EC03F0264A272A23508D
:100B5000265C2750800A256E2450800A2558D8B07C
:100B60001200DBD7000E246E320E236E1FC0D9FF99
:100B700020C0DAFF23C0DFFF21C0D9FF22C0DAFF87
:100B800023C0DFFF1FC016F020C017F016EC03F0E3
:100B900021C016F022C017F016EC03F02306D8A0EF
:100BA000240624BE12002450E1E12304D8A0120040
:100BB000DDD7030E0318D8A402D0010E1200020ED6
:100BC0000318D8A412D0000E496E000E046E045013
:100BD0000124D96E000E0220DA6E000EDF6E042AA8
:100BE0000B0E0464F4D7000E120049500124D96E94
:100BF000000E0220DA6E03C0DFFF492AF4D7BCECF6
:100C000006F0010E69EC06F0000E106E000E0F6E7D
:100C1000010E0A6E0F500D24D96E10500E20DA6EA0
:100C2000DF503AEC06F00F4A102A10BEF1D71050F0
:100C300005E10A0E0F5CD8B01200EAD7120010D0FE
:100C4000010E0A6E0CC0F6FF0DC0F7FF0800F5504C
:100C50003AEC06F00C4A0D2A210EE82EFED700F0E1
:100C60000CC0F6FF0DC0F7FF0800F5500009D8B41E
:100C70001200E6D70B6E0AB002D0899E01D0898E91
:100C80000B380F0B0F0B02EC05F0060EE82EFED70B
:100C900000D00B500F0B02EC05F0210EE82EFED712
:100CA00000F01200720ED36ED3A4FED7F28EF28C37
:100CB000D08E1DEC04F0A2EC06F0C9EC06F0000E9C
:100CC000096EC70E086EAFEC06F09390939495846E
:100CD00012000C6E0C04D8A405D0000E0A6E800E13
:100CE0003AEC06F0020E0C18D8A405D0000E0A6EDD
:100CF000C00E3AEC06F0210EE82EFED700F01200EE
:100D000008500A02F3CF0CF0F4CF0DF008500B029C
:100D1000F3500D2609500A02F3500D260CC008F0BE
:100D20000DC009F0120000EE49F00F0EEE6AE80661
:100D3000FDE158905892000EF86E030EF76E000118
:100D400099EF01F0948ECB0EAF6E000EB06EAA86B6
:100D5000AC84AB88AB8EAC8A9D8A9F8A1200000E51
:100D60007F6E800E7E6E6F0E6F6E000E6E6E08C010
:100D70007BFF09507A6E1200000E0A6E010E3AECEB
:100D800006F00D0E0C6EFC0EE82EFED70C2EFCD7D6
:100D90001200010EB76E9284000EB86E000EB96E8E
:100DA000180E606E470E636E120009BE08D0110E59
:100DB000085C270E0958D8A002D0010E1200000EC0
:100DC0001200898C030EE82EFED700F0899C1200D9
:020000040020DA
:08000000FFFFFFFFFFFFFFFF00
:020000040030CA
:0E000000FFC80F3F3C1D81FF0FC00FE00F40F7
:00000001FF
