:020000040000FA
:0400000053EF00F0CA
:060008005082A4EF08F095
:100018005080D8CF08F0E8CF09F0E0CF0AF0D9CF68
:100028000BF0DACF0CF0F3CF0DF0F4CF0EF0F2A412
:1000380013D04304D8B403D04350D8A40DD0000142
:100048009C51020D740EF324D96E000EF420DA6E62
:10005800DE2A000EDD2212D0F2A410D0020E4318C0
:10006800D8A40CD000019C51020D740EF324D96E53
:10007800000EF420DA6EDE06000EDD5AF2940EC091
:10008800F4FF0DC0F3FF0CC0DAFF0BC0D9FF0AC0A4
:10009800E0FF09C0E8FF08C0D8FF50901000EEEF5D
:0200A80008F05E
:10030000005354415254494E4720534541524348AB
:1003100000544F20535441525420534541524348B6
:1003200000524553455454494E4720524F424F5472
:1003300000434845434B53554D204641494C4544A5
:1003400000434845434B53554D205041535345447A
:10035000004D4F56494E4720544F20424F4D4200CA
:1003600052455455524E494E4720484F4D45004343
:100370007269746963616C204572726F72005052C9
:1003800045535320425554544F4E00534541524318
:1003900048494E4700002FC026F030C027F031C03A
:1003A00028F032C029F033C02AF034C02BF0D8EC4A
:1003B00007F030EC09F0600E136E030E146E89EC3A
:1003C00008F088D020EE3CF03750D9263850DA2299
:1003D000DF50396E39503724D96E000E3820DA6E6E
:1003E000DF50D8A430D02FC026F030C027F031C065
:1003F00028F032C029F033C02AF034C02BF01AECB8
:1004000007F020EE3CF03750D9263850DA22DF5082
:10041000396E3950020D37C03AF038C03BF0F35016
:100420003A26F4503B22140E3A24D96E000E3B209B
:10043000DA6E010EDBBE47D0010EDB50E2E1DE04D6
:10044000D8A041D0DED720EE3CF03750D926385026
:10045000DA22DF50396E39503724D96E000E382039
:10046000DA6EDE04D8A42FD02FC026F030C027F0DB
:1004700031C028F032C029F035C02AF036C02BF048
:10048000D9EC06F020EE3CF03750D9263850DA226D
:10049000DF50396E3950020D37C03AF038C03BF0AA
:1004A000F3503A26F4503B22140E3A24D96E000E33
:1004B0003B20DA6E010EDBBE06D0010EDB50E2E11E
:1004C000DE04D8B0DFD720EE3CF03750D9263850C4
:1004D000DA22DF0620EE3CF03750D9263850DA22F7
:1004E000DF50D8A46FD7030E1200000E2C6E000E42
:1004F0002B6E2B501524D96E2C501620DA6E2F0E31
:10050000DF6418D02B501524D96E2C501620DA6ECB
:100510003A0EDF600FD0190E2B24D96E000E2C205E
:10052000DA6E2B501524E16E2C501620E26EE75047
:10053000D00F20D02B501524D96E2C501620DA6EF7
:10054000400EDF6418D02B501524D96E2C50162085
:10055000DA6E470EDF600FD0190E2B24D96E000E15
:100560002C20DA6E2B501524E16E2C501620E26EF2
:10057000E750C90FDF6E2B4A2C2A2CBEBAD72C505D
:1005800004E10C0E2B5CD8A0B4D71950D8A402D02B
:10059000010E01D0000E1A10256E1B50D8A402D0F7
:1005A000010E01D0000E1C10266E1D50D8A402D0E2
:1005B000010E01D0000E1E10276E1F50D8A402D0CD
:1005C000010E01D0000E2010286E2150D8A402D0B8
:1005D000010E01D0000E2210296E2350D8A402D0A3
:1005E000010E01D0000E24102A6E2550261827185F
:1005F0002818176E186A2A502918D8A402D0010E9C
:1006000001D0000E171A000E181A17501810D8B47F
:100610000AD0020ED7EC08F0410E136E030E146ED2
:1006200089EC08F01200020ED7EC08F0310E136EC0
:10063000030E146E89EC08F012001DC0D9FF1EC015
:10064000DAFFDF501F6E1F500F6E106A20EE07F0AA
:100650001D50D9261E50DA22DECF11F0DDCF12F068
:1006600003EC09F00FC015F010C016F0000E186E64
:10067000640E176E56EC06F015C024F016C025F077
:1006800020EE01F01D50D9261E50DA22DF50D8B4DA
:1006900024D020EE06F01D50D9261E50DA22DF505D
:1006A0001F6E010E206E1F2A02D0D89020361F2EFA
:1006B000FCD720508A108A6E20EE07F01D50D926F4
:1006C0001E50DA22DECF1FF0DDCF20F024501F5C59
:1006D000246E25502058256E14D020EE06F01D50B3
:1006E000D9261E50DA22DF501F6E010E206E1F2AFF
:1006F00002D0D89020361F2EFCD72050FF0A8A1433
:100700008A6E20EE02F01D50D9261E50DA22DECF6E
:100710001FF0DDCF20F01FC0D9FF20C0DAFF244436
:10072000E846FC0BDF6E20EE04F01D50D9261E506B
:10073000DA22DECF1FF0DDCF20F01FC0D9FF20C0AE
:10074000DAFF24C021F025C022F0060E236E2234E9
:1007500022322132232EFBD72150DF6E12006EECA5
:1007600008F0A20E266E000E276EAB0E286E000E4D
:10077000296E30EC04F0000E00019F6F370E9E6F63
:10078000000EA16F5F0EA06F69EC05F04350D8A476
:1007900013D0A20E2F6E000E306EAB0E316E000E17
:1007A000326E9EC033F09FC034F0600E356E000E86
:1007B000366E12EC06F04BD04304D8A417D0A20E2C
:1007C0002F6E000E306EAB0E316E000E326EA0C07A
:1007D00033F0A1C034F0600E356E000E366E9D0E03
:1007E000376E000E386E09EC05F031D0020E43185A
:1007F000D8A417D0A20E2F6E000E306EAB0E316E45
:10080000000E326EA0C033F0A1C034F09EC035F0AF
:100810009FC036F0600E376E000E386ECBEC01F0E4
:1008200016D0030E4318D8A414D0A20E2F6E000EBB
:10083000306EAB0E316E000E326EA0C033F0A1C030
:1008400034F0440E356E000E366EC6EC05F0436E85
:100850009DD76F0E136E030E146E89EC08F096D7B9
:1008600026C0D9FF27C0DAFF000EDF6E20EE01F0B0
:100870002650D9262750DA22010EDF6E20EE02F034
:100880002650D9262750DA22790EDE6E0F0EDD6E45
:1008900020EE04F02650D9262750DA22780EDE6E9C
:1008A0000F0EDD6E20EE06F02650D9262750DA22F4
:1008B000000EDF6E20EE07F02650D9262750DA22F0
:1008C000C70EDE6E000EDD6E28C0D9FF29C0DAFF2C
:1008D000000EDF6E20EE01F02850D9262950DA22D2
:1008E000010EDF6E20EE02F02850D9262950DA22C0
:1008F000770EDE6E0F0EDD6E20EE04F02850D92646
:100900002950DA22760EDE6E0F0EDD6E20EE06F036
:100910002850D9262950DA22020EDF6E20EE07F089
:100920002850D9262950DA22C70EDE6E000EDD6E61
:1009300026C01DF027C01EF01DEC03F028C01DF0DE
:1009400029C01EF01DEC03F012009490929E949624
:1009500095909592929C8C908C928B968B90899C82
:10096000899E270E136EF50EE82EFED7132EFCD7A8
:1009700000F0030E9CEC07F00D0E136EFC0EE82E3B
:10098000FED7132EFCD7030E9CEC07F0850EE82E45
:10099000FED700F0030E9CEC07F0210EE82EFED7E8
:1009A00000F0020E9CEC07F0210EE82EFED700F0BE
:1009B000000E116E280EBFEC08F0210EE82EFED7B7
:1009C00000F0000E116E080EBFEC08F0210EE82EAC
:1009D000FED700F0000E116E010EBFEC08F00D0EF8
:1009E000136EFC0EE82EFED7132EFCD7000E116EF0
:1009F000060EBFEC08F0210EE82EFED700F0000E28
:100A0000116E0C0EBFEC08F0210EE82EFED700F0A0
:100A1000120020EE3CF03550D9263650DA22DF5055
:100A2000396E39503524D96E000E3620DA6E000E3C
:100A3000DF6E2FC026F030C027F031C028F032C062
:100A400029F033C02AF034C02BF05BEC07F030EC17
:100A500009F0510E136E030E146E89EC08F0000EAF
:100A60003F6E000E3E6E685069CF39F03A6A39C069
:100A70003AF0396A39103B6E3A503C6E3BC00FF089
:100A80003CC010F02CEC08F03D6E37C0D9FF38C0E8
:100A9000DAFFDE04D8A402D0020E12003D50D8A422
:100AA00003D03E4A3F2A04D0000E3F6E000E3E6E39
:100AB0003FBED9D7500E3E5C460E3F58D8A0D3D784
:100AC00020EE3CF03550D9263650DA22DF2A000ECF
:100AD0001200000E1B6E000E1A6E685069CF15F0E2
:100AE000166A15C016F0156A1510186E1650196E94
:100AF00018C00FF019C010F02CEC08F01A4A1B2A8D
:100B00001BBEEBD7F40E1A5C010E1B58D8A0E5D71C
:100B100030EC09F0010ED7EC08F07E0E136E030ED8
:100B2000146E89EC08F0020ED7EC08F0110E136E6B
:100B3000030E146E89EC08F083A4FED730EC09F0A4
:100B4000010ED7EC08F0010E136E030E146E89EC43
:100B500008F0000E1D6E000E1C6E020E166E040EC6
:100B6000156EBA0EE82EFED7152EFCD7162EFAD724
:100B700000D01C4A1D2A1DBEF0D71D5004E10A0EEC
:100B80001C5CD8A0EAD730EC09F012002FC026F088
:100B900030C027F031C028F032C029F033C02AF02D
:100BA00034C02BF0D8EC07F035C014F036C015F087
:100BB0004EEC08F035C015F036C016F075EC02F0BA
:100BC00035C0D9FF36C0DAFFDF50D8A426D028D0F0
:100BD00030EC09F0210E136E030E146E89EC08F050
:100BE000000E3A6E000E396E020E386E040E376E2D
:100BF000BA0EE82EFED7372EFCD7382EFAD700D003
:100C0000394A3A2A3ABEF0D73A5004E10A0E395C22
:100C1000D8A0EAD730EC09F0FF0083A4FED7D8D7DC
:100C2000000E120020EE3CF03550D9263650DA2264
:100C3000DF50376E37503524D96E000E3620DA6E0D
:100C4000010EDF6E2FC026F030C027F031C028F033
:100C500032C029F033C02AF034C02BF098EC06F0F3
:100C600030EC09F08B0E136E030E146E89EC08F055
:100C7000685069CF37F0386A37C038F0376A3710B4
:100C8000396E38503A6E39C00FF03AC010F02CEC83
:100C900008F03B6E3B04D8A4EBD720EE3CF0355077
:100CA000D9263650DA22DF2A010E1200000E1A6E03
:100CB00018AE06D0176C181ED8B0182A010E1A6E7E
:100CC00016AE06D0156C161ED8B0162A010E1A1ACA
:100CD000000E1C6E000E1B6E17501810D8B41CD0DE
:100CE000010E196E04D0D89017361836192A18AE8E
:100CF000FAD7D8901B361C361750155C185016586A
:100D0000D8A005D01750155E1850165A1B80D890E1
:100D100018321732192EEDD71A50D8B404D01B6CE4
:100D20001C1ED8B01C2A1BC015F01CC016F01200E7
:100D300020EE01F02650D9262750DA22000EDF6E71
:100D400020EE01F02850D9262950DA22010EDF6E5C
:100D5000000E2E6E000E2D6E21D026C0D9FF27C0AA
:100D6000DAFF2DC0DFFF28C0D9FF29C0DAFF2DC070
:100D7000DFFF26C01DF027C01EF01DEC03F028C0C9
:100D80001DF029C01EF01DEC03F0030E2C6E980E12
:100D9000E82EFED72C2EFCD72D4A2E2A2A502D5C69
:100DA0002E50800A2C6E2B50800A2C58D8B012007E
:100DB000D4D720EE01F02650D9262750DA22010E92
:100DC000DF6E20EE01F02850D9262950DA22000EDD
:100DD000DF6E000E2E6E000E2D6E21D026C0D9FFC4
:100DE00027C0DAFF2DC0DFFF28C0D9FF29C0DAFFF6
:100DF0002DC0DFFF26C01DF027C01EF01DEC03F044
:100E000028C01DF029C01EF01DEC03F0030E2C6E4F
:100E1000980EE82EFED72C2EFCD72D4A2E2A2A50CB
:100E20002D5C2E50800A2C6E2B50800A2C58D8B086
:100E30001200D4D720EE01F02650D9262750DA220E
:100E4000000EDF6E20EE01F02850D9262950DA225C
:100E5000000EDF6E000E2E6E000E2D6E21D026C00D
:100E6000D9FF27C0DAFF2DC0DFFF28C0D9FF29C076
:100E7000DAFF2DC0DFFF26C01DF027C01EF01DECDD
:100E800003F028C01DF029C01EF01DEC03F0030E76
:100E90002C6E980EE82EFED72C2EFCD72D4A2E2A2B
:100EA0002A502D5C2E50800A2C6E2B50800A2C5814
:100EB000D8B01200D4D720EE01F02650D926275002
:100EC000DA22010EDF6E20EE01F02850D9262950DB
:100ED000DA22010EDF6E000E2E6E000E2D6E21D076
:100EE00026C0D9FF27C0DAFF2DC0DFFF28C0D9FFF9
:100EF00029C0DAFF2DC0DFFF26C01DF027C01EF07D
:100F00001DEC03F028C01DF029C01EF01DEC03F0FD
:100F1000030E2C6E980EE82EFED72C2EFCD72D4AF1
:100F20002E2A2A502D5C2E50800A2C6E2B50800ABF
:100F30002C58D8B01200D4D7106E10C00FF0010E8C
:100F40000F168B500F18FE0B0F188B6E10C00FF082
:100F5000D8900F32010E0F160F460F460F468B50DA
:100F60000F18F70B0F188B6E10C00FF0D8900F32C0
:100F7000D8900F32010E0F168C500F18FE0B0F1861
:100F80008C6E10C00FF0D8900F32D8900F32D890DE
:100F90000F32010E0F160F468C500F18FD0B0F1855
:100FA0008C6E47EC09F0030EE82EFED700F012001D
:100FB0002AC02DF02BC02EF02EBE12002E5003E1C1
:100FC0002D04D8A0120026C0D9FF27C0DAFF2DC0FB
:100FD000DFFF28C0D9FF29C0DAFF2DC0DFFF26C000
:100FE0001DF027C01EF01DEC03F028C01DF029C025
:100FF0001EF01DEC03F0030E2C6E980EE82EFED7AB
:101000002C2EFCD72D06D8A02E06D6D7030E0318FB
:10101000D8A402D0010E1200020E0318D8A412D0D8
:10102000000E426E000E046E04500124D96E000EB4
:101030000220DA6E000EDF6E042A0B0E0464F4D771
:10104000000E120042500124D96E000E0220DA6E0A
:1010500003C0DFFF422AF4D740500F5C116E4150AD
:101060001058126ED89012321132D89012321132BA
:1010700040501124406E41501220416E40500F5C90
:10108000136E41501058146E145004E1640E135C3A
:10109000D8A002D0010E1200000E120030EC09F0B0
:1010A000010ED7EC08F0000E176E000E166E010E42
:1010B000116E16501424D96E17501520DA6EDF50B9
:1010C000BFEC08F0164A172A17BEF1D7175005E1F2
:1010D0000A0E165CD8B01200EAD71200720ED36E58
:1010E000D3A4FED7F28EF28CD08EA5EC04F016ECD1
:1010F00009F03DEC09F0000E106EC70E0F6E23ECE8
:1011000009F0939093949584C70ED56EF28AF1946A
:10111000120010D0010E116E13C0F6FF14C0F7FFBD
:101120000800F550BFEC08F0134A142A210EE82EEF
:10113000FED700F013C0F6FF14C0F7FF0800F5500B
:101140000009D8B41200E6D7D9CF05F0DACF06F0FF
:101150009EAA0ED04304D8A40BD0440E016E000EFC
:10116000026EAECF03F006EC08F000019D6F01D0D7
:10117000AE5006C0DAFF05C0D9FF50921100126EC2
:1011800011B002D0899E01D0898E12380F0B0F0B3F
:101190009CEC07F0060EE82EFED700D012500F0B85
:1011A0009CEC07F0210EE82EFED700F01200136E23
:1011B0001304D8A405D0000E116E800EBFEC08F009
:1011C000020E1318D8A405D0000E116EC00EBFEC8D
:1011D00008F0210EE82EFED700F0120000EE60F0BD
:1011E0003E0EEE6AE806FDE100EE40F0100EEE6AFB
:1011F000E806FDE150905092000EF86E030EF76E77
:101200000001AFEF03F00F501102F3CF13F0F4CF52
:1012100014F00F501202F350142610501102F35024
:10122000142613C00FF014C010F01200948ECB0ED1
:10123000AF6E000EB06EAA86AC84AB88AB8EAC8A63
:101240009D8A9F8A1200000E7F6E800E7E6E6F0E4A
:101250006F6E000E6E6E0FC07BFF10507A6E120024
:10126000000E116E010EBFEC08F00D0E136EFC0E99
:10127000E82EFED7132EFCD71200010EB76E928413
:10128000000EB86E000EB96E470E636E1200898CA8
:0C129000030EE82EFED700F0899C12002F
:020000040020DA
:08000000FFFFFFFFFFFFFFFF00
:020000040030CA
:0E000000FFC80F3F3C1D81FF0FC00FE00F40F7
:00000001FF
