:020000040000FA
:0400000013EF00F00A
:06000800378264EF03F0F3
:100018003780E0CF28F028C0E0FF3790100002EFCB
:0200280004F0E2
:1003000000434845434B53554D204641494C4544D5
:1003100000434845434B53554D20504153534544AA
:100320000000000E1E6E000E1D6E1D500724D96EBB
:100330001E500820DA6E2F0EDF6418D01D500724DF
:10034000D96E1E500820DA6E3A0EDF600FD00B0E09
:100350001D24D96E000E1E20DA6E1D500724E16E9A
:100360001E500820E26EE750D00F20D01D50072409
:10037000D96E1E500820DA6E400EDF6418D01D5072
:100380000724D96E1E500820DA6E470EDF600FD0AA
:100390000B0E1D24D96E000E1E20DA6E1D50072490
:1003A000E16E1E500820E26EE750C90FDF6E1D4A55
:1003B0001E2A1EBEBAD71E5004E10C0E1D5CD8A02A
:1003C000B4D70B50D8A402D0010E01D0000E0C10EF
:1003D000176E0D50D8A402D0010E01D0000E0E10E1
:1003E000186E0F50D8A402D0010E01D0000E1010CC
:1003F000196E1150D8A402D0010E01D0000E1210B7
:100400001A6E1350D8A402D0010E01D0000E1410A1
:100410001B6E1550D8A402D0010E01D0000E16108C
:100420001C6E1750181819181A18096E0A6A1C50F1
:100430001B18D8A402D0010E01D0000E091A000E1C
:100440000A1A09500A10D8B40AD0020EEBEC03F0D5
:10045000110E056E030E066EB8EC03F01200020ECC
:10046000EBEC03F0010E056E030E066EB8EC03F024
:10047000120094909492949495909592929C8C9062
:100480008C928B948B928B90899C270E0001646FC9
:10049000F50EE82EFED7642FFCD7030EEAEC02F02F
:1004A0000D0E0001646FFB0EE82EFED7642FFCD703
:1004B00000D0030EEAEC02F0850EE82EFED700F025
:1004C000030EEAEC02F0210EE82EFED700F0020E39
:1004D000EAEC02F0210EE82EFED700F0000E00013B
:1004E000626F280E9CEC03F0210EE82EFED700F080
:1004F000000E0001626F080E9CEC03F0210EE82E46
:10050000FED700F0000E0001626F010E9CEC03F0BC
:100510000D0E0001646FFB0EE82EFED7642FFCD792
:1005200000D0000E0001626F060E9CEC03F0210E5D
:10053000E82EFED700F0000E0001626F0C0E9CEC5E
:1005400003F0210EE82EFED700F01200030E08186B
:10055000D8A420D01EEC04F0010EEBEC03F0000E4A
:100560000A6E000E096E010E036E09500624D96E44
:100570000A500720DA6EDF50D3EC03F0094A0A2A4A
:100580000ABEF1D70A5004E10A0E095CD8A0EBD7E5
:10059000010E1200020E0818D8A412D0000E296E07
:1005A000000E0B6E0B500624D96E000E0720DA6E7B
:1005B000000EDF6E0B2A0B0E0B64F4D7000E120038
:1005C00029500624D96E000E0720DA6E08C0DFFF1E
:1005D000292AF4D70001616F61C060F0010E0001AB
:1005E000601760478B506019FD0B60198B6E61C0FE
:1005F00060F0D8906033010E6017604760478B5001
:100600006019FB0B60198B6E61C060F0D89060338D
:10061000D8906033010E60178C506019FE0B601982
:100620008C6E61C060F0D8906033D8906033D89001
:100630006033010E601760478C506019FD0B601924
:100640008C6E43EC04F0030EE82EFED700F012008F
:10065000026E02C001F0010E011601468B50011816
:10066000FD0B01188B6E02C001F0D8900132010E13
:100670000116014601468B500118FB0B01188B6EC9
:1006800002C001F0D8900132D8900132010E01165B
:100690008C500118FE0B01188C6E02C001F0D8902E
:1006A0000132D8900132D8900132010E0116014674
:1006B0008C500118FD0B01188C6E4AEC04F0030EEF
:1006C000E82EFED700F01200E1CF1FF0E2CF20F0BD
:1006D000D9CF21F0DACF22F0F6CF23F0F7CF24F0F4
:1006E000F8CF25F0F5CF26F09EAA14D02B0E066E7B
:1006F000000E076EAECF08F0A6EC02F0276E2704BE
:10070000D8A408D02B0E076E000E086E91EC01F0F5
:10071000010E2A6E26C0F5FF25C0F8FF24C0F7FFA2
:1007200023C0F6FF22C0DAFF21C0D9FF20C0E2FFBC
:100730001FC0E1FF379211000001636F000162B139
:1007400002D0899C01D0898C000163390F0B0F0BFB
:10075000EAEC02F0060EE82EFED700D0000163514D
:100760000F0BEAEC02F0210EE82EFED700F012008B
:1007700010D0010E036E05C0F6FF06C0F7FF08009B
:10078000F550D3EC03F0054A062A210EE82EFED7D9
:1007900000F005C0F6FF06C0F7FF0800F55000099D
:1007A000D8B41200E6D7046E03B002D0899C01D001
:1007B000898C04380F0B0F0B28EC03F0060EE82E83
:1007C000FED700D004500F0B28EC03F0210EE82ECA
:1007D000FED700F01200056E0504D8A405D0000E67
:1007E000036E800ED3EC03F0020E0518D8A405D0DA
:1007F000000E036EC00ED3EC03F0210EE82EFED7E0
:1008000000F0120000EE29F00E0EEE6AE806FDE19F
:1008100037903792000EF86E030EF76E000111EF5D
:1008200004F02BEC04F02A50D8B4FDD72A04D8B435
:10083000FDD7020E2A18D8A4F6D7FBD7000E036EF8
:10084000010ED3EC03F00D0E056EFC0EE82EFED764
:10085000052EFCD71200720ED36ED3A4FED7F28EF3
:10086000F28CD08E39EC02F037EC04F01200948E4A
:10087000CB0EAF6E000EB06EAA86AC84AB88AB8E8A
:10088000AC8A9D8A12008B80030EE82EFED700F002
:100890008B9012008B80030EE82EFED700F08B9019
:0208A000120044
:020000040020DA
:08000000FFFFFFFFFFFFFFFF00
:020000040030CA
:0E000000FFC80F3F3C1D81FF0FC00FE00F40F7
:00000001FF
