:020000040000FA
:040000001FEF00F0FE
:100008004582D9CF05F0DACF06F09EAA0DD0430479
:10001800D8A40AD0800E016E000E026EAECF03F097
:10002800DFEC06F0446E01D0AE5006C0DAFF05C022
:0A003800D9FF459211006BEF07F0AD
:1003000000524553455454494E4720524F424F5492
:1003100000434845434B53554D204641494C4544C5
:1003200000434845434B53554D205041535345449A
:1003300000437269746963616C204572726F720068
:1003400025750000000E256E000E246E24500E242C
:10035000D96E25500F20DA6E2F0EDF6418D024508E
:100360000E24D96E25500F20DA6E3A0EDF600FD0C2
:10037000120E2424D96E000E2520DA6E24500E248D
:10038000E16E25500F20E26EE750D00F20D02450B0
:100390000E24D96E25500F20DA6E400EDF6418D07F
:1003A00024500E24D96E25500F20DA6E470EDF60E0
:1003B0000FD0120E2424D96E000E2520DA6E2450A0
:1003C0000E24E16E25500F20E26EE750C90FDF6E5C
:1003D000244A252A25BEBAD7255004E10C0E245CF8
:1003E000D8A0B4D71250D8A402D0010E01D0000E6C
:1003F00013101E6E1450D8A402D0010E01D0000EAE
:1004000015101F6E1650D8A402D0010E01D0000E98
:100410001710206E1850D8A402D0010E01D0000E83
:100420001910216E1A50D8A402D0010E01D0000E6E
:100430001B10226E1C50D8A402D0010E01D0000E59
:100440001D10236E1E501F1820182118106E116ADF
:1004500023502218D8A402D0010E01D0000E101A89
:10046000000E111A10501110D8B40AD0020E54EC1C
:1004700007F0210E0C6E030E0D6E27EC06F0120035
:10048000020E54EC07F0110E0C6E030E0D6E27ECED
:1004900006F0120016C0D9FF17C0DAFFDF50186E41
:1004A0001850086E096A20EE07F01650D92617502A
:1004B000DA22DECF0AF0DDCF0BF07EEC07F008C0C9
:1004C0000EF009C00FF0000E116E640E106E7BEC82
:1004D00004F00EC01DF00FC01EF020EE01F016500B
:1004E000D9261750DA22DF50D8B424D020EE06F0F7
:1004F0001650D9261750DA22DF50186E010E196EE9
:10050000182A02D0D8901936182EFCD719508A1004
:100510008A6E20EE07F01650D9261750DA22DECF69
:1005200018F0DDCF19F01D50185C1D6E1E501958C3
:100530001E6E14D020EE06F01650D9261750DA227F
:10054000DF50186E010E196E182A02D0D890193695
:10055000182EFCD71950FF0A8A148A6E20EE02F07A
:100560001650D9261750DA22DECF18F0DDCF19F059
:1005700018C0D9FF19C0DAFF1D44E846FC0BDF6E36
:1005800020EE04F01650D9261750DA22DECF18F0EC
:10059000DDCF19F018C0D9FF19C0DAFF1DC01AF05D
:1005A0001EC01BF0060E1C6E1B341B321A321C2E92
:1005B000FBD71A50DF6E12003DEC07F0940E1F6E51
:1005C000000E206E9D0E216E000E226E5BEC03F07D
:1005D000000E00018D6F4B0E8C6F000E936F4B0E53
:1005E000926F000E8E6F000E8F6F000E906F000ED8
:1005F000916F4350D8A40FD0940E286E000E296E30
:100600009D0E2A6E000E2B6E8CC02CF08DC02DF02E
:10061000F3EC05F047D04304D8A41BD0940E286E09
:10062000000E296E9D0E2A6E000E2B6E92C02CF0CD
:1006300093C02DF08E0E2E6E000E2F6E800E306E3B
:10064000000E316E440E326E000E336EB2EC06F0C8
:1006500029D0020E4318D8A413D0940E286E000E91
:10066000296E9D0E2A6E000E2B6E92C02CF093C048
:100670002DF08E0E2E6E000E2F6E84EC06F012D032
:10068000030E4318D8A410D0940E286E000E296EC5
:100690009D0E2A6E000E2B6E92C02CF093C02DF092
:1006A000BCEC05F0436EA5D7310E0C6E030E0D6E3B
:1006B00027EC06F09ED71FC0D9FF20C0DAFF000E3E
:1006C000DF6E20EE01F01F50D9262050DA22010EF5
:1006D000DF6E20EE02F01F50D9262050DA22790E6C
:1006E000DE6E0F0EDD6E20EE04F01F50D926205076
:1006F000DA22780EDE6E0F0EDD6E20EE06F01F5051
:10070000D9262050DA22000EDF6E20EE07F01F50AF
:10071000D9262050DA22C70EDE6E000EDD6E21C013
:10072000D9FF22C0DAFF000EDF6E20EE01F021506B
:10073000D9262250DA22010EDF6E20EE02F021507F
:10074000D9262250DA22770EDE6E0F0EDD6E20EEF5
:1007500004F02150D9262250DA22760EDE6E0F0EDA
:10076000DD6E20EE06F02150D9262250DA22020E4C
:10077000DF6E20EE07F02150D9262250DA22C70E74
:10078000DE6E000EDD6E1FC016F020C017F04AECC2
:1007900002F021C016F022C017F04AEC02F012005D
:1007A0009490929E949695909592929C8C908C9217
:1007B0008B968B90899C899E270E0C6EF50EE82EE9
:1007C000FED70C2EFCD700F0030E80EC05F00D0ECA
:1007D0000C6EFC0EE82EFED70C2EFCD7030E80EC20
:1007E00005F0850EE82EFED700F0030E80EC05F034
:1007F000210EE82EFED700F0020E80EC05F0210E4F
:10080000E82EFED700F0000E0A6E280E25EC07F049
:10081000210EE82EFED700F0000E0A6E080E25EC21
:1008200007F0210EE82EFED700F0000E0A6E010E32
:1008300025EC07F00D0E0C6EFC0EE82EFED70C2EEC
:10084000FCD7000E0A6E060E25EC07F0210EE82EEE
:10085000FED700F0000E0A6E0C0E25EC07F0210EFC
:10086000E82EFED700F012000AC0D9FF0BC0DAFF55
:10087000DECF14F0DDCF15F00AC0D9FF0BC0DAFFD0
:10088000DECF0CF0DDCF0DF00AC0D9FF0BC0DAFFD0
:10089000DECF0EF0DDCF0FF008C010F009C011F070
:1008A0000E50105E0F50115AD8901130136E103048
:1008B000126E0C5012260D5013220AC0D9FF0BC025
:1008C000DAFF12C0DEFF13C0DDFF0AC0D9FF0BC084
:1008D000DAFFDECF0CF0DDCF0DF014500C5E1550BA
:1008E0000D5AD00E0C5C070E0D58D8A002D0010E88
:1008F0001200000E1200000E136E11AE06D0106C26
:10090000111ED8B0112A010E136E0FAE06D00E6C58
:100910000F1ED8B00F2A010E131A000E156E000E0E
:10092000146E10501110D8B41CD0010E126E04D0E9
:10093000D89010361136122A11AEFAD7D890143644
:10094000153610500E5C11500F58D8A005D010501D
:100950000E5E11500F5A1480D89011321032122EA0
:10096000EDD71350D8B404D0146C151ED8B0152A86
:1009700014C00EF015C00FF0120020EE01F01F5051
:10098000D9262050DA22010EDF6E20EE01F0215030
:10099000D9262250DA22000EDF6E000E276E000EDE
:1009A000266E21D01FC0D9FF20C0DAFF26C0DFFF8E
:1009B00021C0D9FF22C0DAFF26C0DFFF1FC016F01A
:1009C00020C017F04AEC02F021C016F022C017F048
:1009D0004AEC02F0030E256E980EE82EFED7252E67
:1009E000FCD7264A272A2350265C2750800A256EEA
:1009F0002450800A2558D8B01200D4D720EE01F038
:100A00001F50D9262050DA22000EDF6E20EE01F0B2
:100A10002150D9262250DA22000EDF6E000E276EFA
:100A2000000E266E21D01FC0D9FF20C0DAFF26C0DD
:100A3000DFFF21C0D9FF22C0DAFF26C0DFFF1FC0C1
:100A400016F020C017F04AEC02F021C016F022C0C8
:100A500017F04AEC02F0030E256E980EE82EFED732
:100A6000252EFCD7264A272A2350265C2750800AA9
:100A7000256E2450800A2558D8B01200D4D720EE15
:100A800001F01F50D9262050DA22010EDF6E20EE31
:100A900001F02150D9262250DA22010EDF6E000E1D
:100AA000276E000E266E21D01FC0D9FF20C0DAFFAE
:100AB00026C0DFFF21C0D9FF22C0DAFF26C0DFFF3A
:100AC0001FC016F020C017F04AEC02F021C016F04B
:100AD00022C017F04AEC02F0030E256E980EE82EA5
:100AE000FED7252EFCD7264A272A2350265C2750DE
:100AF000800A256E2450800A2558D8B01200D4D719
:100B0000096E09C008F0010E08168B500818FE0B7C
:100B100008188B6E09C008F0D8900832010E08162C
:100B20000846084608468B500818F70B08188B6EC5
:100B300009C008F0D8900832D8900832010E081683
:100B40008C500818FE0B08188C6E09C008F0D8905D
:100B50000832D8900832D8900832010E081608469C
:100B60008C500818FD0B08188C6EC6EC07F0030EAD
:100B7000E82EFED700F0120028C01FF029C020F098
:100B80002AC021F02BC022F02CC023F02DC024F06D
:100B900056EC06F025D0B9EC07F0010E0C6E030EF2
:100BA0000D6E27EC06F0000E316E000E306E020E58
:100BB0002F6E040E2E6EBA0EE82EFED72E2EFCD708
:100BC0002F2EFAD700D0304A312A31BEF0D731501B
:100BD00004E10A0E305CD8A0EAD7B9EC07F0FF00B8
:100BE00083A4FED7D8D728C01FF029C020F02AC080
:100BF00021F02BC022F02CC023F02DC024F0BDEC3E
:100C000004F0685069CF2EF02F6A2EC02FF02E6AA4
:100C10002E10336E2F50346E685069CF2EF02F6A2D
:100C20002EC02FF02E6A2E10306E2F50316E30C035
:100C300008F031C009F0330E0A6E000E0B6E34EC72
:100C400004F0326E3204D8A4E7D7010E12001AD095
:100C5000010E0A6E0CC0F6FF0DC0F7FFF86A020E17
:100C6000F76403D00800F55005D0F6CFE9FFF7CFC1
:100C7000EAFFEF5025EC07F00C4A0D2A210EE82E72
:100C8000FED700F00CC0F6FF0DC0F7FFF86A020EA9
:100C9000F76403D00800F55005D0F6CFE9FFF7CF91
:100CA000EAFFEF500009D8B41200D2D723C026F0D3
:100CB00024C027F027BE1200275003E12604D8A045
:100CC00012001FC0D9FF20C0DAFF26C0DFFF21C0FD
:100CD000D9FF22C0DAFF26C0DFFF1FC016F020C0F8
:100CE00017F04AEC02F021C016F022C017F04AECCF
:100CF00002F0030E256E980EE82EFED7252EFCD7A7
:100D00002606D8A02706D6D728C01FF029C020F075
:100D10002AC021F02BC022F02CC023F02DC024F0DB
:100D2000FEEC04F0000E346E000E356E000E366ED2
:100D3000000E376E07D000D0010E3426000E35228B
:100D4000362237222EC0D9FF2FC0DAFFDE50345CA6
:100D5000DE503558DE503658DE503758D8A0EBD725
:100D6000030E120028C01FF029C020F02AC021F075
:100D70002BC022F02CC023F02DC024F03FEC05F056
:100D800000D02EC0D9FF2FC0DAFFDE2A000EDE22EF
:100D9000DE22DE2232C0D9FF33C0DAFFDE04D8A45F
:100DA000EFD730C00DF031C00EF005EC07F030C0C9
:100DB0000EF031C00FF0A2EC01F0020E1200030E93
:100DC0000318D8A402D0010E1200020E0318D8A4F2
:100DD00012D0000E426E000E046E04500124D96E33
:100DE000000E0220DA6E000EDF6E042A0B0E046481
:100DF000F4D7000E120042500124D96E000E0220DA
:100E0000DA6E03C0DFFF422AF4D7B9EC07F0010E17
:100E100054EC07F0000E106E000E0F6E010E0A6EFD
:100E20000F500D24D96E10500E20DA6EDF5025ECD5
:100E300007F00F4A102A10BEF1D7105005E10A0E34
:100E40000F5CD8B01200EAD712000B6E0AB002D0C5
:100E5000899E01D0898E0B380F0B0F0B80EC05F0AB
:100E6000060EE82EFED700D00B500F0B80EC05F0DD
:100E7000210EE82EFED700F01200720ED36ED3A41E
:100E8000FED7F28EF28CD08ED0EC03F09FEC07F000
:100E900091EC07F0000E096EC70E086EACEC07F07F
:100EA00093909394958412000C6E0C04D8A405D0F2
:100EB000000E0A6E800E25EC07F0020E0C18D8A466
:100EC00005D0000E0A6EC00E25EC07F0210EE82EAC
:100ED000FED700F0120000EE60F02C0EEE6AE8067D
:100EE000FDE100EE38F00D0EEE6AE806FDE14590FA
:100EF0004592000EF86E0001DCEF02F008500A0285
:100F0000F3CF0CF0F4CF0DF008500B02F3500D2688
:100F100009500A02F3500D260CC008F00DC009F06C
:100F20001200010EB76E9284000EB86E000EB96EFC
:100F3000080E606E470E636E695068501200948E02
:100F4000CB0EAF6E000EB06EAA86AC84AB88AB8EB3
:100F5000AC8A9D8A9F8A1200000E7F6E800E7E6E84
:100F60006F0E6F6E000E6E6E08C07BFF09507A6EBA
:100F70001200000E0A6E010E25EC07F00D0E0C6E2D
:100F8000FC0EE82EFED70C2EFCD71200898C030E27
:0A0F9000E82EFED700F0899C120045
:020000040020DA
:08000000FFFFFFFFFFFFFFFF00
:020000040030CA
:0E000000FFC80F3F3C1D81FF0FC00FE00F40F7
:00000001FF
