:020000040000FA
:0400000020EF00F0FD
:100008005782D9CF05F0DACF06F09EAA0ED0560453
:10001800D8A40BD0D20E016E000E026EAECF03F044
:1000280080EC09F00001B16F01D0AE5006C0DAFFD4
:0C00380005C0D9FF579211003DEF0AF0FF
:1003000000434845434B53554D204641494C4544D5
:1003100000434845434B53554D20504153534544AA
:1003200000524553455454494E4720524F424F5472
:0F03300000736D6F6F7468656420257520000081
:10034000FAEC09F09D0E1F6E000E206EA60E216EB7
:10035000000E226E77EC05F0000E0001906F000E8B
:10036000916F000E926F000E936F5650D8A451D02B
:100370009D0E1F6E000E206EA60E216E000E226EC8
:10038000EBEC07F043D0685069CF7EF000017F6B43
:100390007EC07FF07E6B7E11996F7F519A6F99C0FE
:1003A00008F09AC009F096EC0AF00001986F9805E1
:1003B000D8A402D0010E566E7DEC0AF0010E11ECAD
:1003C0000AF0800E00016E6F000E6F6F310E706FBD
:1003D000030E716F99C072F09AC073F030EC09F09F
:1003E000800E0C6E000E0D6ED6EC08F0020E11ECB5
:1003F0000AF0020E00017F6F040E7E6FBA0EE82E27
:10040000FED77E2FFCD77F2FFAD700F05650D8B4F6
:10041000BAD75604D8A432D09D0E1F6E000E206E9F
:10042000A60E216E000E226E66EC08F024D0030E9C
:1004300000017E6F970EE82EFED77E2FFCD700D0EE
:10044000010E00019027000E912392239323B10502
:10045000D8A411D0D20E0D6E000E0E6EA6EC09F0CF
:10046000D20E0E6E000E0F6E3DEC04F0020E566EB4
:10047000000E0001B16F5604D8B4D9D7020E561839
:10048000D8A430D09D0E1F6E000E206EA60E216ED9
:10049000000E226E9EEC08F0000E0001946F000E1C
:1004A000956F000E966F000E976F10D0030E00012F
:1004B0007E6F970EE82EFED77E2FFCD700D0010E60
:1004C00000019427000E9523962397239051945D65
:1004D000915195599251965993519759D8A0E6D771
:1004E000030E566E030E5618D8A43FD79D0E1F6EEE
:1004F000000E206EA60E216E000E226E59EC09F041
:100500002BD07DEC0AF0210E0C6E030E0D6ED6EC96
:1005100008F0000E00019C6F000E9B6F020E0001A0
:100520007F6F040E7E6FBA0EE82EFED77E2FFCD7AB
:100530007F2FFAD700F000019B4B9C2B9CBFEED77E
:100540009C5104E10A0E9B5DD8A0E8D77DEC0AF02F
:10055000000E566E83B4D5D7030E5618D8A405D70F
:10056000F9D752AE539252BE05D0525008E1510411
:10057000D8B005D0000E366E010E356E04D051C0D5
:1005800035F052C036F04FC037F050C038F025C0BB
:1005900039F026C03AF027C03BF028C03CF029C013
:1005A0003DF02AC03EF02BC03FF02CC040F0000EC2
:1005B000426E1F0E416E000E0001D16F76D04106D3
:1005C000D8A04206B20E4124D96E000E4220DA6E47
:1005D00039C008F03AC009F03BC00AF03CC00BF04B
:1005E0003DC00CF03EC00DF03FC00EF040C00FF01B
:1005F0000A0E106E000E116E000E126E000E136EBB
:10060000000E146E000E156E000E166E000E176EA4
:10061000B7EC06F008C02DF009C02EF00AC02FF08C
:100620000BC030F00CC031F00DC032F00EC033F012
:100630000FC034F02D50300FDF6E3506D8A03606CF
:100640003706D8A0380639C008F03AC009F03BC0D8
:100650000AF03CC00BF03DC00CF03EC00DF03FC0B6
:100660000EF040C00FF00A0E106E000E116E000E5C
:10067000126E000E136E000E146E000E156E000E3C
:10068000166E000E176EECEC05F008C039F009C0CC
:100690003AF00AC03BF00BC03CF00CC03DF00DC07E
:1006A0003EF00EC03FF00FC040F041504210D8B4B1
:1006B0001AD039503A103B103C103D103E103F10FC
:1006C0004010D8A47CD736BE05D0365002E13504A0
:1006D000D8B075D738BE07D0385003E13704D8A05A
:1006E00002D053B26CD723C018F024C019F0B20E58
:1006F00041241A6E000E42201B6E37C01CF038C019
:100700001DF05EEC07F018C023F019C024F01200B1
:1007100045C0D9FF46C0DAFFDECFF6FFDDCFF7FFD9
:100720000800F550250AD8A48ED045C0D9FF46C090
:10073000DAFFDE2A000EDD22000E506E000E4F6E34
:100740004FC053F050C054F05168526845C0D9FFB3
:1007500046C0DAFFDECFF6FFDDCFF7FF0800F55029
:10076000750AD8A441D045C0D9FF46C0DAFFDE2AB9
:10077000000EDD2247C0D9FF48C0DAFFDFCF49F0C5
:10078000020EDE26DFCF4AF0000EDD2249C0D9FF7F
:100790004AC0DAFFDECF4BF0DDCF4CF04BC060F04B
:1007A0004CC061F00001626B636B646B656B666BE0
:1007B000676B43C023F044C024F060C025F061C0E3
:1007C00026F062C027F063C028F064C029F065C03D
:1007D0002AF066C02BF067C02CF0B1EC02F023C009
:1007E00043F024C044F0120045C0D9FF46C0DAFFF0
:1007F000DECFF6FFDDCFF7FF0800F550250AD8A4BD
:1008000016D045C0D9FF46C0DAFFDE2A000EDD2231
:10081000000E096E250E086E43C00AF044C00BF0AE
:100820000EEC07F0000E446E010E436E120045C040
:10083000D9FF46C0DAFFDE2A000EDD22000E446E2C
:10084000000E436E120045C0D9FF46C0DAFFDECF6E
:10085000F6FFDDCFF7FF0800F550086E096A43C0C8
:100860000AF044C00BF00EEC07F045C0D9FF46C0BB
:10087000DAFFDE2A000EDD22D5D7000E256E000E2F
:10088000246E24500E24D96E25500F20DA6E2F0EC0
:10089000DF6418D024500E24D96E25500F20DA6E54
:1008A0003A0EDF600FD0120E2424D96E000E2520E0
:1008B000DA6E24500E24E16E25500F20E26EE750D0
:1008C000D00F20D024500E24D96E25500F20DA6E80
:1008D000400EDF6418D024500E24D96E25500F200E
:1008E000DA6E470EDF600FD0120E2424D96E000E90
:1008F0002520DA6E24500E24E16E25500F20E26E82
:10090000E750C90FDF6E244A252A25BEBAD72550E5
:1009100004E10C0E245CD8A0B4D71250D8A402D0A5
:10092000010E01D0000E13101E6E1450D8A402D078
:10093000010E01D0000E15101F6E1650D8A402D063
:10094000010E01D0000E1710206E1850D8A402D04E
:10095000010E01D0000E1910216E1A50D8A402D039
:10096000010E01D0000E1B10226E1C50D8A402D024
:10097000010E01D0000E1D10236E1E501F182018EE
:100980002118106E116A23502218D8A402D0010E2B
:1009900001D0000E101A000E111A10501110D8B408
:1009A0000AD0020E11EC0AF0110E0C6E030E0D6E41
:1009B000D6EC08F01200020E11EC0AF0010E0C6EDB
:1009C000030E0D6ED6EC08F0120016C0D9FF17C04A
:1009D000DAFFDF50186E1850086E096A20EE07F033
:1009E0001650D9261750DA22DECF0AF0DDCF0BF0F1
:1009F00050EC0AF008C00EF009C00FF0000E116EA6
:100A0000640E106EA9EC07F00EC01DF00FC01EF0B2
:100A100020EE01F01650D9261750DA22DF50D8B454
:100A200024D020EE06F01650D9261750DA22DF50D7
:100A3000186E010E196E182A02D0D8901936182E89
:100A4000FCD719508A108A6E20EE07F01650D9266E
:100A50001750DA22DECF18F0DDCF19F01D50185CE8
:100A60001D6E1E5019581E6E14D020EE06F0165042
:100A7000D9261750DA22DF50186E010E196E182A87
:100A800002D0D8901936182EFCD71950FF0A8A14B4
:100A90008A6E20EE02F01650D9261750DA22DECFE9
:100AA00018F0DDCF19F018C0D9FF19C0DAFF1D44C6
:100AB000E846FC0BDF6E20EE04F01650D9261750E6
:100AC000DA22DECF18F0DDCF19F018C0D9FF19C037
:100AD000DAFF1DC01AF01EC01BF0060E1C6E1B3480
:100AE0001B321A321C2EFBD71A50DF6E12001FC0A9
:100AF000D9FF20C0DAFF000EDF6E20EE01F01F509C
:100B0000D9262050DA22010EDF6E20EE02F01F50AF
:100B1000D9262050DA22790EDE6E0F0EDD6E20EE21
:100B200004F01F50D9262050DA22780EDE6E0F0E08
:100B3000DD6E20EE06F01F50D9262050DA22000E7E
:100B4000DF6E20EE07F01F50D9262050DA22C70EA4
:100B5000DE6E000EDD6E21C0D9FF22C0DAFF000E6E
:100B6000DF6E20EE01F02150D9262250DA22010E4C
:100B7000DF6E20EE02F02150D9262250DA22770EC5
:100B8000DE6E0F0EDD6E20EE04F02150D9262250CD
:100B9000DA22760EDE6E0F0EDD6E20EE06F02150AC
:100BA000D9262250DA22020EDF6E20EE07F0215005
:100BB000D9262250DA22C70EDE6E000EDD6E1FC06F
:100BC00016F020C017F0E5EC04F021C016F022C0AA
:100BD00017F0E5EC04F0120020EE18F0070EDE6AC4
:100BE000E806FDE210501110121013101410151029
:100BF00016101710D8B446D0010E206E0AD0D89027
:100C00001036113612361336143615361636173698
:100C1000202A17AEF4D7D890183619361A361B3654
:100C20001C361D361E361F361050085C11500958F0
:100C300012500A5813500B5814500C5815500D5898
:100C400016500E5817500F58D8A011D01050085EEB
:100C50001150095A12500A5A13500B5A14500C5A78
:100C600015500D5A16500E5A17500F5A1880D8901A
:100C70001732163215321432133212321132103248
:100C8000202EC9D718C008F019C009F01AC00AF000
:100C90001BC00BF01CC00CF01DC00DF01EC00EF0F0
:100CA0001FC00FF012009490929E9496959095928A
:100CB000929C8C908C928B968B90899C899E270E0F
:100CC0000C6EF50EE82EFED70C2EFCD700F0030EAE
:100CD0002AEC08F00D0E0C6EFC0EE82EFED70C2E42
:100CE000FCD7030E2AEC08F0850EE82EFED700F0A4
:100CF000030E2AEC08F0210EE82EFED700F0020EBB
:100D00002AEC08F0210EE82EFED700F0000E0A6E45
:100D1000280EE2EC09F0210EE82EFED700F0000EBE
:100D20000A6E080EE2EC09F0210EE82EFED700F064
:100D3000000E0A6E010EE2EC09F00D0E0C6EFC0EB8
:100D4000E82EFED70C2EFCD7000E0A6E060EE2EC43
:100D500009F0210EE82EFED700F0000E0A6E0C0EF0
:100D6000E2EC09F0210EE82EFED700F01200105040
:100D70001110121013101410151016101710D8B4EB
:100D80003CD0010E186E0AD0D890103611361236AB
:100D900013361436153616361736182A17AEF4D70A
:100DA0001050085C1150095812500A5813500B5833
:100DB00014500C5815500D5816500E5817500F5807
:100DC000D8A010D01050085E1150095A12500A5A7B
:100DD00013500B5A14500C5A15500D5A16500E5AE7
:100DE00017500F5AD8901732163215321432133268
:100DF000123211321032182ED3D708C008F009C0B1
:100E000009F00AC00AF00BC00BF00CC00CF00DC0CA
:100E10000DF00EC00EF00FC00FF012000A500B10B4
:100E2000D8B404D00A500B10D8A404D00850A9ECB0
:100E30000AF0120020EE04F00A50D9260B50DA22F4
:100E4000DE50DE10D8B416D020EE04F00A50D926B9
:100E50000B50DA2210EE02F00A50E1260B50E2228B
:100E6000DE50E65CE650800A106EDE50800A1058B4
:100E7000D8B0120020EE02F00A50D9260B50DA2228
:100E8000DECF0CF0DDCF0DF00AC0D9FF0BC0DAFFCA
:100E9000DECF0EF0DDCF0FF00C500E24D96E0D50CA
:100EA0000F20DA6E08C0DFFF20EE02F00A50D926CC
:100EB0000B50DA22DE2A000EDD22120053A00AD0E7
:100EC0001AC011F01BC012F018C013F019C014F0B2
:100ED000C6EC09F01DBE05D01CC021F01DC022F0DB
:100EE00004D0000E226E000E216E000E206E000E49
:100EF0001F6E0CD0000E096E200E086E18C00AF08E
:100F000019C00BF00EEC07F01F4A202A21501F5C7D
:100F10002050800A1E6E2250800A1E58D8A0EAD7A0
:100F200053B00AD01AC011F01BC012F018C013F051
:100F300019C014F0C6EC09F01AC008F01BC009F083
:100F400028EC0AF021500824186E22500920196E4E
:100F50001200000E136E11AE06D0106C111ED8B028
:100F6000112A010E136E0FAE06D00E6C0F1ED8B0F4
:100F70000F2A010E131A000E156E000E146E10507B
:100F80001110D8B41CD0010E126E04D0D8901036B7
:100F90001136122A11AEFAD7D890143615361050E1
:100FA0000E5C11500F58D8A005D010500E5E115095
:100FB0000F5A1480D89011321032122EEDD71350E0
:100FC000D8B404D0146C151ED8B0152A14C00EF075
:100FD00015C00FF0120020EE01F01F50D92620504E
:100FE000DA22010EDF6E20EE01F02150D9262250C8
:100FF000DA22000EDF6E000E256E000E246E1FC07A
:10100000D9FF20C0DAFF24C0DFFF21C0D9FF22C0F2
:10101000DAFF24C0DFFF1FC016F020C017F0E5EC98
:1010200004F021C016F022C017F0E5EC04F0030E26
:10103000236E980EE82EFED7232EFCD7244A252AAD
:1010400025BEDDD7255005E1320E245CD8B0120054
:10105000D6D71200096E09C008F0010E08168B5091
:101060000818FE0B08188B6E09C008F0D8900832DB
:10107000010E08160846084608468B500818F70B5C
:1010800008188B6E09C008F0D8900832D890083242
:10109000010E08168C500818FE0B08188C6E09C03B
:1010A00008F0D8900832D8900832D8900832010E53
:1010B000081608468C500818FD0B08188C6EA2EC18
:1010C0000AF0030EE82EFED700F0120020EE01F029
:1010D0001F50D9262050DA22010EDF6E20EE01F0DB
:1010E0002150D9262250DA22010EDF6E000E246E26
:1010F000000E236E1FC0D9FF20C0DAFF23C0DFFF20
:1011000021C0D9FF22C0DAFF23C0DFFF1FC016F0C5
:1011100020C017F0E5EC04F021C016F022C017F053
:10112000E5EC04F0234A242A24BEE4D7245005E148
:10113000320E235CD8B01200DDD7120020EE01F091
:101140001F50D9262050DA22000EDF6E20EE01F06B
:101150002150D9262250DA22000EDF6E000E246EB6
:10116000000E236E1FC0D9FF20C0DAFF23C0DFFFAF
:1011700021C0D9FF22C0DAFF23C0DFFF1FC016F055
:1011800020C017F0E5EC04F021C016F022C017F0E3
:10119000E5EC04F0234A242A24BEE4D7245005E1D8
:1011A000320E235CD8B01200DDD712001AD0010E27
:1011B0000A6E0CC0F6FF0DC0F7FFF86A020EF76466
:1011C00003D00800F55005D0F6CFE1FFF7CFE2FFDE
:1011D000E750E2EC09F00C4A0D2A210EE82EFED76A
:1011E00000F00CC0F6FF0DC0F7FFF86A020EF764BE
:1011F00003D00800F55005D0F6CFE1FFF7CFE2FFAE
:10120000E7500009D8B41200D2D76AC04DF06BC0C5
:101210004EF0000E0001B06F000EAF6F13D068C02B
:1012200043F069C044F04D0E456E000E466E6CC032
:1012300047F06DC048F088EC03F043500001AF2741
:101240004450B0234DC0F6FF4EC0F7FF0800F550E4
:101250000009D8A4E4D7AFC068F0B0C069F01200AC
:10126000720E0001766F000E776F6EC078F06FC05F
:1012700079F0000E7B6F000E7A6F000E7D6F000E0E
:101280007C6F780E686F000E696F70C06AF071C075
:101290006BF0760E6C6F000E6D6F05EC09F00001BF
:1012A0007A516E25D96E7B516F21DA6E000EDF6E9A
:1012B0001200000E246E320E236E1FC0D9FF20C014
:1012C000DAFF23C0DFFF21C0D9FF22C0DAFF23C02D
:1012D000DFFF1FC016F020C017F0E5EC04F021C0BE
:1012E00016F022C017F0E5EC04F02306D8A024067F
:1012F00024BE12002450E1E12304D8A01200DDD75F
:10130000030E0318D8A402D0010E1200020E031817
:10131000D8A412D0000E556E000E046E04500124A5
:10132000D96E000E0220DA6E000EDF6E042A0B0E5C
:101330000464F4D7000E120055500124D96E000E3B
:101340000220DA6E03C0DFFF552AF4D77DEC0AF0E5
:10135000010E11EC0AF0000E106E000E0F6E010E61
:101360000A6E0F500D24D96E10500E20DA6EDF5029
:10137000E2EC09F00F4A102A10BEF1D7105005E137
:101380000A0E0F5CD8B01200EAD71200000E176EDA
:10139000000E166E0BD015C008F0096A13C00AF0D3
:1013A00014C00BF00EEC07F0164A172A1650112441
:1013B000D96E17501220DA6EDF50156E1550D8B462
:1013C0001200E9D70B6E0AB002D0899E01D0898E37
:1013D0000B380F0B0F0B2AEC08F0060EE82EFED789
:1013E00000D00B500F0B2AEC08F0210EE82EFED790
:1013F00000F01200720ED36ED3A4FED7F28EF28CE0
:10140000D08E53EC06F063EC0AF08AEC0AF0000E82
:10141000096EC70E086E70EC0AF093909394958451
:1014200012000C6E0C04D8A405D0000E0A6E800EBB
:10143000E2EC09F0020E0C18D8A405D0000E0A6EDA
:10144000C00EE2EC09F0210EE82EFED700F01200EB
:1014500008C00AF009C00BF002D0084A092A08C0E7
:10146000D9FF09C0DAFFDF50D8A4F7D70A50085CCB
:10147000086E0B500958096E120000EEAFF02F0EE7
:10148000EE6AE806FDE100EE4FF0080EEE6AE806AF
:10149000FDE157905792000EF86E0001A0EF01F0A9
:1014A00008500A02F3CF0CF0F4CF0DF008500B02F5
:1014B000F3500D2609500A02F3500D260CC008F017
:1014C0000DC009F01200948ECB0EAF6E000EB06E00
:1014D000AA86AC84AB88AB8EAC8A9D8A9F8A1200A8
:1014E000000E7F6E800E7E6E6F0E6F6E000E6E6E43
:1014F00008C07BFF09507A6E1200000E0A6E010EC2
:10150000E2EC09F00D0E0C6EFC0EE82EFED70C2E50
:10151000FCD71200010EB76E9284000EB86E000E5A
:10152000B96E180E606E470E636E120009BE08D0C9
:10153000110E085C270E0958D8A002D0010E120027
:10154000000E1200898C030EE82EFED700F0899C55
:041550001200120073
:020000040020DA
:08000000FFFFFFFFFFFFFFFF00
:020000040030CA
:0E000000FFC80F3F3C1D81FF0FC00FE00F40F7
:00000001FF
