:020000040000FA
:040000001FEF00F0FE
:100008004582D9CF05F0DACF06F09EAA0DD0430479
:10001800D8A40AD0800E016E000E026EAECF03F097
:1000280033EC07F0446E01D0AE5006C0DAFF05C0CD
:0A003800D9FF45921100BFEF07F059
:10030000005354415254494E4720534541524348AB
:1003100000544F20535441525420534541524348B6
:1003200000524553455454494E4720524F424F5472
:1003300000434845434B53554D204641494C4544A5
:1003400000434845434B53554D205041535345447A
:1003500000437269746963616C204572726F720048
:10036000505245535320425554544F4E002575006A
:01037000008C
:10037200000E256E000E246E24500E24D96E2550D8
:100382000F20DA6E2F0EDF6418D024500E24D96E9F
:1003920025500F20DA6E3A0EDF600FD0120E2424A1
:1003A200D96E000E2520DA6E24500E24E16E2550FF
:1003B2000F20E26EE750D00F20D024500E24D96EC9
:1003C20025500F20DA6E400EDF6418D024500E2420
:1003D200D96E25500F20DA6E470EDF600FD0120E55
:1003E2002424D96E000E2520DA6E24500E24E16EEC
:1003F20025500F20E26EE750C90FDF6E244A252AEE
:1004020025BEBAD7255004E10C0E245CD8A0B4D77F
:100412001250D8A402D0010E01D0000E13101E6E8D
:100422001450D8A402D0010E01D0000E15101F6E78
:100432001650D8A402D0010E01D0000E1710206E63
:100442001850D8A402D0010E01D0000E1910216E4E
:100452001A50D8A402D0010E01D0000E1B10226E39
:100462001C50D8A402D0010E01D0000E1D10236E24
:100472001E501F1820182118106E116A23502218BE
:10048200D8A402D0010E01D0000E101A000E111ACB
:1004920010501110D8B40AD0020EA8EC07F0410E89
:1004A2000C6E030E0D6E7BEC06F01200020EA8EC31
:1004B20007F0310E0C6E030E0D6E7BEC06F012008F
:1004C20016C0D9FF17C0DAFFDF50186E1850086E39
:1004D200096A20EE07F01650D9261750DA22DECF2D
:1004E2000AF0DDCF0BF0D2EC07F008C00EF009C025
:1004F2000FF0000E116E640E106E94EC04F00EC03C
:100502001DF00FC01EF020EE01F01650D926175034
:10051200DA22DF50D8B424D020EE06F01650D926C5
:100522001750DA22DF50186E010E196E182A02D007
:10053200D8901936182EFCD719508A108A6E20EEE0
:1005420007F01650D9261750DA22DECF18F0DDCF89
:1005520019F01D50185C1D6E1E5019581E6E14D0D5
:1005620020EE06F01650D9261750DA22DF50186E08
:10057200010E196E182A02D0D8901936182EFCD7FF
:100582001950FF0A8A148A6E20EE02F01650D926FC
:100592001750DA22DECF18F0DDCF19F018C0D9FFDC
:1005A20019C0DAFF1D44E846FC0BDF6E20EE04F0B2
:1005B2001650D9261750DA22DECF18F0DDCF19F007
:1005C20018C0D9FF19C0DAFF1DC01AF01EC01BF0F7
:1005D200060E1C6E1B341B321A321C2EFBD71A500D
:1005E200DF6E120091EC07F0940E1F6E000E206E6B
:1005F2009D0E216E000E226E74EC03F0000E0001BF
:100602008D6F4B0E8C6F000E936F4B0E926F000E20
:100612008E6F000E8F6F000E906F000E916FD5ECF3
:1006220005F04350D8A40FD0940E286E000E296E08
:100632009D0E2A6E000E2B6E8CC02CF08DC02DF0FC
:1006420047EC06F047D04304D8A41BD0940E286E82
:10065200000E296E9D0E2A6E000E2B6E92C02CF09B
:1006620093C02DF08E0E2E6E000E2F6E800E306E09
:10067200000E316E440E326E000E336E06EC07F041
:1006820029D0020E4318D8A413D0940E286E000E5F
:10069200296E9D0E2A6E000E2B6E92C02CF093C016
:1006A2002DF08E0E2E6E000E2F6ED8EC06F012D0AC
:1006B200030E4318D8A410D0940E286E000E296E93
:1006C2009D0E2A6E000E2B6E92C02CF093C02DF060
:1006D20010EC06F0436EA5D7510E0C6E030E0D6E94
:1006E2007BEC06F09ED71FC0D9FF20C0DAFF000EB8
:1006F200DF6E20EE01F01F50D9262050DA22010EC3
:10070200DF6E20EE02F01F50D9262050DA22790E39
:10071200DE6E0F0EDD6E20EE04F01F50D926205043
:10072200DA22780EDE6E0F0EDD6E20EE06F01F501E
:10073200D9262050DA22000EDF6E20EE07F01F507D
:10074200D9262050DA22C70EDE6E000EDD6E21C0E1
:10075200D9FF22C0DAFF000EDF6E20EE01F0215039
:10076200D9262250DA22010EDF6E20EE02F021504D
:10077200D9262250DA22770EDE6E0F0EDD6E20EEC3
:1007820004F02150D9262250DA22760EDE6E0F0EA8
:10079200DD6E20EE06F02150D9262250DA22020E1A
:1007A200DF6E20EE07F02150D9262250DA22C70E42
:1007B200DE6E000EDD6E1FC016F020C017F061EC79
:1007C20002F021C016F022C017F061EC02F0120014
:1007D2009490929E949695909592929C8C908C92E5
:1007E2008B968B90899C899E270E0C6EF50EE82EB7
:1007F200FED70C2EFCD700F0030E99EC05F00D0E7F
:100802000C6EFC0EE82EFED70C2EFCD7030E99ECD4
:1008120005F0850EE82EFED700F0030E99EC05F0E8
:10082200210EE82EFED700F0020E99EC05F0210E03
:10083200E82EFED700F0000E0A6E280E79EC07F0C3
:10084200210EE82EFED700F0000E0A6E080E79EC9B
:1008520007F0210EE82EFED700F0000E0A6E010E00
:1008620079EC07F00D0E0C6EFC0EE82EFED70C2E66
:10087200FCD7000E0A6E060E79EC07F0210EE82E68
:10088200FED700F0000E0A6E0C0E79EC07F0210E76
:10089200E82EFED700F012000AC0D9FF0BC0DAFF23
:1008A200DECF14F0DDCF15F00AC0D9FF0BC0DAFF9E
:1008B200DECF0CF0DDCF0DF00AC0D9FF0BC0DAFF9E
:1008C200DECF0EF0DDCF0FF008C010F009C011F03E
:1008D2000E50105E0F50115AD8901130136E103016
:1008E200126E0C5012260D5013220AC0D9FF0BC0F3
:1008F200DAFF12C0DEFF13C0DDFF0AC0D9FF0BC052
:10090200DAFFDECF0CF0DDCF0DF014500C5E155087
:100912000D5AD00E0C5C070E0D58D8A002D0010E55
:100922001200000E1200000E136E11AE06D0106CF3
:10093200111ED8B0112A010E136E0FAE06D00E6C26
:100942000F1ED8B00F2A010E131A000E156E000EDC
:10095200146E10501110D8B41CD0010E126E04D0B7
:10096200D89010361136122A11AEFAD7D890143612
:10097200153610500E5C11500F58D8A005D01050EB
:100982000E5E11500F5A1480D89011321032122E6E
:10099200EDD71350D8B404D0146C151ED8B0152A54
:1009A20014C00EF015C00FF0120020EE01F01F501F
:1009B200D9262050DA22010EDF6E20EE01F02150FE
:1009C200D9262250DA22000EDF6E000E276E000EAC
:1009D200266E21D01FC0D9FF20C0DAFF26C0DFFF5C
:1009E20021C0D9FF22C0DAFF26C0DFFF1FC016F0E8
:1009F20020C017F061EC02F021C016F022C017F0FF
:100A020061EC02F0030E256E980EE82EFED7252E1D
:100A1200FCD7264A272A2350265C2750800A256EB7
:100A22002450800A2558D8B01200D4D720EE01F005
:100A32001F50D9262050DA22000EDF6E20EE01F080
:100A42002150D9262250DA22000EDF6E000E276EC8
:100A5200000E266E21D01FC0D9FF20C0DAFF26C0AB
:100A6200DFFF21C0D9FF22C0DAFF26C0DFFF1FC08F
:100A720016F020C017F061EC02F021C016F022C07F
:100A820017F061EC02F0030E256E980EE82EFED7E9
:100A9200252EFCD7264A272A2350265C2750800A77
:100AA200256E2450800A2558D8B01200D4D720EEE3
:100AB20001F01F50D9262050DA22010EDF6E20EEFF
:100AC20001F02150D9262250DA22010EDF6E000EEB
:100AD200276E000E266E21D01FC0D9FF20C0DAFF7C
:100AE20026C0DFFF21C0D9FF22C0DAFF26C0DFFF08
:100AF2001FC016F020C017F061EC02F021C016F002
:100B020022C017F061EC02F0030E256E980EE82E5B
:100B1200FED7252EFCD7264A272A2350265C2750AB
:100B2200800A256E2450800A2558D8B01200D4D7E6
:100B3200096E09C008F0010E08168B500818FE0B4A
:100B420008188B6E09C008F0D8900832010E0816FA
:100B52000846084608468B500818F70B08188B6E93
:100B620009C008F0D8900832D8900832010E081651
:100B72008C500818FE0B08188C6E09C008F0D8902B
:100B82000832D8900832D8900832010E081608466A
:100B92008C500818FD0B08188C6E1AEC08F0030E26
:100BA200E82EFED700F012000DEC08F0010EA8ECC2
:100BB20007F0600E0C6E030E0D6E7BEC06F0020E5B
:100BC200A8EC07F0110E0C6E030E0D6E7BEC06F016
:100BD20083A4FED70DEC08F0010E0C6E030E0D6E11
:100BE2007BEC06F0000E116E000E106E020E0F6E00
:100BF200040E0E6EBA0EE82EFED70E2EFCD70F2E66
:100C0200FAD700D0104A112A11BEF0D7115004E1D0
:100C12000A0E105CD8A0EAD70DEC08F0120028C02A
:100C22001FF029C020F02AC021F02BC022F02CC0D6
:100C320023F02DC024F0AAEC06F025D00DEC08F02C
:100C4200210E0C6E030E0D6E7BEC06F0000E316E63
:100C5200000E306E020E2F6E040E2E6EBA0EE82EAD
:100C6200FED72E2EFCD72F2EFAD700D0304A312AAB
:100C720031BEF0D7315004E10A0E305CD8A0EAD779
:100C82000DEC08F0FF0083A4FED7D8D728C01FF0D0
:100C920029C020F02AC021F02BC022F02CC023F062
:100CA2002DC024F0D6EC04F0685069CF2EF02F6AE4
:100CB2002EC02FF02E6A2E10336E2F50346E6850D5
:100CC20069CF2EF02F6A2EC02FF02E6A2E10306EB2
:100CD2002F50316E30C008F031C009F0330E0A6E69
:100CE200000E0B6E4DEC04F0326E3204D8A4E7D73E
:100CF200010E12001AD0010E0A6E0CC0F6FF0DC0D2
:100D0200F7FFF86A020EF76403D00800F55005D029
:100D1200F6CFE9FFF7CFEAFFEF5079EC07F00C4A84
:100D22000D2A210EE82EFED700F00CC0F6FF0DC0F2
:100D3200F7FFF86A020EF76403D00800F55005D0F9
:100D4200F6CFE9FFF7CFEAFFEF500009D8B412005F
:100D5200D2D723C026F024C027F027BE1200275086
:100D620003E12604D8A012001FC0D9FF20C0DAFF79
:100D720026C0DFFF21C0D9FF22C0DAFF26C0DFFF75
:100D82001FC016F020C017F061EC02F021C016F06F
:100D920022C017F061EC02F0030E256E980EE82EC9
:100DA200FED7252EFCD72606D8A02706D6D728C0E0
:100DB2001FF029C020F02AC021F02BC022F02CC045
:100DC20023F02DC024F017EC05F0000E346E000E57
:100DD200356E000E366E000E376E07D000D0010E53
:100DE2003426000E3522362237222EC0D9FF2FC0DC
:100DF200DAFFDE50345CDE503558DE503658DE50B5
:100E02003758D8A0EBD7030E120028C01FF029C014
:100E120020F02AC021F02BC022F02CC023F02DC0DC
:100E220024F058EC05F000D02EC0D9FF2FC0DAFF15
:100E3200DE2A000EDE22DE22DE2232C0D9FF33C0DD
:100E4200DAFFDE04D8A4EFD730C00DF031C00EF0C7
:100E520059EC07F030C00EF031C00FF0B9EC01F0E0
:100E6200020E1200030E0318D8A402D0010E1200C3
:100E7200020E0318D8A412D0000E426E000E046EA9
:100E820004500124D96E000E0220DA6E000EDF6ECD
:100E9200042A0B0E0464F4D7000E120042500124FF
:100EA200D96E000E0220DA6E03C0DFFF422AF4D7A9
:100EB2000DEC08F0010EA8EC07F0000E106E000E0B
:100EC2000F6E010E0A6E0F500D24D96E10500E20B7
:100ED200DA6EDF5079EC07F00F4A102A10BEF1D714
:100EE200105005E10A0E0F5CD8B01200EAD71200CA
:100EF2000B6E0AB002D0899E01D0898E0B380F0B7F
:100F02000F0B99EC05F0060EE82EFED700D00B5021
:100F12000F0B99EC05F0210EE82EFED700F012001F
:100F2200720ED36ED3A4FED7F28EF28CD08EE9EC81
:100F320003F0F3EC07F0E5EC07F0000E096EC70EC4
:100F4200086E00EC08F093909394958412000C6E56
:100F52000C04D8A405D0000E0A6E800E79EC07F0BE
:100F6200020E0C18D8A405D0000E0A6EC00E79EC41
:100F720007F0210EE82EFED700F0120000EE60F01E
:100F82002C0EEE6AE806FDE100EE38F00D0EEE6A78
:100F9200E806FDE145904592000EF86E0001F3EF80
:100FA20002F008500A02F3CF0CF0F4CF0DF0085013
:100FB2000B02F3500D2609500A02F3500D260CC005
:100FC20008F00DC009F01200010EB76E9284000EF7
:100FD200B86E000EB96E080E606E470E636E6950F1
:100FE20068501200948ECB0EAF6E000EB06EAA86C1
:100FF200AC84AB88AB8EAC8A9D8A9F8A1200000EAD
:101002007F6E800E7E6E6F0E6F6E000E6E6E08C06B
:101012007BFF09507A6E1200000E0A6E010E79EC07
:1010220007F00D0E0C6EFC0EE82EFED70C2EFCD730
:101032001200898C030EE82EFED700F0899C120064
:020000040020DA
:08000000FFFFFFFFFFFFFFFF00
:020000040030CA
:0E000000FFC80F3F3C1D81FF0FC00FE00F40F7
:00000001FF
