:020000040000FA
:0400000013EF00F00A
:060008003982B3EF0AF09B
:100018003980E0CF60F060C0E0FF39901000BEEF9B
:020028000CF0DA
:1003000000434845434B53554D204641494C4544D5
:1003100000434845434B53554D20504153534544AA
:1003200000524553455454494E4720524F424F5472
:10033000007261772064757479206379636C65005D
:1003400025752073000000017251800B7B6F725184
:100350007225816F71BF81818151D8B40DD08129FF
:10036000D8A408D0000E6F6F000E706F000E716F72
:10037000000E726F718F08D0000E6F6F000E706FDD
:10038000000E716F000E726F7651800B7B1B7651E1
:100390007625806F75BF80818051D8B40DD08029BB
:1003A000D8A408D0000E736F000E746F000E756F26
:1003B000000E766F758F08D0000E736F000E746F8D
:1003C000000E756F000E766F8051D8B403D0815146
:1003D000D8A409D0000E6F6F000E706F000E716F01
:1003E000000E726F120075516F03F3CF86F0F4CFD9
:1003F00087F086517C6F7D6B7E6B7F6B8751826F40
:10040000836B846B856B74517003F3CF86F0F4CFEC
:1004100087F086517C27000E7D237E237F23875122
:100420008227000E83238423852373517103F3CF26
:1004300086F0F4CF87F086517C27000E7D237E2343
:100440007F2387518227000E8323842385237EC048
:100450007FF07DC07EF07CC07DF07C6B73517003BB
:10046000F3CF86F0F4CF87F086517C2787517D2328
:10047000000E7E23000E7F2374516F03F3CF86F0AE
:10048000F4CF87F086517C2787517D23000E7E2391
:10049000000E7F237EC07FF07DC07EF07CC07DF0AB
:1004A0007C6B73516F03F3CF86F0F4CF87F08651E6
:1004B0007C2787517D23000E7E23000E7F237551FC
:1004C0007003F3CF86F0F4CF87F0865182278751EF
:1004D0008323000E8423000E852374517103F3CF10
:1004E00086F0F4CF87F08651822787518323000E50
:1004F0008423000E852375517103F3CF86F0F4CF6A
:1005000087F08651776F8751786F796B7A6B79C0F6
:100510007AF078C079F077C078F0776B77518227DE
:1005200078518323795184237A5185237CC077F0D5
:100530007DC078F07EC079F07FC07AF0190E05D0CA
:10054000D8907A33793378337733E82EF9D77751E7
:10055000822778518323795184237A5185237EC061
:100560007FF07DC07EF07CC07DF07C6B805181C0CF
:1005700077F0786B7727000E7823820E7725866FC9
:10058000FF0E7821876F0FD0D8908237833784375A
:1005900085377FBF8281D8907C377D377E377F3724
:1005A0008607D8A0870784AFEFD7000E806F7FAF94
:1005B00017D0FF0E7C15776FFF0E7D15786FFF0E3D
:1005C0007E15796F7F0E7F157A6F775178117911CB
:1005D0007A11D8B403D0010E806F02D082B1FBD75C
:1005E0008051D8B41FD0010E8227000E83238423AC
:1005F000852385A117D082C077F083C078F084C0AE
:1006000079F085C07AF07A357A3379337833773375
:1006100077C082F078C083F079C084F07AC085F02A
:10062000864B872B87BF0DD0875103E18629D8A041
:1006300008D0000E826F000E836F800E846F7F0ED5
:1006400020D087BF05D087510EE18605D8B00BD0EA
:10065000000E826F000E836F000E846F000E856F98
:10066000000E7B6F0FD086C081F0FF0E8217FF0E49
:1006700083177F0E8417000E851781B1848FD89061
:100680008131856F7B51851382C06FF083C070F01C
:1006900084C071F085C072F0120000018B51800B94
:1006A000946F8B518B25966F8ABF96819651D8B4E3
:1006B0000DD09629D8A408D0000E886F000E896F3F
:1006C000000E8A6F000E8B6F8A8F06D0000E886F27
:1006D000000E896F000E8A6F000E8B6F8F51800B9A
:1006E000956F94519519D8A4948D8F518F25956F3E
:1006F0008EBF95819551D8B40DD09529D8A408D036
:10070000000E8C6F000E8D6F000E8E6F000E8F6FBF
:100710008E8F06D0000E8C6F000E8D6F000E8E6FC8
:10072000000E8F6F9651955DD8B022D094AD02D057
:10073000800E941B96C097F095C096F097C095F0E8
:1007400088C097F08CC088F097C08CF089C097F073
:100750008DC089F097C08DF08AC097F08EC08AF066
:1007600097C08EF08BC097F08FC08BF097C08FF042
:10077000000E976F965195C090F0916B905F000EB0
:10078000915B91BF2CD0915104E11A0E905DD8A0DD
:1007900026D0885189118A118B11D8B402D0010E4C
:1007A00001D0000E976F000E886F000E896F000E4B
:1007B0008A6F000E8B6F95C096F015D097A105D06B
:1007C000D89097310109976F02D0D890973388B1AC
:1007D000978F8B358B338A3389338833962B95519A
:1007E000965DD8A0EBD794BD28D09651D8A409D057
:1007F000000E886F000E896F000E8A6F000E8B6FDF
:1008000012008C5188278D5189238E518A238F5154
:100810008B238BA171D097A105D0D8909731010976
:10082000976F02D0D890973388B1978F8B358B33E1
:100830008A3389338833962B5FD08C51885D8D51F4
:1008400089598E518A598B51800A906F8F51800A35
:100850009059D8B025D088518C5D906F89518D59B1
:10086000916F8A518E59926F8B518F59936FFF0EF2
:100870009025886FFF0E9121896FFF0E92218A6F5C
:10088000FF0E93218B6F800E941B976D9751D8A408
:100890000FD0010E8827000E89238A238B2308D0CE
:1008A0008C51885F8D51895B8E518A5B8F518B5B38
:1008B000885189118A118B11D8A41CD09751D8A4C2
:1008C00019D0000E886F000E896F000E8A6F000E1F
:1008D0008B6F1200D890883789378A378B3797BF4C
:1008E000888197A102D0D88001D0D89097379651AF
:1008F000D8A496078AAFEED7000E956F97AF0BD0AE
:1009000097C090F07F0E9017D8B403D0010E956F6A
:1009100002D088B1FBD79551D8B420D0010E8827DA
:10092000000E89238A238B238BA118D088C090F0D6
:1009300089C091F08AC092F08BC093F093359333C5
:1009400092339133903390C088F091C089F092C077
:100950008AF093C08BF09629D8A4962B9629D8B408
:1009600003D09651D8A40DD0000E886F000E896F69
:10097000000E8A6F000E8B6F9651D8A402D0000E25
:10098000946F96A102D08A8F01D08A9FD890963119
:100990008B6F94BF8B8F88C088F089C089F08AC024
:1009A0008AF08BC08BF012000001F1AFF293F1BF1F
:1009B00005D0F15108E1F005D8B005D0000E8F6FD9
:1009C000010E8E6F04D0F0C08EF0F1C08FF0EEC03B
:1009D00090F0EFC091F07EC092F07FC093F080C0A5
:1009E00094F081C095F082C096F083C097F084C0E7
:1009F00098F085C099F0000E9B6F1F0E9A6F000E45
:100A000001011F6F77D09A07D8A09B07000E9A2587
:100A1000D96E010E9B21DA6E92C061F093C062F034
:100A200094C063F095C064F096C065F097C066F01E
:100A300098C067F099C068F00A0E696F000E6A6F7F
:100A4000000E6B6F000E6C6F000E6D6F000E6E6F00
:100A5000000E6F6F000E706FBBEC09F061C086F086
:100A600062C087F063C088F064C089F065C08AF016
:100A700066C08BF067C08CF068C08DF000018651B5
:100A8000300FDF6E8E07D8A08F079007D8A0910790
:100A900092C061F093C062F094C063F095C064F0BE
:100AA00096C065F097C066F098C067F099C068F08E
:100AB0000A0E696F000E6A6F000E6B6F000E6C6F8E
:100AC000000E6D6F000E6E6F000E6F6F000E706F78
:100AD000F5EC08F061C092F062C093F063C094F04E
:100AE00064C095F065C096F066C097F067C098F056
:100AF00068C099F000019A519B11D8B41AD0925154
:100B00009311941195119611971198119911D8A4D8
:100B10007AD78FBF05D08F5102E18E05D8B073D739
:100B200091BF07D0915103E19005D8A002D0F2B354
:100B30006AD77CC071F07DC072F0000E9A25736F89
:100B4000010E9B21746F90C075F091C076F064EC3B
:100B50000AF071C07CF072C07DF012002DEC0DF037
:100B60009BD0685069CFC6F00001C76BC6C0C7F004
:100B7000C66BC611E86FC751E96FCD0E736FCC0E0F
:100B8000746FCC0E756F3D0E766FF4C061F0F5C0DA
:100B900062F0000E62BFFF0E636F646F010EE6EC41
:100BA00007F061C06FF062C070F063C071F064C0A4
:100BB00072F0A3EC01F06FC08CF070C08DF071C0CA
:100BC0008EF072C08FF0660E0001736F660E746F48
:100BD000660E756F3F0E766FE8C061F0E9C062F097
:100BE000000E62BFFF0E636F646F010EE6EC07F04C
:100BF00061C06FF062C070F063C071F064C072F0E9
:100C0000A3EC01F06FC088F070C089F071C08AF069
:100C100072C08BF04DEC03F088C098F089C099F059
:100C20008AC09AF08BC09BF05DEC09F098C0F4F09C
:100C300099C0F5F01DEC0DF0010EA4EC0CF0310E96
:100C40000001656F030E666FB6EC0BF0020EA4ECAC
:100C50000CF0C80E0001B66F000EB76F400EB86FF3
:100C6000030EB96FF4C0BAF0F5C0BBF041EC0CF064
:100C7000C80E0001656F000E666FB6EC0BF0020E39
:100C80000001C76F040EC66FBA0EE82EFED7C62F3E
:100C9000FCD7C72FFAD700F02C50D8A403D061D7C7
:100CA000020E2C6E2C04D8A42DD0FAD71DEC0DF01A
:100CB000210E0001656F030E666FB6EC0BF0000E9F
:100CC0000001EB6F000EEA6F020E0001C76F040E09
:100CD000C66FBA0EE82EFED7C62FFCD7C72FFAD79D
:100CE00000F00001EA4BEB2BEBBFEED7EB5104E138
:100CF0000A0EEA5DD8A0E8D71DEC0DF0000E2C6EB0
:100D000083B4D4D7020E2C18D8A4C6D7F9D79EC066
:100D1000D9FF9FC0DAFFDECFF6FFDDCFF7FF080077
:100D2000F550250AD8A48FD09EC0D9FF9FC0DAFF06
:100D3000DE2A000EDD22000E0001EF6F000EEE6FC6
:100D4000EEC0F2F0EFC0F3F0F069F1699EC0D9FF98
:100D50009FC0DAFFDECFF6FFDDCFF7FF0800F550CA
:100D6000750AD8A440D09EC0D9FF9FC0DAFFDE2A02
:100D7000000EDD22A0C0D9FFA1C0DAFFDFCFA2F0B4
:100D8000020EDE26DFCFA3F0000EDD22A2C0D9FFC7
:100D9000A3C0DAFFDECFA4F0DDCFA5F0A4C0A6F09B
:100DA000A5C0A7F0A86BA96BAA6BAB6BAC6BAD6BC6
:100DB0009CC07CF09DC07DF0A6C07EF0A7C07FF0F7
:100DC000A8C080F0A9C081F0AAC082F0ABC083F0B7
:100DD000ACC084F0ADC085F0D4EC04F07CC09CF0D5
:100DE0007DC09DF012009EC0D9FF9FC0DAFFDECF0C
:100DF000F6FFDDCFF7FF0800F550250AD8A417D07D
:100E00009EC0D9FF9FC0DAFFDE2A000EDD22000E51
:100E1000626F250E616F9CC063F09DC064F013EC9F
:100E20000AF0000E00019D6F010E9C6F12009EC023
:100E3000D9FF9FC0DAFFDE2A000EDD22000E9D6F73
:100E4000000E9C6F12009EC0D9FF9FC0DAFFDECF5C
:100E5000F6FFDDCFF7FF0800F5500001616F626B10
:100E60009CC063F09DC064F013EC0AF09EC0D9FFF3
:100E70009FC0DAFFDE2A000EDD22D3D7000E1E6EE1
:100E8000000E1D6E1D500724D96E1E500820DA6E0C
:100E90002F0EDF6418D01D500724D96E1E50082075
:100EA000DA6E3A0EDF600FD00B0E1D24D96E000EE5
:100EB0001E20DA6E1D500724E16E1E500820E26EDF
:100EC000E750D00F20D01D500724D96E1E500820A7
:100ED000DA6E400EDF6418D01D500724D96E1E5004
:100EE0000820DA6E470EDF600FD00B0E1D24D96E7E
:100EF000000E1E20DA6E1D500724E16E1E500820E1
:100F0000E26EE750C90FDF6E1D4A1E2A1EBEBAD719
:100F10001E5004E10C0E1D5CD8A0B4D70B50D8A411
:100F200002D0010E01D0000E0C10176E0D50D8A487
:100F300002D0010E01D0000E0E10186E0F50D8A472
:100F400002D0010E01D0000E1010196E1150D8A45D
:100F500002D0010E01D0000E12101A6E1350D8A448
:100F600002D0010E01D0000E14101B6E1550D8A433
:100F700002D0010E01D0000E16101C6E175018186A
:100F800019181A18096E0A6A1C501B18D8A402D026
:100F9000010E01D0000E091A000E0A1A09500A109B
:100FA000D8B40AD0020E06EC0DF0110E056E030E39
:100FB000066EE7EC0BF01200020E06EC0DF0010ECF
:100FC000056E030E066EE7EC0BF012000001696F70
:100FD00000016951D8A464AF1AD061C065F062C045
:100FE00066F063C067F064C068F0651F661F671F26
:100FF000681F652B000E66236723682365C06BF0AE
:1010000066C06CF067C06DF068C06EF008D061C05B
:101010006BF062C06CF063C06DF064C06EF0615143
:10102000621163116411D8A409D0000E616F000E23
:10103000626F000E636F000E646F1200960E6A6F8F
:1010400006D06A2BD8906E336D336C336B33000E41
:101050006B15656F000E6C15666F000E6D15676F72
:10106000FE0E6E15686F6551661167116811D8B470
:101070000DD0E7D76A2B010E6B27000E6C236D2372
:101080006E23D8906E336D336C336B33000E6B155B
:10109000656F000E6C15666F000E6D15676FFF0EA5
:1010A0006E15686F6551661167116811D8B407D065
:1010B000E1D76A07D8906B376C376D376E376DBFE5
:1010C00003D0020E6A61F5D76AA16D9FD8906A338A
:1010D0006AC065F0666B676B686B65C068F0676BCC
:1010E000666B656B65516B1366516C1367516D13BD
:1010F00068516E136951D8A464AF01D06E8F6BC074
:1011000061F06CC062F06DC063F06EC064F01200FC
:101110009490929E949695909592929C8C908C929D
:101120008B968B90899C899E270E0001656FF50E2A
:10113000E82EFED7652FFCD7030E3CEC0BF00D0E0E
:101140000001656FFB0EE82EFED7652FFCD700D09F
:10115000030E3CEC0BF0850EE82EFED700F0030EDC
:101160003CEC0BF0210EE82EFED700F0020E3CEC1A
:101170000BF0210EE82EFED700F0000E0001636F89
:10118000280E88EC0CF0210EE82EFED700F0000EA1
:101190000001636F080E88EC0CF0210EE82EFED7DC
:1011A00000F0000E0001636F010E88EC0CF00D0ED4
:1011B0000001656FFB0EE82EFED7652FFCD700D02F
:1011C000000E0001636F060E88EC0CF0210EE82E75
:1011D000FED700F0000E0001636F0C0E88EC0CF0DF
:1011E000210EE82EFED700F0120020EE71F0070E5F
:1011F000DE6AE806FDE2000169516A116B116C11AB
:101200006D116E116F117011D8B446D0010E796F47
:101210000AD0D89069376A376B376C376D376E37BD
:101220006F377037792B70AFF4D7D890713772372A
:101230007337743775377637773778376951615D2B
:101240006A5162596B5163596C5164596D516559BA
:101250006E5166596F51675970516859D8A011D0B5
:101260006951615F6A51625B6B51635B6C51645B96
:101270006D51655B6E51665B6F51675B7051685B6A
:101280007181D89070336F336E336D336C336B3341
:101290006A336933792FC9D771C061F072C062F0C7
:1012A00073C063F074C064F075C065F076C066F01A
:1012B00077C067F078C068F0120000019A359B355E
:1012C000A16FA151D8A409D0000E986F000E996F9C
:1012D000000E9A6F000E9B6F120098C09CF099C090
:1012E0009DF09AC09EF09BC09FF0200E05D0D89034
:1012F0009F339E339D339C33E82EF9D79C51A06FCA
:101300009A8FFF0E9817FF0E9917FF0E9A17000E6F
:101310009B17960EA15FA1AF0DD0A151800A970F28
:10132000D8A0D2D7D8909B339A3399339833A13F22
:10133000F9D70DD01F0EA16507D0C6D7D890983722
:1013400099379A379B37A107A151D8A4F7D7A05155
:10135000D8B408D09B1F9A1F991F986D000E99232F
:101360009A239B2398C098F099C099F09AC09AF05C
:101370009BC09BF01200000169516A116B116C1146
:101380006D116E116F117011D8B43CD0010E716FD8
:101390000AD0D89069376A376B376C376D376E373C
:1013A0006F377037712B70AFF4D76951615D6A5137
:1013B00062596B5163596C5164596D5165596E5145
:1013C00066596F51675970516859D8A010D069514A
:1013D000615F6A51625B6B51635B6C51645B6D5121
:1013E000655B6E51665B6F51675B7051685BD8904F
:1013F00070336F336E336D336C336B336A336933F1
:10140000712FD3D761C061F062C062F063C063F036
:1014100064C064F065C065F066C066F067C067F0E0
:1014200068C068F01200000163516411D8B404D0A0
:1014300063516411D8A404D0615173EC0DF0120013
:1014400020EE04F06351D9266451DA22DE50DE101A
:10145000D8B416D020EE04F06351D9266451DA22B4
:1014600010EE02F06351E1266451E222DE50E65CA8
:10147000E650800A696FDE50800A6959D8B01200C0
:1014800020EE02F06351D9266451DA22DECF65F0F6
:10149000DDCF66F063C0D9FF64C0DAFFDECF67F04E
:1014A000DDCF68F065516725D96E66516821DA6E27
:1014B00061C0DFFF20EE02F06351D9266451DA22C9
:1014C000DE2A000EDD2212000001F2A10AD073C054
:1014D0006AF074C06BF071C06CF072C06DF06AECB1
:1014E0000CF0000176BF05D075C07AF076C07BF0B5
:1014F00004D0000E7B6F000E7A6F000E796F000E25
:10150000786F0DD0000E626F200E616F71C063F0B6
:1015100072C064F013EC0AF00001784B792B7A5119
:10152000785D7951800A776F7B51800A7759D8A00E
:10153000E9D7F2B10AD073C06AF074C06BF071C021
:101540006CF072C06DF06AEC0CF073C061F074C0A6
:1015500062F0EFEC0CF000017A516125716F7B5164
:101560006221726F1200E9CF1FF0EACF20F0E1CFC5
:1015700021F0E2CF22F0D9CF23F0DACF24F0F6CF5A
:1015800025F0F7CF26F0F8CF27F0F5CF28F09EAA68
:1015900018D02C50D8A415D02D0E066E000E076E54
:1015A000AECF08F0F8EC0AF02A6E2A04D8A40AD0CC
:1015B0002D0E076E000E086E3EEC07F0010E2C6E2D
:1015C00001D0AE5028C0F5FF27C0F8FF26C0F7FFB6
:1015D00025C0F6FF24C0DAFF23C0D9FF22C0E2FFF6
:1015E00021C0E1FF20C0EAFF1FC0E9FF39921100CE
:1015F000030E0818D8A420D058EC0DF0010E06EC0C
:101600000DF0000E0A6E000E096E010E036E0950F9
:101610000624D96E0A500720DA6EDF50D7EC0CF0A2
:10162000094A0A2A0ABEF1D70A5004E10A0E095CE7
:10163000D8A0EBD7010E1200020E0818D8A412D0C1
:10164000000E2B6E000E0B6E0B500624D96E000E92
:101650000720DA6E000EDF6E0B2A0B0E0B64F4D738
:10166000000E12002B500624D96E000E0720DA6EF1
:1016700008C0DFFF2B2AF4D70001626F62C061F05F
:10168000010E000161178B506119FE0B61198B6E01
:1016900062C061F0D8906133010E61176147614704
:1016A00061478B506119F70B61198B6E62C061F055
:1016B000D8906133D8906133010E61178C50611955
:1016C000FE0B61198C6E62C061F0D8906133D890C6
:1016D0006133D8906133010E611761478C506119F5
:1016E000FD0B61198C6E65EC0DF0030EE82EFED734
:1016F00000F01200026E02C001F0010E01168B50C4
:101700000118FE0B01188B6E02C001F0D890013257
:10171000010E01160146014601468B500118F70BD8
:1017200001188B6E02C001F0D8900132D8900132BE
:10173000010E01168C500118FE0B01188C6E02C0B0
:1017400001F0D8900132D8900132D8900132010EC8
:10175000011601468C500118FD0B01188C6E6CECC3
:101760000DF0030EE82EFED700F012001CD0010E83
:101770000001636F65C0F6FF66C0F7FFF86A020EEE
:10178000F76403D00800F55005D0F6CFE9FFF7CF96
:10179000EAFFEF5088EC0CF00001654B662B210E40
:1017A000E82EFED700F065C0F6FF66C0F7FFF86AC6
:1017B000020EF76403D00800F55005D0F6CFE9FF1C
:1017C000F7CFEAFFEF500009D8B41200D0D71AD0F3
:1017D000010E036E05C0F6FF06C0F7FFF86A020EA1
:1017E000F76403D00800F55005D0F6CFE9FFF7CF36
:1017F000EAFFEF50D7EC0CF0054A062A210EE82E3E
:10180000FED700F005C0F6FF06C0F7FFF86A020E2B
:10181000F76403D00800F55005D0F6CFE9FFF7CF05
:10182000EAFFEF500009D8B41200D2D7B0C0B4F02C
:10183000B1C0B5F0000E0001ED6F000EEC6F13D0DB
:10184000AEC09CF0AFC09DF0B40E9E6F000E9F6FB7
:10185000B2C0A0F0B3C0A1F087EC06F000019C512B
:10186000EC279D51ED23B4C0F6FFB5C0F7FF08008B
:10187000F5500009D8A4E4D7ECC0AEF0EDC0AFF04D
:101880001200BA0E0001BE6F000EBF6FB6C0C0F0EE
:10189000B7C0C1F0000EC36F000EC26F000EC56F5F
:1018A000000EC46FC00EAE6F000EAF6FB8C0B0F0C8
:1018B000B9C0B1F0BE0EB26F000EB36F16EC0CF0F3
:1018C0000001C251B625D96EC351B721DA6E000EA0
:1018D000DF6E1200000E0001706F000E6F6F0CD0F3
:1018E0006EC061F0626B6CC063F06DC064F013ECAD
:1018F0000AF000016F4B702B6F516A25D96E705141
:101900006B21DA6EDF506E6F6E51D8B41200E8D7DB
:101910000001646F000163B102D0899E01D0898EFD
:10192000000164390F0B0F0B3CEC0BF0060EE82E98
:10193000FED700D0000164510F0B3CEC0BF0210EE0
:10194000E82EFED700F012000001656F000165056A
:10195000D8A405D0000E636F800E88EC0CF0020E48
:1019600000016519D8A405D0000E636FC00E88EC85
:101970000CF0210EE82EFED700F0120001EE00F070
:10198000200EEE6AE806FDE100EEECF00A0EEE6ACB
:10199000E806FDE100EE2BF00E0EEE6AE806FDE132
:1019A00039903992000EF86E0001AEEF05F0046E2A
:1019B00003B002D0899E01D0898E04380F0B0F0B23
:1019C0007AEC0BF0060EE82EFED700D004500F0B79
:1019D0007AEC0BF0210EE82EFED700F0120061C069
:1019E00063F062C064F003D00001614B622B61C000
:1019F000D9FF62C0DAFFDF50D8A4F6D700016351E7
:101A0000615D616F64516259626F1200056E050479
:101A1000D8A405D0000E036E800ED7EC0CF0020E99
:101A20000518D8A405D0000E036EC00ED7EC0CF03C
:101A3000210EE82EFED700F01200000E0001636FA9
:101A4000010E88EC0CF00D0E0001656FFB0EE82E08
:101A5000FED7652FFCD700D01200720ED36ED3A430
:101A6000FED7F28EF28CD08E88EC08F04BEC0DF0A5
:101A70003CEC0DF095841200190EB76E928492869C
:101A8000000EB86E000EB96E180E606E460E636ED4
:101A9000695068501200948ECB0EAF6E000EB06E7F
:101AA000AA86AC84AB88AB8EAC8A9D8A9F8A1200D2
:101AB000000E036E010ED7EC0CF00D0E056EFC0E41
:101AC000E82EFED7052EFCD71200898C030EE82ED7
:101AD000FED700F0899C1200898C030EE82EFED7F9
:081AE00000F0899C12001200C5
:020000040020DA
:08000000FFFFFFFFFFFFFFFF00
:020000040030CA
:0E000000FFC80F3F3C1D81FF0FC00FE00F40F7
:00000001FF
