:020000040000FA
:0400000013EF00F00A
:0600080039828DEF03F0C8
:100018003980E0CF26F026C0E0FF3990100016EFB7
:0200280004F0E2
:1003000000434845434B53554D204641494C4544D5
:1003100000434845434B53554D20504153534544AA
:05032000002020000098
:10032600000E186E000E176E17500124D96E185065
:100336000220DA6E2F0EDF6418D017500124D96E12
:1003460018500220DA6E3A0EDF600FD0050E172421
:10035600D96E000E1820DA6E17500124E16E18507F
:100366000220E26EE750D00F20D017500124D96E3C
:1003760018500220DA6E400EDF6418D017500124A0
:10038600D96E18500220DA6E470EDF600FD0050EC8
:100396001724D96E000E1820DA6E17500124E16E6C
:1003A60018500220E26EE750C90FDF6E174A182A6E
:1003B60018BEBAD7185004E10C0E175CD8A0B4D7F3
:1003C6000550D8A402D0010E01D0000E0610116E01
:1003D6000750D8A402D0010E01D0000E0810126EEC
:1003E6000950D8A402D0010E01D0000E0A10136ED7
:1003F6000B50D8A402D0010E01D0000E0C10146EC2
:100406000D50D8A402D0010E01D0000E0E10156EAC
:100416000F50D8A402D0010E01D0000E1010166E97
:100426001150121813181418036E046A1650151872
:10043600D8A402D0010E01D0000E031A000E041A31
:1004460003500410D8B405D0000E026E010E016EE2
:100456001200000E026E000E016E1200196E030EDF
:100466001918D8A46AD02D0E016E000E026E93ECF8
:1004760001F001040210D8A428D025EC04F0010EE6
:10048600FFEC03F0110E056E030E066EB4EC03F0DE
:10049600020EFFEC03F0000E1B6E000E1A6E010E2C
:1004A600036E2D0E1A24D96E000E1B20DA6EDF5055
:1004B600E7EC03F01A4A1B2A1BBEF1D71B504DE18D
:1004C6000A0E1A5CD8B01200EAD725EC04F0010E29
:1004D600FFEC03F0010E056E030E066EB4EC03F09E
:1004E600020EFFEC03F0000E1D6E000E1C6E010ED8
:1004F600036E2D0E1C24D96E000E1D20DA6EDF5001
:10050600E7EC03F01C4A1D2A1DBEF1D71D5004E17D
:100516000A0E1C5CD8A0EBD7210E056E030E066EE4
:10052600B4EC03F0010E036E3750E7EC03F0010E56
:10053600036E3850E7EC03F01200020E1918D8A427
:1005460003D0000E2C6E12002D0E2C24D96EDA6A02
:10055600000EDA2219C0DFFF2C2A12009490949222
:10056600949495909592929C8C908C928B948B926D
:100576008B90899C270E2B6EF50EE82EFED72B2E20
:10058600FCD700F0030E15EC03F00D0E2B6EFC0EDF
:10059600E82EFED72B2EFCD7030E15EC03F0850EA6
:1005A600E82EFED700F0030E15EC03F0210EE82E20
:1005B600FED700F0020E15EC03F0210EE82EFED752
:1005C60000F0000E296E280ECFEC03F0210EE82E67
:1005D600FED700F0000E296E080ECFEC03F0210EB8
:1005E600E82EFED700F0000E296E010ECFEC03F0C8
:1005F6000D0E2B6EFC0EE82EFED72B2EFCD7000E12
:10060600296E060ECFEC03F0210EE82EFED700F081
:10061600000E296E0C0ECFEC03F0210EE82EFED74D
:1006260000F01200286E28C027F0010E2716274674
:100636008B502718FD0B27188B6E28C027F0D890F3
:100646002732010E2716274627468B502718FB0B05
:1006560027188B6E28C027F0D8902732D8902732DB
:10066600010E27168C502718FE0B27188C6E28C0F3
:1006760027F0D8902732D8902732D8902732010E0B
:10068600271627468C502718FD0B27188C6E4AEC28
:1006960004F0030EE82EFED700F01200026E02C030
:1006A60001F0010E011601468B500118FD0B0118D1
:1006B6008B6E02C001F0D8900132010E0116014680
:1006C60001468B500118FB0B01188B6E02C001F01E
:1006D600D8900132D8900132010E01168C500118C3
:1006E600FE0B01188C6E02C001F0D8900132D89032
:1006F6000132D8900132010E011601468C500118C4
:10070600FD0B01188C6E51EC04F0030EE82EFED79B
:1007160000F01200E1CF1EF0E2CF1FF0D9CF20F09B
:10072600DACF21F0F6CF22F0F7CF23F0F8CF24F07E
:10073600F5CF25F09EAA03D0AE5031EC02F025C0CD
:10074600F5FF24C0F8FF23C0F7FF22C0F6FF21C043
:10075600DAFF20C0D9FF1FC0E2FF1EC0E1FF3992B9
:10076600110010D0010E036E05C0F6FF06C0F7FF9C
:100776000800F550E7EC03F0054A062A210EE82E9C
:10078600FED700F005C0F6FF06C0F7FF0800F550DB
:100796000009D8B41200E6D72A6E29B002D0899C87
:1007A60001D0898C2A380F0B0F0B15EC03F0060EBF
:1007B600E82EFED700D02A500F0B15EC03F0210EC1
:1007C600E82EFED700F01200046E03B002D0899C1A
:1007D60001D0898C04380F0B0F0B51EC03F0060E79
:1007E600E82EFED700D004500F0B51EC03F0210E7B
:1007F600E82EFED700F01200056E0504D8A405D039
:10080600000E036E800EE7EC03F0020E0518D8A466
:1008160005D0000E036EC00EE7EC03F0210EE82EA5
:10082600FED700F0120000EE2CF00D0EEE6AE80680
:10083600FDE139903992000EF86E030EF76E000155
:1008460058EF04F0000E036E010EE7EC03F00D0EF8
:10085600056EFC0EE82EFED7052EFCD71200720E92
:10086600D36ED3A4FED7F28EF28CD08EB1EC02F00A
:100876003EEC04F01200948ECB0EAF6E000EB06EFE
:10088600AA86AC84AB88AB8EAC8A9D8A12008B801C
:10089600030EE82EFED700F08B9012008B80030E1D
:1008A600E82EFED700F08B90120032EC04F0FFD752
:020000040020DA
:08000000FFFFFFFFFFFFFFFF00
:020000040030CA
:0E000000FFC80F3F3C1D81FF0FC00FE00F40F7
:00000001FF
