:020000040000FA
:0400000013EF00F00A
:06000800568229EF0AF008
:100018005680E0CF08F008C0E0FF569010009FEF30
:020028000AF0DC
:1003000000434845434B53554D204641494C4544D5
:1003100000434845434B53554D20504153534544AA
:1003200000524553455454494E4720524F424F5472
:1003300000524947485420257520004C454654201A
:050340002575200000FE
:100346005CEC0AF0AD0E206E000E216EB60E226E2B
:10035600000E236E42EC05F092D0665067CF80F017
:100366000001816B80C081F0806B8011A56F815187
:10037600A66F685069CF80F0816B80C081F0806B7A
:100386008011A96F8151AA6FA50E176E000E186E07
:1003960074EC07F0A90E176E000E186E74EC07F0D9
:1003A600C1C0A2F0A7C009F0A8C00AF0ABC00BF00C
:1003B600ACC00CF0EFEC09F00001C16FA2C027F051
:1003C600AD0E286E000E296EB60E2A6E000E2B6E2E
:1003D600C151EFEC08F0ECEC0AF0010E73EC0AF0F8
:1003E600820E0001706F000E716F3B0E726F030E6E
:1003F600736FA7C074F0A8C075F080EC09F0820E88
:100406000D6E000E0E6E26EC09F0020E73EC0AF06D
:10041600920E0001706F000E716F310E726F030E37
:10042600736FABC074F0ACC075F080EC09F0920E3F
:100436000D6E000E0E6E26EC09F0020E0001816FA5
:10044600040E806FBA0EE82EFED7802FFCD7812FC0
:10045600FAD700F00001C205D8A411D0E30E0E6E43
:10046600000E0F6ECFEC09F0E30E0F6E000E106E4D
:1004760008EC04F0010E556E000E0001C26F5550D7
:10048600D8A403D06AD7020E556E5504D8A42CD032
:10049600FAD7ECEC0AF0210E0D6E030E0E6E26EC6A
:1004A60009F0000E0001A46F000EA36F020E0001FA
:1004B600816F040E806FBA0EE82EFED7802FFCD710
:1004C600812FFAD700F00001A34BA42BA4BFEED7CF
:1004D600A45104E10A0EA35DD8A0E8D7ECEC0AF01B
:1004E600000E556E83B4D5D7020E5518D8A4C7D7BB
:1004F600F9D751AE529251BE05D0515008E1500481
:10050600D8B005D0000E376E010E366E04D050C03E
:1005160036F051C037F04EC038F04FC039F026C023
:100526003AF027C03BF028C03CF029C03DF02AC075
:100536003EF02BC03FF02CC040F02DC041F0000E25
:10054600436E1F0E426E000E0001E26F76D0420629
:10055600D8A04306C30E4224D96E000E4320DA6E9D
:100566003AC009F03BC00AF03CC00BF03DC00CF0AD
:100576003EC00DF03FC00EF040C00FF041C010F07D
:100586000A0E116E000E126E000E136E000E146E21
:10059600000E156E000E166E000E176E000E186E0B
:1005A60082EC06F009C02EF00AC02FF00BC030F026
:1005B6000CC031F00DC032F00EC033F00FC034F075
:1005C60010C035F02E50300FDF6E3606D8A0370635
:1005D6003806D8A039063AC009F03BC00AF03CC03C
:1005E6000BF03DC00CF03EC00DF03FC00EF040C019
:1005F6000FF041C010F00A0E116E000E126E000EC2
:10060600136E000E146E000E156E000E166E000EA2
:10061600176E000E186EB7EC05F009C03AF00AC066
:100626003BF00BC03CF00CC03DF00DC03EF00EC0E0
:100636003FF00FC040F010C041F042504310D8B414
:100646001AD03A503B103C103D103E103F1040105F
:100656004110D8A47CD737BE05D0375002E1360406
:10066600D8B075D739BE07D0395003E13804D8A0C1
:1006760002D052B26CD724C019F025C01AF0C30EAE
:1006860042241B6E000E43201C6E38C01DF039C07C
:100696001EF029EC07F019C024F01AC025F012004C
:1006A60046C0D9FF47C0DAFFDECFF6FFDDCFF7FF42
:1006B6000800F550250AD8A48ED046C0D9FF47C0F9
:1006C600DAFFDE2A000EDD22000E4F6E000E4E6EA1
:1006D6004EC052F04FC053F05068516846C0D9FF23
:1006E60047C0DAFFDECFF6FFDDCFF7FF0800F55093
:1006F600750AD8A441D046C0D9FF47C0DAFFDE2A22
:10070600000EDD2248C0D9FF49C0DAFFDFCF4AF02C
:10071600020EDE26DFCF4BF0000EDD224AC0D9FFE7
:100726004BC0DAFFDECF4CF0DDCF4DF04CC060F0B1
:100736004DC061F00001626B636B646B656B666B49
:10074600676B44C024F045C025F060C026F061C048
:1007560027F062C028F063C029F064C02AF065C0A3
:100766002BF066C02CF067C02DF07CEC02F024C0A4
:1007760044F025C045F0120046C0D9FF47C0DAFF55
:10078600DECFF6FFDDCFF7FF0800F550250AD8A427
:1007960016D046C0D9FF47C0DAFFDE2A000EDD229A
:1007A600000E0A6E250E096E44C00BF045C00CF013
:1007B600D9EC06F0000E456E010E446E120046C0DE
:1007C600D9FF47C0DAFFDE2A000EDD22000E456E95
:1007D600000E446E120046C0D9FF47C0DAFFDECFD6
:1007E600F6FFDDCFF7FF0800F550096E0A6A44C030
:1007F6000BF045C00CF0D9EC06F046C0D9FF47C057
:10080600DAFFDE2A000EDD22D5D7000E266E000E98
:10081600256E25500F24D96E26501020DA6E2F0E25
:10082600DF6418D025500F24D96E26501020DA6EBA
:100836003A0EDF600FD0130E2524D96E000E262047
:10084600DA6E25500F24E16E26501020E26EE75036
:10085600D00F20D025500F24D96E26501020DA6EE6
:10086600400EDF6418D025500F24D96E2650102074
:10087600DA6E470EDF600FD0130E2524D96E000EF8
:100886002620DA6E25500F24E16E26501020E26EE7
:10089600E750C90FDF6E254A262A26BEBAD726504C
:1008A60004E10C0E255CD8A0B4D71350D8A402D00E
:1008B600010E01D0000E14101F6E1550D8A402D0E0
:1008C600010E01D0000E1610206E1750D8A402D0CB
:1008D600010E01D0000E1810216E1950D8A402D0B6
:1008E600010E01D0000E1A10226E1B50D8A402D0A1
:1008F600010E01D0000E1C10236E1D50D8A402D08C
:10090600010E01D0000E1E10246E1F502018211853
:100916002218116E126A24502318D8A402D0010E90
:1009260001D0000E111A000E121A11501210D8B46E
:100936000AD0020E73EC0AF0110E0D6E030E0E6E47
:1009460026EC09F01200020E73EC0AF0010E0D6E91
:10095600030E0E6E26EC09F0120017C0D9FF18C060
:10096600DAFFDF50196E1950116E126A20EE07F089
:100976001750D9261850DA22DECF13F0DDCF14F047
:10098600B2EC0AF011C009F012C00AF0000E0C6EAB
:10099600640E0B6EBBEC07F009C01EF00AC01FF018
:1009A60020EE01F01750D9261850DA22DF50D8B4BD
:1009B60024D020EE06F01750D9261850DA22DF5040
:1009C600196E010E1A6E192A02D0D8901A36192EEF
:1009D600FCD71A508A108A6E20EE07F01750D926D7
:1009E6001850DA22DECF19F0DDCF1AF01E50195C4E
:1009F6001E6E1F501A581F6E14D020EE06F01750A8
:100A0600D9261850DA22DF50196E010E1A6E192AED
:100A160002D0D8901A36192EFCD71A50FF0A8A141B
:100A26008A6E20EE02F01750D9261850DA22DECF51
:100A360019F0DDCF1AF019C0D9FF1AC0DAFF1E442B
:100A4600E846FC0BDF6E20EE04F01750D92618504E
:100A5600DA22DECF19F0DDCF1AF019C0D9FF1AC09D
:100A6600DAFF1EC01BF01FC01CF0060E1D6E1C34E4
:100A76001C321B321D2EFBD71B50DF6E120020C00E
:100A8600D9FF21C0DAFF000EDF6E20EE01F0205004
:100A9600D9262150DA22010EDF6E20EE02F0205018
:100AA600D9262150DA22790EDE6E0F0EDD6E20EE8B
:100AB60004F02050D9262150DA22780EDE6E0F0E71
:100AC600DD6E20EE06F02050D9262150DA22000EE7
:100AD600DF6E20EE07F02050D9262150DA22C70E0D
:100AE600DE6E000EDD6E22C0D9FF23C0DAFF000ED7
:100AF600DF6E20EE01F02250D9262350DA22010EB5
:100B0600DF6E20EE02F02250D9262350DA22770E2D
:100B1600DE6E0F0EDD6E20EE04F02250D926235035
:100B2600DA22760EDE6E0F0EDD6E20EE06F0225015
:100B3600D9262350DA22020EDF6E20EE07F022506D
:100B4600D9262350DA22C70EDE6E000EDD6E20C0D7
:100B560017F021C018F0B0EC04F022C017F023C043
:100B660018F0B0EC04F0120020EE19F0070EDE6A61
:100B7600E806FDE21150121013101410151016108D
:100B860017101810D8B446D0010E216E0AD0D8908E
:100B960011361236133614361536163617361836FB
:100BA600212A18AEF4D7D89019361A361B361C36B9
:100BB6001D361E361F3620361150095C12500A5853
:100BC60013500B5814500C5815500D5816500E58FB
:100BD60017500F5818501058D8A011D01150095E50
:100BE60012500A5A13500B5A14500C5A15500D5ADB
:100BF60016500E5A17500F5A1850105A1980D8907E
:100C060018321732163215321432133212321132AA
:100C1600212EC9D719C009F01AC00AF01BC00BF063
:100C26001CC00CF01DC00DF01EC00EF01FC00FF052
:100C360020C010F012009490929E949695909592F2
:100C4600929C8C908C928B968B90899C899E270E79
:100C56000D6EF50EE82EFED70D2EFCD700F0030E16
:100C66007BEC08F00D0E0D6EFC0EE82EFED70D2E59
:100C7600FCD7030E7BEC08F0850EE82EFED700F0BD
:100C8600030E7BEC08F0210EE82EFED700F0020ED4
:100C96007BEC08F0210EE82EFED700F0000E0B6E5E
:100CA600280E44EC0AF0210EE82EFED700F0000EC6
:100CB6000B6E080E44EC0AF0210EE82EFED700F06B
:100CC600000E0B6E010E44EC0AF00D0E0D6EFC0EBE
:100CD600E82EFED70D2EFCD7000E0B6E060E44EC4A
:100CE6000AF0210EE82EFED700F0000E0B6E0C0E59
:100CF60044EC0AF0210EE82EFED700F01200115047
:100D06001210131014101510161017101810D8B44E
:100D16003CD0010E196E0AD0D89011361236133611
:100D260014361536163617361836192A18AEF4D76D
:100D36001150095C12500A5813500B5814500C5895
:100D460015500D5816500E5817500F581850105869
:100D5600D8A010D01150095E12500A5A13500B5ADF
:100D660014500C5A15500D5A16500E5A17500F5A49
:100D76001850105AD89018321732163215321432CB
:100D8600133212321132192ED3D709C009F00AC014
:100D96000AF00BC00BF00CC00CF00DC00DF00EC02D
:100DA6000EF00FC00FF010C010F012000B500C1018
:100DB600D8B404D00B500C10D8A404D0095000ECC1
:100DC6000BF0120020EE04F00B50D9260C50DA225C
:100DD600DE50DE10D8B416D020EE04F00B50D92623
:100DE6000C50DA2210EE02F00B50E1260C50E222F3
:100DF600DE50E65CE650800A116EDE50800A11581D
:100E0600D8B0120020EE02F00B50D9260C50DA2290
:100E1600DECF0DF0DDCF0EF00BC0D9FF0CC0DAFF30
:100E2600DECF0FF0DDCF10F00D500F24D96E0E502F
:100E36001020DA6E09C0DFFF20EE02F00B50D92633
:100E46000C50DA22DE2A000EDD22120052A00AD051
:100E56001BC012F01CC013F019C014F01AC015F014
:100E66000DEC0AF01EBE05D01DC022F01EC023F0F8
:100E760004D0000E236E000E226E000E216E000EB0
:100E8600206E0CD0000E0A6E200E096E19C00BF0F3
:100E96001AC00CF0D9EC06F0204A212A2250205C18
:100EA6002150800A1F6E2350800A1F58D8A0EAD707
:100EB60052B00AD01BC012F01CC013F019C014F0B7
:100EC6001AC015F00DEC0AF01BC009F01CC00AF0A0
:100ED6008AEC0AF022500924196E23500A201A6E51
:100EE600120020EE02F01750D9261850DA22DECF73
:100EF60011F0DDCF12F0000E0C6E640E0B6E000EBC
:100F06000A6E5A0E096EBBEC07F009C013F00AC050
:100F160014F0B2EC0AF020EE02F01750D926185061
:100F2600DA2211C0DEFF12C0DDFF17C0D9FF18C0DC
:100F3600DAFFDECF11F0DDCF12F0000E146E0A0ECE
:100F4600136EB2EC0AF011C009F012C00AF0000EDE
:100F56000C6E640E0B6EBBEC07F020EE02F0175021
:100F6600D9261850DA220950DE260A50DD22120050
:100F7600000E0E6E0CAE06D00B6C0C1ED8B00C2AF2
:100F8600010E0E6E0AAE06D0096C0A1ED8B00A2AE9
:100F9600010E0E1A000E106E000E0F6E0B500C1086
:100FA600D8B41CD0010E0D6E04D0D8900B360C367A
:100FB6000D2A0CAEFAD7D8900F3610360B50095CB6
:100FC6000C500A58D8A005D00B50095E0C500A5A8E
:100FD6000F80D8900C320B320D2EEDD70E50D8B4B0
:100FE60004D00F6C101ED8B0102A0FC009F010C024
:100FF6000AF0120020EE01F02050D9262150DA2204
:10100600010EDF6E20EE01F02250D9262350DA229F
:10101600000EDF6E000E266E000E256E20C0D9FF74
:1010260021C0DAFF25C0DFFF22C0D9FF23C0DAFFC7
:1010360025C0DFFF20C017F021C018F0B0EC04F087
:1010460022C017F023C018F0B0EC04F0030E246E93
:10105600980EE82EFED7242EFCD7254A262A26BE31
:10106600DDD7265005E1320E255CD8B01200D6D762
:10107600120020EE01F02050D9262150DA22000E6F
:10108600DF6E20EE01F02250D9262350DA22010E1F
:10109600DF6E000E266E000E256E20C0D9FF21C021
:1010A600DAFF25C0DFFF22C0D9FF23C0DAFF25C043
:1010B600DFFF20C017F021C018F0B0EC04F022C00A
:1010C60017F023C018F0B0EC04F0030E246E980E4F
:1010D600E82EFED7242EFCD7254A262A26BEDDD7A3
:1010E600265005E1320E255CD8B01200D6D7120084
:1010F6000A6E0AC009F0010E09168B500918FE0B7C
:1011060009188B6E0AC009F0D8900932010E09162B
:101116000946094609468B500918F70B09188B6EC4
:101126000AC009F0D8900932D8900932010E091682
:101136008C500918FE0B09188C6E0AC009F0D8905D
:101146000932D8900932D8900932010E091609469B
:101156008C500918FD0B09188C6EF9EC0AF0030E79
:10116600E82EFED700F0120020EE01F02050D9261E
:101176002150DA22010EDF6E20EE01F02250D92630
:101186002350DA22010EDF6E000E256E000E246E4D
:1011960020C0D9FF21C0DAFF24C0DFFF22C0D9FF5B
:1011A60023C0DAFF24C0DFFF20C017F021C018F0EB
:1011B600B0EC04F022C017F023C018F0B0EC04F035
:1011C600244A252A25BEE4D7255005E1320E245CA3
:1011D600D8B01200DDD712002C6E2C04D8A40ED085
:1011E6002C502718D8B40AD028C020F029C021F0E6
:1011F6002AC022F02BC023F03CEC08F0020E2C187B
:10120600D8A40ED02C502718D8B40AD028C020F065
:1012160029C021F02AC022F02BC023F0FDEC07F0F4
:10122600030E2C18D8A412002C502718D8B412007C
:1012360028C020F029C021F02AC022F02BC023F0BC
:10124600B7EC08F012001AD0010E0B6E0DC0F6FFB7
:101256000EC0F7FFF86A020EF76403D00800F550D7
:1012660005D0F6CFE1FFF7CFE2FFE75044EC0AF0F6
:101276000D4A0E2A210EE82EFED700F00DC0F6FF0D
:101286000EC0F7FFF86A020EF76403D00800F550A7
:1012960005D0F6CFE1FFF7CFE2FFE7500009D8B45B
:1012A6001200D2D76AC06EF06BC06FF0000E00015C
:1012B600C06F000EBF6F13D068C044F069C045F020
:1012C6006E0E466E000E476E6CC048F06DC049F05B
:1012D60053EC03F044500001BF274550C0236EC0B5
:1012E600F6FF6FC0F7FF0800F5500009D8A4E4D751
:1012F600BFC068F0C0C069F01200740E0001786FBC
:10130600000E796F70C07AF071C07BF0000E7D6FB1
:10131600000E7C6F000E7F6F000E7E6F7A0E686F78
:10132600000E696F72C06AF073C06BF0780E6C6F56
:10133600000E6D6F55EC09F000017C517025D96ED9
:101346007D517121DA6E000EDF6E1200030E031856
:10135600D8A402D0010E1200020E0318D8A412D08F
:10136600000E546E000E046E04500124D96E000E59
:101376000220DA6E000EDF6E042A0B0E0464F4D728
:10138600000E120054500124D96E000E0220DA6EAF
:1013960003C0DFFF542AF4D7ECEC0AF0010E73EC1D
:1013A6000AF0000E116E000E106E010E0B6E10503C
:1013B6000E24D96E11500F20DA6EDF5044EC0AF07D
:1013C600104A112A11BEF1D7115005E10A0E105C20
:1013D600D8B01200EAD712000B50095C0D6E0C5003
:1013E6000A580E6E0EBE06D00E500EE1320E0D5C81
:1013F600D8B00AD00EAE06D0CF0E0D5CFF0E0E583A
:10140600D8A002D0030E12000EAE02D0020E1200B9
:10141600010E1200000E186E000E176E0BD016C0CD
:1014260009F00A6A14C00BF015C00CF0D9EC06F0EE
:10143600174A182A17501224D96E18501320DA6E3C
:10144600DF50166E1650D8B41200E9D7D9CF05F082
:10145600DACF06F09EAA0ED05550D8A40BD0E30ED4
:10146600016E000E026EAECF03F0A9EC09F000018A
:10147600C26F01D0AE5006C0DAFF05C0D9FF569242
:1014860011000C6E0BB002D0899E01D0898E0C38EB
:101496000F0B0F0B7BEC08F0060EE82EFED700D0E4
:1014A6000C500F0B7BEC08F0210EE82EFED700F057
:1014B6001200720ED36ED3A4FED7F28EF28CD08EAB
:1014C6001EEC06F0D2EC0AF0C5EC0AF0000E0A6E2D
:1014D600C70E096EDFEC0AF0939093949584120080
:1014E6000D6E0D04D8A405D0000E0B6E800E44ECD4
:1014F6000AF0020E0D18D8A405D0000E0B6EC00E11
:1015060044EC0AF0210EE82EFED700F0120009C0C6
:101516000BF00AC00CF002D0094A0A2A09C0D9FF0A
:101526000AC0DAFFDF50D8A4F7D70B50095C096E62
:101536000C500A580A6E120000EEBFF0300EEE6A2A
:10154600E806FDE100EE4EF0080EEE6AE806FDE163
:1015560056905692000EF86E0001A3EF01F011505E
:101566001302F3CF15F0F4CF16F011501402F35016
:10157600162612501302F350162615C011F016C087
:1015860012F01200010EB76E92849286000EB86EAB
:10159600000EB96E470E636E470E626E1200948E91
:1015A600CB0EAF6E000EB06EAA86AC84AB88AB8E47
:1015B600AC8A9D8A9F8A1200000E7F6E800E7E6E18
:1015C6006F0E6F6E000E6E6E09C07BFF0A507A6E4C
:1015D6001200000E0B6E010E44EC0AF00D0E0D6E9D
:1015E600FC0EE82EFED70D2EFCD71200898C030EBA
:0C15F600E82EFED700F0899C12001200C5
:020000040020DA
:08000000FFFFFFFFFFFFFFFF00
:020000040030CA
:0E000000FFC80F3F3C1D81FF0FC00FE00F40F7
:00000001FF
