:020000040000FA
:0400000013EF00F00A
:0600080037826DEF03F0EA
:100018003780E0CF60F060C0E0FF3790100079EFE4
:0200280004F0E2
:1003000000434845434B53554D204641494C4544D5
:1003100000434845434B53554D20504153534544AA
:1003200000524553455454494E4720524F424F5472
:100330000000000E1E6E000E1D6E1D500724D96EAB
:100340001E500820DA6E2F0EDF6418D01D500724CF
:10035000D96E1E500820DA6E3A0EDF600FD00B0EF9
:100360001D24D96E000E1E20DA6E1D500724E16E8A
:100370001E500820E26EE750D00F20D01D500724F9
:10038000D96E1E500820DA6E400EDF6418D01D5062
:100390000724D96E1E500820DA6E470EDF600FD09A
:1003A0000B0E1D24D96E000E1E20DA6E1D50072480
:1003B000E16E1E500820E26EE750C90FDF6E1D4A45
:1003C0001E2A1EBEBAD71E5004E10C0E1D5CD8A01A
:1003D000B4D70B50D8A402D0010E01D0000E0C10DF
:1003E000176E0D50D8A402D0010E01D0000E0E10D1
:1003F000186E0F50D8A402D0010E01D0000E1010BC
:10040000196E1150D8A402D0010E01D0000E1210A6
:100410001A6E1350D8A402D0010E01D0000E141091
:100420001B6E1550D8A402D0010E01D0000E16107C
:100430001C6E1750181819181A18096E0A6A1C50E1
:100440001B18D8A402D0010E01D0000E091A000E0C
:100450000A1A09500A10D8B40AD0020E52EC04F05D
:10046000110E056E030E066E1FEC04F01200020E54
:1004700052EC04F0010E056E030E066E1FEC04F044
:1004800012009490929E949695909592929C8C9046
:100490008C928B968B90899C899E270E0001656FAC
:1004A000F50EE82EFED7652FFCD7030EF2EC02F016
:1004B0000D0E0001656FFB0EE82EFED7652FFCD7F1
:1004C00000D0030EF2EC02F0850EE82EFED700F00D
:1004D000030EF2EC02F0210EE82EFED700F0020E21
:1004E000F2EC02F0210EE82EFED700F0000E000123
:1004F000636F280E03EC04F0210EE82EFED700F007
:10050000000E0001636F080E03EC04F0210EE82ECC
:10051000FED700F0000E0001636F010E03EC04F043
:100520000D0E0001656FFB0EE82EFED7652FFCD780
:1005300000D0000E0001636F060E03EC04F0210EE4
:10054000E82EFED700F0000E0001636F0C0E03ECE6
:1005500004F0210EE82EFED700F01200030E08185A
:10056000D8A420D095EC04F0010E52EC04F0000E5B
:100570000A6E000E096E010E036E09500624D96E34
:100580000A500720DA6EDF503AEC04F0094A0A2AD2
:100590000ABEF1D70A5004E10A0E095CD8A0EBD7D5
:1005A000010E1200020E0818D8A412D0000E296EF7
:1005B000000E0B6E0B500624D96E000E0720DA6E6B
:1005C000000EDF6E0B2A0B0E0B64F4D7000E120028
:1005D00029500624D96E000E0720DA6E08C0DFFF0E
:1005E000292AF4D70001626F62C061F0010E000198
:1005F00061178B506119FE0B61198B6E62C061F03F
:10060000D8906133010E61176147614761478B5094
:100610006119F70B61198B6E62C061F0D89061337C
:10062000D8906133010E61178C506119FE0B61196E
:100630008C6E62C061F0D8906133D8906133D890ED
:100640006133010E611761478C506119FD0B61190F
:100650008C6EAEEC04F0030EE82EFED700F0120014
:1006600088EC04F02A50D8A403D0FCD7020E2A6EDE
:100670002A04D8A42DD0FAD769EC04F0210E000189
:10068000656F030E666FE6EC03F0000E00016A6F03
:10069000000E696F020E0001686F040E676FBA0EDC
:1006A000E82EFED7672FFCD7682FFAD700F000019D
:1006B000694B6A2B6ABFEED76A5104E10A0E695D85
:1006C000D8A0E8D769EC04F0000E2A6E83B4D4D722
:1006D000020E2A18D8A4C6D7F9D7E1CF1FF0E2CF6F
:1006E00020F0D9CF21F0DACF22F0F6CF23F0F7CFE8
:1006F00024F0F8CF25F0F5CF26F09EAA18D02A5086
:10070000D8A415D02B0E066E000E076EAECF08F0E3
:10071000AEEC02F0286E2804D8A40AD02B0E076E87
:10072000000E086E99EC01F0010E2A6E01D0AE5059
:1007300026C0F5FF25C0F8FF24C0F7FF23C0F6FF51
:1007400022C0DAFF21C0D9FF20C0E2FF1FC0E1FFB5
:1007500037921100026E02C001F0010E01168B509B
:100760000118FE0B01188B6E02C001F0D890013207
:10077000010E01160146014601468B500118F70B88
:1007800001188B6E02C001F0D8900132D89001326E
:10079000010E01168C500118FE0B01188C6E02C060
:1007A00001F0D8900132D8900132D8900132010E78
:1007B000011601468C500118FD0B01188C6EB5EC2A
:1007C00004F0030EE82EFED700F0120012D0010E46
:1007D0000001636F65C0F6FF66C0F7FF0800F550C3
:1007E00003EC04F00001654B662B210EE82EFED7CA
:1007F00000F065C0F6FF66C0F7FF0800F55000097D
:10080000D8B41200E4D70001646F000163B102D0D4
:10081000899E01D0898E000164390F0B0F0BF2EC19
:1008200002F0060EE82EFED700D0000164510F0B37
:10083000F2EC02F0210EE82EFED700F0120010D0EC
:10084000010E036E05C0F6FF06C0F7FF0800F55065
:100850003AEC04F0054A062A210EE82EFED700F0F5
:1008600005C0F6FF06C0F7FF0800F5500009D8B430
:100870001200E6D7046E03B002D0899E01D0898EA3
:1008800004380F0B0F0BAAEC03F0060EE82EFED770
:1008900000D004500F0BAAEC03F0210EE82EFED777
:1008A00000F01200056E0504D8A405D0000E036EFA
:1008B000800E3AEC04F0020E0518D8A405D0000E04
:1008C000036EC00E3AEC04F0210EE82EFED700F0C5
:1008D0001200000E0001636F010E03EC04F00D0E18
:1008E0000001656FFB0EE82EFED7652FFCD700D008
:1008F000120000EE29F00E0EEE6AE806FDE13790D8
:100900003792000EF86E030EF76E000130EF03F021
:10091000720ED36ED3A4FED7F28EF28CD08E41EC41
:1009200002F0A2EC04F095841200000E036E010E9A
:100930003AEC04F00D0E056EFC0EE82EFED7052EE7
:10094000FCD71200948ECB0EAF6E000EB06EAA864E
:10095000AC84AB88AB8EAC8A9D8A1200898C030E66
:10096000E82EFED700F0899C1200898C030EE82E39
:08097000FED700F0899C120083
:020000040020DA
:08000000FFFFFFFFFFFFFFFF00
:020000040030CA
:0E000000FFC80F3F3C1D81FF0FC00FE00F40F7
:00000001FF
